{
  "abi": [
    {
      "inputs": [
        {
          "internalType": "address payable",
          "name": "_ceo",
          "type": "address"
        },
        {
          "internalType": "address payable",
          "name": "_owner",
          "type": "address"
        },
        {
          "internalType": "string",
          "name": "_name",
          "type": "string"
        },
        {
          "internalType": "string",
          "name": "_content",
          "type": "string"
        },
        {
          "internalType": "uint256",
          "name": "_target",
          "type": "uint256"
        },
        {
          "internalType": "uint256",
          "name": "_fundingPrice",
          "type": "uint256"
        },
        {
          "internalType": "uint256",
          "name": "_price",
          "type": "uint256"
        },
        {
          "internalType": "string",
          "name": "_img",
          "type": "string"
        },
        {
          "internalType": "string",
          "name": "_video",
          "type": "string"
        },
        {
          "internalType": "uint256",
          "name": "_count",
          "type": "uint256"
        },
        {
          "internalType": "bool",
          "name": "_isOnline",
          "type": "bool"
        }
      ],
      "stateMutability": "nonpayable",
      "type": "constructor"
    },
    {
      "inputs": [
        {
          "internalType": "string",
          "name": "_video",
          "type": "string"
        }
      ],
      "name": "addVideo",
      "outputs": [],
      "stateMutability": "nonpayable",
      "type": "function"
    },
    {
      "inputs": [],
      "name": "buy",
      "outputs": [],
      "stateMutability": "payable",
      "type": "function"
    },
    {
      "inputs": [],
      "name": "ceo",
      "outputs": [
        {
          "internalType": "address payable",
          "name": "",
          "type": "address"
        }
      ],
      "stateMutability": "view",
      "type": "function"
    },
    {
      "inputs": [],
      "name": "content",
      "outputs": [
        {
          "internalType": "string",
          "name": "",
          "type": "string"
        }
      ],
      "stateMutability": "view",
      "type": "function"
    },
    {
      "inputs": [],
      "name": "count",
      "outputs": [
        {
          "internalType": "uint256",
          "name": "",
          "type": "uint256"
        }
      ],
      "stateMutability": "view",
      "type": "function"
    },
    {
      "inputs": [],
      "name": "fundingPrice",
      "outputs": [
        {
          "internalType": "uint256",
          "name": "",
          "type": "uint256"
        }
      ],
      "stateMutability": "view",
      "type": "function"
    },
    {
      "inputs": [],
      "name": "getDetail",
      "outputs": [
        {
          "internalType": "string",
          "name": "",
          "type": "string"
        },
        {
          "internalType": "string",
          "name": "",
          "type": "string"
        },
        {
          "internalType": "uint256",
          "name": "",
          "type": "uint256"
        },
        {
          "internalType": "uint256",
          "name": "",
          "type": "uint256"
        },
        {
          "internalType": "uint256",
          "name": "",
          "type": "uint256"
        },
        {
          "internalType": "string",
          "name": "",
          "type": "string"
        },
        {
          "internalType": "string",
          "name": "",
          "type": "string"
        },
        {
          "internalType": "uint256",
          "name": "",
          "type": "uint256"
        },
        {
          "internalType": "bool",
          "name": "",
          "type": "bool"
        },
        {
          "internalType": "uint256",
          "name": "",
          "type": "uint256"
        }
      ],
      "stateMutability": "view",
      "type": "function"
    },
    {
      "inputs": [],
      "name": "img",
      "outputs": [
        {
          "internalType": "string",
          "name": "",
          "type": "string"
        }
      ],
      "stateMutability": "view",
      "type": "function"
    },
    {
      "inputs": [],
      "name": "isOnline",
      "outputs": [
        {
          "internalType": "bool",
          "name": "",
          "type": "bool"
        }
      ],
      "stateMutability": "view",
      "type": "function"
    },
    {
      "inputs": [],
      "name": "name",
      "outputs": [
        {
          "internalType": "string",
          "name": "",
          "type": "string"
        }
      ],
      "stateMutability": "view",
      "type": "function"
    },
    {
      "inputs": [],
      "name": "owner",
      "outputs": [
        {
          "internalType": "address payable",
          "name": "",
          "type": "address"
        }
      ],
      "stateMutability": "view",
      "type": "function"
    },
    {
      "inputs": [],
      "name": "price",
      "outputs": [
        {
          "internalType": "uint256",
          "name": "",
          "type": "uint256"
        }
      ],
      "stateMutability": "view",
      "type": "function"
    },
    {
      "inputs": [],
      "name": "target",
      "outputs": [
        {
          "internalType": "uint256",
          "name": "",
          "type": "uint256"
        }
      ],
      "stateMutability": "view",
      "type": "function"
    },
    {
      "inputs": [
        {
          "internalType": "address",
          "name": "",
          "type": "address"
        }
      ],
      "name": "users",
      "outputs": [
        {
          "internalType": "uint256",
          "name": "",
          "type": "uint256"
        }
      ],
      "stateMutability": "view",
      "type": "function"
    },
    {
      "inputs": [],
      "name": "video",
      "outputs": [
        {
          "internalType": "string",
          "name": "",
          "type": "string"
        }
      ],
      "stateMutability": "view",
      "type": "function"
    }
  ],
  "devdoc": {
    "kind": "dev",
    "methods": {},
    "version": 1
  },
  "evm": {
    "assembly": "    /* \"Imooc.sol\":68:2848  contract Course {... */\n  mstore(0x40, 0x80)\n    /* \"Imooc.sol\":443:1069  constructor(... */\n  callvalue\n  dup1\n  iszero\n  tag_1\n  jumpi\n  0x00\n  dup1\n  revert\ntag_1:\n  pop\n  mload(0x40)\n  sub(codesize, bytecodeSize)\n  dup1\n  bytecodeSize\n  dup4\n  codecopy\n  dup2\n  dup2\n  add\n  0x40\n  mstore\n  dup2\n  add\n  swap1\n  tag_2\n  swap2\n  swap1\n  tag_3\n  jump\t// in\ntag_2:\n    /* \"Imooc.sol\":787:791  _ceo */\n  dup11\n    /* \"Imooc.sol\":781:784  ceo */\n  0x00\n  dup1\n    /* \"Imooc.sol\":781:791  ceo = _ceo */\n  0x0100\n  exp\n  dup2\n  sload\n  dup2\n  0xffffffffffffffffffffffffffffffffffffffff\n  mul\n  not\n  and\n  swap1\n  dup4\n  0xffffffffffffffffffffffffffffffffffffffff\n  and\n  mul\n  or\n  swap1\n  sstore\n  pop\n    /* \"Imooc.sol\":810:816  _owner */\n  dup10\n    /* \"Imooc.sol\":802:807  owner */\n  0x01\n  0x00\n    /* \"Imooc.sol\":802:816  owner = _owner */\n  0x0100\n  exp\n  dup2\n  sload\n  dup2\n  0xffffffffffffffffffffffffffffffffffffffff\n  mul\n  not\n  and\n  swap1\n  dup4\n  0xffffffffffffffffffffffffffffffffffffffff\n  and\n  mul\n  or\n  swap1\n  sstore\n  pop\n    /* \"Imooc.sol\":834:839  _name */\n  dup9\n    /* \"Imooc.sol\":827:831  name */\n  0x02\n    /* \"Imooc.sol\":827:839  name = _name */\n  swap1\n  dup2\n  tag_6\n  swap2\n  swap1\n  tag_7\n  jump\t// in\ntag_6:\n  pop\n    /* \"Imooc.sol\":860:868  _content */\n  dup8\n    /* \"Imooc.sol\":850:857  content */\n  0x03\n    /* \"Imooc.sol\":850:868  content = _content */\n  swap1\n  dup2\n  tag_8\n  swap2\n  swap1\n  tag_7\n  jump\t// in\ntag_8:\n  pop\n    /* \"Imooc.sol\":888:895  _target */\n  dup7\n    /* \"Imooc.sol\":879:885  target */\n  0x04\n    /* \"Imooc.sol\":879:895  target = _target */\n  dup2\n  swap1\n  sstore\n  pop\n    /* \"Imooc.sol\":921:934  _fundingPrice */\n  dup6\n    /* \"Imooc.sol\":906:918  fundingPrice */\n  0x05\n    /* \"Imooc.sol\":906:934  fundingPrice = _fundingPrice */\n  dup2\n  swap1\n  sstore\n  pop\n    /* \"Imooc.sol\":953:959  _price */\n  dup5\n    /* \"Imooc.sol\":945:950  price */\n  0x06\n    /* \"Imooc.sol\":945:959  price = _price */\n  dup2\n  swap1\n  sstore\n  pop\n    /* \"Imooc.sol\":976:980  _img */\n  dup4\n    /* \"Imooc.sol\":970:973  img */\n  0x07\n    /* \"Imooc.sol\":970:980  img = _img */\n  swap1\n  dup2\n  tag_9\n  swap2\n  swap1\n  tag_7\n  jump\t// in\ntag_9:\n  pop\n    /* \"Imooc.sol\":999:1005  _video */\n  dup3\n    /* \"Imooc.sol\":991:996  video */\n  0x08\n    /* \"Imooc.sol\":991:1005  video = _video */\n  swap1\n  dup2\n  tag_10\n  swap2\n  swap1\n  tag_7\n  jump\t// in\ntag_10:\n  pop\n    /* \"Imooc.sol\":1024:1030  _count */\n  dup2\n    /* \"Imooc.sol\":1016:1021  count */\n  0x09\n    /* \"Imooc.sol\":1016:1030  count = _count */\n  dup2\n  swap1\n  sstore\n  pop\n    /* \"Imooc.sol\":1052:1061  _isOnline */\n  dup1\n    /* \"Imooc.sol\":1041:1049  isOnline */\n  0x0a\n  0x00\n    /* \"Imooc.sol\":1041:1061  isOnline = _isOnline */\n  0x0100\n  exp\n  dup2\n  sload\n  dup2\n  0xff\n  mul\n  not\n  and\n  swap1\n  dup4\n  iszero\n  iszero\n  mul\n  or\n  swap1\n  sstore\n  pop\n    /* \"Imooc.sol\":443:1069  constructor(... */\n  pop\n  pop\n  pop\n  pop\n  pop\n  pop\n  pop\n  pop\n  pop\n  pop\n  pop\n    /* \"Imooc.sol\":68:2848  contract Course {... */\n  jump(tag_11)\n    /* \"#utility.yul\":7:82   */\ntag_12:\n    /* \"#utility.yul\":40:46   */\n  0x00\n    /* \"#utility.yul\":73:75   */\n  0x40\n    /* \"#utility.yul\":67:76   */\n  mload\n    /* \"#utility.yul\":57:76   */\n  swap1\n  pop\n    /* \"#utility.yul\":7:82   */\n  swap1\n  jump\t// out\n    /* \"#utility.yul\":88:205   */\ntag_13:\n    /* \"#utility.yul\":197:198   */\n  0x00\n    /* \"#utility.yul\":194:195   */\n  dup1\n    /* \"#utility.yul\":187:199   */\n  revert\n    /* \"#utility.yul\":211:328   */\ntag_14:\n    /* \"#utility.yul\":320:321   */\n  0x00\n    /* \"#utility.yul\":317:318   */\n  dup1\n    /* \"#utility.yul\":310:322   */\n  revert\n    /* \"#utility.yul\":334:460   */\ntag_15:\n    /* \"#utility.yul\":371:378   */\n  0x00\n    /* \"#utility.yul\":411:453   */\n  0xffffffffffffffffffffffffffffffffffffffff\n    /* \"#utility.yul\":404:409   */\n  dup3\n    /* \"#utility.yul\":400:454   */\n  and\n    /* \"#utility.yul\":389:454   */\n  swap1\n  pop\n    /* \"#utility.yul\":334:460   */\n  swap2\n  swap1\n  pop\n  jump\t// out\n    /* \"#utility.yul\":466:570   */\ntag_16:\n    /* \"#utility.yul\":511:518   */\n  0x00\n    /* \"#utility.yul\":540:564   */\n  tag_59\n    /* \"#utility.yul\":558:563   */\n  dup3\n    /* \"#utility.yul\":540:564   */\n  tag_15\n  jump\t// in\ntag_59:\n    /* \"#utility.yul\":529:564   */\n  swap1\n  pop\n    /* \"#utility.yul\":466:570   */\n  swap2\n  swap1\n  pop\n  jump\t// out\n    /* \"#utility.yul\":576:714   */\ntag_17:\n    /* \"#utility.yul\":657:689   */\n  tag_61\n    /* \"#utility.yul\":683:688   */\n  dup2\n    /* \"#utility.yul\":657:689   */\n  tag_16\n  jump\t// in\ntag_61:\n    /* \"#utility.yul\":650:655   */\n  dup2\n    /* \"#utility.yul\":647:690   */\n  eq\n    /* \"#utility.yul\":637:708   */\n  tag_62\n  jumpi\n    /* \"#utility.yul\":704:705   */\n  0x00\n    /* \"#utility.yul\":701:702   */\n  dup1\n    /* \"#utility.yul\":694:706   */\n  revert\n    /* \"#utility.yul\":637:708   */\ntag_62:\n    /* \"#utility.yul\":576:714   */\n  pop\n  jump\t// out\n    /* \"#utility.yul\":720:879   */\ntag_18:\n    /* \"#utility.yul\":785:790   */\n  0x00\n    /* \"#utility.yul\":816:822   */\n  dup2\n    /* \"#utility.yul\":810:823   */\n  mload\n    /* \"#utility.yul\":801:823   */\n  swap1\n  pop\n    /* \"#utility.yul\":832:873   */\n  tag_64\n    /* \"#utility.yul\":867:872   */\n  dup2\n    /* \"#utility.yul\":832:873   */\n  tag_17\n  jump\t// in\ntag_64:\n    /* \"#utility.yul\":720:879   */\n  swap3\n  swap2\n  pop\n  pop\n  jump\t// out\n    /* \"#utility.yul\":885:1002   */\ntag_19:\n    /* \"#utility.yul\":994:995   */\n  0x00\n    /* \"#utility.yul\":991:992   */\n  dup1\n    /* \"#utility.yul\":984:996   */\n  revert\n    /* \"#utility.yul\":1008:1125   */\ntag_20:\n    /* \"#utility.yul\":1117:1118   */\n  0x00\n    /* \"#utility.yul\":1114:1115   */\n  dup1\n    /* \"#utility.yul\":1107:1119   */\n  revert\n    /* \"#utility.yul\":1131:1233   */\ntag_21:\n    /* \"#utility.yul\":1172:1178   */\n  0x00\n    /* \"#utility.yul\":1223:1225   */\n  0x1f\n    /* \"#utility.yul\":1219:1226   */\n  not\n    /* \"#utility.yul\":1214:1216   */\n  0x1f\n    /* \"#utility.yul\":1207:1212   */\n  dup4\n    /* \"#utility.yul\":1203:1217   */\n  add\n    /* \"#utility.yul\":1199:1227   */\n  and\n    /* \"#utility.yul\":1189:1227   */\n  swap1\n  pop\n    /* \"#utility.yul\":1131:1233   */\n  swap2\n  swap1\n  pop\n  jump\t// out\n    /* \"#utility.yul\":1239:1419   */\ntag_22:\n    /* \"#utility.yul\":1287:1364   */\n  0x4e487b7100000000000000000000000000000000000000000000000000000000\n    /* \"#utility.yul\":1284:1285   */\n  0x00\n    /* \"#utility.yul\":1277:1365   */\n  mstore\n    /* \"#utility.yul\":1384:1388   */\n  0x41\n    /* \"#utility.yul\":1381:1382   */\n  0x04\n    /* \"#utility.yul\":1374:1389   */\n  mstore\n    /* \"#utility.yul\":1408:1412   */\n  0x24\n    /* \"#utility.yul\":1405:1406   */\n  0x00\n    /* \"#utility.yul\":1398:1413   */\n  revert\n    /* \"#utility.yul\":1425:1706   */\ntag_23:\n    /* \"#utility.yul\":1508:1535   */\n  tag_70\n    /* \"#utility.yul\":1530:1534   */\n  dup3\n    /* \"#utility.yul\":1508:1535   */\n  tag_21\n  jump\t// in\ntag_70:\n    /* \"#utility.yul\":1500:1506   */\n  dup2\n    /* \"#utility.yul\":1496:1536   */\n  add\n    /* \"#utility.yul\":1638:1644   */\n  dup2\n    /* \"#utility.yul\":1626:1636   */\n  dup2\n    /* \"#utility.yul\":1623:1645   */\n  lt\n    /* \"#utility.yul\":1602:1620   */\n  0xffffffffffffffff\n    /* \"#utility.yul\":1590:1600   */\n  dup3\n    /* \"#utility.yul\":1587:1621   */\n  gt\n    /* \"#utility.yul\":1584:1646   */\n  or\n    /* \"#utility.yul\":1581:1669   */\n  iszero\n  tag_71\n  jumpi\n    /* \"#utility.yul\":1649:1667   */\n  tag_72\n  tag_22\n  jump\t// in\ntag_72:\n    /* \"#utility.yul\":1581:1669   */\ntag_71:\n    /* \"#utility.yul\":1689:1699   */\n  dup1\n    /* \"#utility.yul\":1685:1687   */\n  0x40\n    /* \"#utility.yul\":1678:1700   */\n  mstore\n    /* \"#utility.yul\":1468:1706   */\n  pop\n    /* \"#utility.yul\":1425:1706   */\n  pop\n  pop\n  jump\t// out\n    /* \"#utility.yul\":1712:1841   */\ntag_24:\n    /* \"#utility.yul\":1746:1752   */\n  0x00\n    /* \"#utility.yul\":1773:1793   */\n  tag_74\n  tag_12\n  jump\t// in\ntag_74:\n    /* \"#utility.yul\":1763:1793   */\n  swap1\n  pop\n    /* \"#utility.yul\":1802:1835   */\n  tag_75\n    /* \"#utility.yul\":1830:1834   */\n  dup3\n    /* \"#utility.yul\":1822:1828   */\n  dup3\n    /* \"#utility.yul\":1802:1835   */\n  tag_23\n  jump\t// in\ntag_75:\n    /* \"#utility.yul\":1712:1841   */\n  swap2\n  swap1\n  pop\n  jump\t// out\n    /* \"#utility.yul\":1847:2155   */\ntag_25:\n    /* \"#utility.yul\":1909:1913   */\n  0x00\n    /* \"#utility.yul\":1999:2017   */\n  0xffffffffffffffff\n    /* \"#utility.yul\":1991:1997   */\n  dup3\n    /* \"#utility.yul\":1988:2018   */\n  gt\n    /* \"#utility.yul\":1985:2041   */\n  iszero\n  tag_77\n  jumpi\n    /* \"#utility.yul\":2021:2039   */\n  tag_78\n  tag_22\n  jump\t// in\ntag_78:\n    /* \"#utility.yul\":1985:2041   */\ntag_77:\n    /* \"#utility.yul\":2059:2088   */\n  tag_79\n    /* \"#utility.yul\":2081:2087   */\n  dup3\n    /* \"#utility.yul\":2059:2088   */\n  tag_21\n  jump\t// in\ntag_79:\n    /* \"#utility.yul\":2051:2088   */\n  swap1\n  pop\n    /* \"#utility.yul\":2143:2147   */\n  0x20\n    /* \"#utility.yul\":2137:2141   */\n  dup2\n    /* \"#utility.yul\":2133:2148   */\n  add\n    /* \"#utility.yul\":2125:2148   */\n  swap1\n  pop\n    /* \"#utility.yul\":1847:2155   */\n  swap2\n  swap1\n  pop\n  jump\t// out\n    /* \"#utility.yul\":2161:2407   */\ntag_26:\n    /* \"#utility.yul\":2242:2243   */\n  0x00\n    /* \"#utility.yul\":2252:2365   */\ntag_81:\n    /* \"#utility.yul\":2266:2272   */\n  dup4\n    /* \"#utility.yul\":2263:2264   */\n  dup2\n    /* \"#utility.yul\":2260:2273   */\n  lt\n    /* \"#utility.yul\":2252:2365   */\n  iszero\n  tag_83\n  jumpi\n    /* \"#utility.yul\":2351:2352   */\n  dup1\n    /* \"#utility.yul\":2346:2349   */\n  dup3\n    /* \"#utility.yul\":2342:2353   */\n  add\n    /* \"#utility.yul\":2336:2354   */\n  mload\n    /* \"#utility.yul\":2332:2333   */\n  dup2\n    /* \"#utility.yul\":2327:2330   */\n  dup5\n    /* \"#utility.yul\":2323:2334   */\n  add\n    /* \"#utility.yul\":2316:2355   */\n  mstore\n    /* \"#utility.yul\":2288:2290   */\n  0x20\n    /* \"#utility.yul\":2285:2286   */\n  dup2\n    /* \"#utility.yul\":2281:2291   */\n  add\n    /* \"#utility.yul\":2276:2291   */\n  swap1\n  pop\n    /* \"#utility.yul\":2252:2365   */\n  jump(tag_81)\ntag_83:\n    /* \"#utility.yul\":2399:2400   */\n  0x00\n    /* \"#utility.yul\":2390:2396   */\n  dup5\n    /* \"#utility.yul\":2385:2388   */\n  dup5\n    /* \"#utility.yul\":2381:2397   */\n  add\n    /* \"#utility.yul\":2374:2401   */\n  mstore\n    /* \"#utility.yul\":2223:2407   */\n  pop\n    /* \"#utility.yul\":2161:2407   */\n  pop\n  pop\n  pop\n  jump\t// out\n    /* \"#utility.yul\":2413:2847   */\ntag_27:\n    /* \"#utility.yul\":2502:2507   */\n  0x00\n    /* \"#utility.yul\":2527:2593   */\n  tag_85\n    /* \"#utility.yul\":2543:2592   */\n  tag_86\n    /* \"#utility.yul\":2585:2591   */\n  dup5\n    /* \"#utility.yul\":2543:2592   */\n  tag_25\n  jump\t// in\ntag_86:\n    /* \"#utility.yul\":2527:2593   */\n  tag_24\n  jump\t// in\ntag_85:\n    /* \"#utility.yul\":2518:2593   */\n  swap1\n  pop\n    /* \"#utility.yul\":2616:2622   */\n  dup3\n    /* \"#utility.yul\":2609:2614   */\n  dup2\n    /* \"#utility.yul\":2602:2623   */\n  mstore\n    /* \"#utility.yul\":2654:2658   */\n  0x20\n    /* \"#utility.yul\":2647:2652   */\n  dup2\n    /* \"#utility.yul\":2643:2659   */\n  add\n    /* \"#utility.yul\":2692:2695   */\n  dup5\n    /* \"#utility.yul\":2683:2689   */\n  dup5\n    /* \"#utility.yul\":2678:2681   */\n  dup5\n    /* \"#utility.yul\":2674:2690   */\n  add\n    /* \"#utility.yul\":2671:2696   */\n  gt\n    /* \"#utility.yul\":2668:2780   */\n  iszero\n  tag_87\n  jumpi\n    /* \"#utility.yul\":2699:2778   */\n  tag_88\n  tag_20\n  jump\t// in\ntag_88:\n    /* \"#utility.yul\":2668:2780   */\ntag_87:\n    /* \"#utility.yul\":2789:2841   */\n  tag_89\n    /* \"#utility.yul\":2834:2840   */\n  dup5\n    /* \"#utility.yul\":2829:2832   */\n  dup3\n    /* \"#utility.yul\":2824:2827   */\n  dup6\n    /* \"#utility.yul\":2789:2841   */\n  tag_26\n  jump\t// in\ntag_89:\n    /* \"#utility.yul\":2508:2847   */\n  pop\n    /* \"#utility.yul\":2413:2847   */\n  swap4\n  swap3\n  pop\n  pop\n  pop\n  jump\t// out\n    /* \"#utility.yul\":2867:3222   */\ntag_28:\n    /* \"#utility.yul\":2934:2939   */\n  0x00\n    /* \"#utility.yul\":2983:2986   */\n  dup3\n    /* \"#utility.yul\":2976:2980   */\n  0x1f\n    /* \"#utility.yul\":2968:2974   */\n  dup4\n    /* \"#utility.yul\":2964:2981   */\n  add\n    /* \"#utility.yul\":2960:2987   */\n  slt\n    /* \"#utility.yul\":2950:3072   */\n  tag_91\n  jumpi\n    /* \"#utility.yul\":2991:3070   */\n  tag_92\n  tag_19\n  jump\t// in\ntag_92:\n    /* \"#utility.yul\":2950:3072   */\ntag_91:\n    /* \"#utility.yul\":3101:3107   */\n  dup2\n    /* \"#utility.yul\":3095:3108   */\n  mload\n    /* \"#utility.yul\":3126:3216   */\n  tag_93\n    /* \"#utility.yul\":3212:3215   */\n  dup5\n    /* \"#utility.yul\":3204:3210   */\n  dup3\n    /* \"#utility.yul\":3197:3201   */\n  0x20\n    /* \"#utility.yul\":3189:3195   */\n  dup7\n    /* \"#utility.yul\":3185:3202   */\n  add\n    /* \"#utility.yul\":3126:3216   */\n  tag_27\n  jump\t// in\ntag_93:\n    /* \"#utility.yul\":3117:3216   */\n  swap2\n  pop\n    /* \"#utility.yul\":2940:3222   */\n  pop\n    /* \"#utility.yul\":2867:3222   */\n  swap3\n  swap2\n  pop\n  pop\n  jump\t// out\n    /* \"#utility.yul\":3228:3305   */\ntag_29:\n    /* \"#utility.yul\":3265:3272   */\n  0x00\n    /* \"#utility.yul\":3294:3299   */\n  dup2\n    /* \"#utility.yul\":3283:3299   */\n  swap1\n  pop\n    /* \"#utility.yul\":3228:3305   */\n  swap2\n  swap1\n  pop\n  jump\t// out\n    /* \"#utility.yul\":3311:3433   */\ntag_30:\n    /* \"#utility.yul\":3384:3408   */\n  tag_96\n    /* \"#utility.yul\":3402:3407   */\n  dup2\n    /* \"#utility.yul\":3384:3408   */\n  tag_29\n  jump\t// in\ntag_96:\n    /* \"#utility.yul\":3377:3382   */\n  dup2\n    /* \"#utility.yul\":3374:3409   */\n  eq\n    /* \"#utility.yul\":3364:3427   */\n  tag_97\n  jumpi\n    /* \"#utility.yul\":3423:3424   */\n  0x00\n    /* \"#utility.yul\":3420:3421   */\n  dup1\n    /* \"#utility.yul\":3413:3425   */\n  revert\n    /* \"#utility.yul\":3364:3427   */\ntag_97:\n    /* \"#utility.yul\":3311:3433   */\n  pop\n  jump\t// out\n    /* \"#utility.yul\":3439:3582   */\ntag_31:\n    /* \"#utility.yul\":3496:3501   */\n  0x00\n    /* \"#utility.yul\":3527:3533   */\n  dup2\n    /* \"#utility.yul\":3521:3534   */\n  mload\n    /* \"#utility.yul\":3512:3534   */\n  swap1\n  pop\n    /* \"#utility.yul\":3543:3576   */\n  tag_99\n    /* \"#utility.yul\":3570:3575   */\n  dup2\n    /* \"#utility.yul\":3543:3576   */\n  tag_30\n  jump\t// in\ntag_99:\n    /* \"#utility.yul\":3439:3582   */\n  swap3\n  swap2\n  pop\n  pop\n  jump\t// out\n    /* \"#utility.yul\":3588:3678   */\ntag_32:\n    /* \"#utility.yul\":3622:3629   */\n  0x00\n    /* \"#utility.yul\":3665:3670   */\n  dup2\n    /* \"#utility.yul\":3658:3671   */\n  iszero\n    /* \"#utility.yul\":3651:3672   */\n  iszero\n    /* \"#utility.yul\":3640:3672   */\n  swap1\n  pop\n    /* \"#utility.yul\":3588:3678   */\n  swap2\n  swap1\n  pop\n  jump\t// out\n    /* \"#utility.yul\":3684:3800   */\ntag_33:\n    /* \"#utility.yul\":3754:3775   */\n  tag_102\n    /* \"#utility.yul\":3769:3774   */\n  dup2\n    /* \"#utility.yul\":3754:3775   */\n  tag_32\n  jump\t// in\ntag_102:\n    /* \"#utility.yul\":3747:3752   */\n  dup2\n    /* \"#utility.yul\":3744:3776   */\n  eq\n    /* \"#utility.yul\":3734:3794   */\n  tag_103\n  jumpi\n    /* \"#utility.yul\":3790:3791   */\n  0x00\n    /* \"#utility.yul\":3787:3788   */\n  dup1\n    /* \"#utility.yul\":3780:3792   */\n  revert\n    /* \"#utility.yul\":3734:3794   */\ntag_103:\n    /* \"#utility.yul\":3684:3800   */\n  pop\n  jump\t// out\n    /* \"#utility.yul\":3806:3943   */\ntag_34:\n    /* \"#utility.yul\":3860:3865   */\n  0x00\n    /* \"#utility.yul\":3891:3897   */\n  dup2\n    /* \"#utility.yul\":3885:3898   */\n  mload\n    /* \"#utility.yul\":3876:3898   */\n  swap1\n  pop\n    /* \"#utility.yul\":3907:3937   */\n  tag_105\n    /* \"#utility.yul\":3931:3936   */\n  dup2\n    /* \"#utility.yul\":3907:3937   */\n  tag_33\n  jump\t// in\ntag_105:\n    /* \"#utility.yul\":3806:3943   */\n  swap3\n  swap2\n  pop\n  pop\n  jump\t// out\n    /* \"#utility.yul\":3949:6588   */\ntag_3:\n    /* \"#utility.yul\":4162:4168   */\n  0x00\n    /* \"#utility.yul\":4170:4176   */\n  dup1\n    /* \"#utility.yul\":4178:4184   */\n  0x00\n    /* \"#utility.yul\":4186:4192   */\n  dup1\n    /* \"#utility.yul\":4194:4200   */\n  0x00\n    /* \"#utility.yul\":4202:4208   */\n  dup1\n    /* \"#utility.yul\":4210:4216   */\n  0x00\n    /* \"#utility.yul\":4218:4224   */\n  dup1\n    /* \"#utility.yul\":4226:4232   */\n  0x00\n    /* \"#utility.yul\":4234:4240   */\n  dup1\n    /* \"#utility.yul\":4242:4249   */\n  0x00\n    /* \"#utility.yul\":4292:4295   */\n  0x0160\n    /* \"#utility.yul\":4280:4289   */\n  dup13\n    /* \"#utility.yul\":4271:4278   */\n  dup15\n    /* \"#utility.yul\":4267:4290   */\n  sub\n    /* \"#utility.yul\":4263:4296   */\n  slt\n    /* \"#utility.yul\":4260:4380   */\n  iszero\n  tag_107\n  jumpi\n    /* \"#utility.yul\":4299:4378   */\n  tag_108\n  tag_13\n  jump\t// in\ntag_108:\n    /* \"#utility.yul\":4260:4380   */\ntag_107:\n    /* \"#utility.yul\":4419:4420   */\n  0x00\n    /* \"#utility.yul\":4444:4516   */\n  tag_109\n    /* \"#utility.yul\":4508:4515   */\n  dup15\n    /* \"#utility.yul\":4499:4505   */\n  dup3\n    /* \"#utility.yul\":4488:4497   */\n  dup16\n    /* \"#utility.yul\":4484:4506   */\n  add\n    /* \"#utility.yul\":4444:4516   */\n  tag_18\n  jump\t// in\ntag_109:\n    /* \"#utility.yul\":4434:4516   */\n  swap12\n  pop\n    /* \"#utility.yul\":4390:4526   */\n  pop\n    /* \"#utility.yul\":4565:4567   */\n  0x20\n    /* \"#utility.yul\":4591:4663   */\n  tag_110\n    /* \"#utility.yul\":4655:4662   */\n  dup15\n    /* \"#utility.yul\":4646:4652   */\n  dup3\n    /* \"#utility.yul\":4635:4644   */\n  dup16\n    /* \"#utility.yul\":4631:4653   */\n  add\n    /* \"#utility.yul\":4591:4663   */\n  tag_18\n  jump\t// in\ntag_110:\n    /* \"#utility.yul\":4581:4663   */\n  swap11\n  pop\n    /* \"#utility.yul\":4536:4673   */\n  pop\n    /* \"#utility.yul\":4733:4735   */\n  0x40\n    /* \"#utility.yul\":4722:4731   */\n  dup13\n    /* \"#utility.yul\":4718:4736   */\n  add\n    /* \"#utility.yul\":4712:4737   */\n  mload\n    /* \"#utility.yul\":4764:4782   */\n  0xffffffffffffffff\n    /* \"#utility.yul\":4756:4762   */\n  dup2\n    /* \"#utility.yul\":4753:4783   */\n  gt\n    /* \"#utility.yul\":4750:4867   */\n  iszero\n  tag_111\n  jumpi\n    /* \"#utility.yul\":4786:4865   */\n  tag_112\n  tag_14\n  jump\t// in\ntag_112:\n    /* \"#utility.yul\":4750:4867   */\ntag_111:\n    /* \"#utility.yul\":4891:4965   */\n  tag_113\n    /* \"#utility.yul\":4957:4964   */\n  dup15\n    /* \"#utility.yul\":4948:4954   */\n  dup3\n    /* \"#utility.yul\":4937:4946   */\n  dup16\n    /* \"#utility.yul\":4933:4955   */\n  add\n    /* \"#utility.yul\":4891:4965   */\n  tag_28\n  jump\t// in\ntag_113:\n    /* \"#utility.yul\":4881:4965   */\n  swap10\n  pop\n    /* \"#utility.yul\":4683:4975   */\n  pop\n    /* \"#utility.yul\":5035:5037   */\n  0x60\n    /* \"#utility.yul\":5024:5033   */\n  dup13\n    /* \"#utility.yul\":5020:5038   */\n  add\n    /* \"#utility.yul\":5014:5039   */\n  mload\n    /* \"#utility.yul\":5066:5084   */\n  0xffffffffffffffff\n    /* \"#utility.yul\":5058:5064   */\n  dup2\n    /* \"#utility.yul\":5055:5085   */\n  gt\n    /* \"#utility.yul\":5052:5169   */\n  iszero\n  tag_114\n  jumpi\n    /* \"#utility.yul\":5088:5167   */\n  tag_115\n  tag_14\n  jump\t// in\ntag_115:\n    /* \"#utility.yul\":5052:5169   */\ntag_114:\n    /* \"#utility.yul\":5193:5267   */\n  tag_116\n    /* \"#utility.yul\":5259:5266   */\n  dup15\n    /* \"#utility.yul\":5250:5256   */\n  dup3\n    /* \"#utility.yul\":5239:5248   */\n  dup16\n    /* \"#utility.yul\":5235:5257   */\n  add\n    /* \"#utility.yul\":5193:5267   */\n  tag_28\n  jump\t// in\ntag_116:\n    /* \"#utility.yul\":5183:5267   */\n  swap9\n  pop\n    /* \"#utility.yul\":4985:5277   */\n  pop\n    /* \"#utility.yul\":5316:5319   */\n  0x80\n    /* \"#utility.yul\":5343:5407   */\n  tag_117\n    /* \"#utility.yul\":5399:5406   */\n  dup15\n    /* \"#utility.yul\":5390:5396   */\n  dup3\n    /* \"#utility.yul\":5379:5388   */\n  dup16\n    /* \"#utility.yul\":5375:5397   */\n  add\n    /* \"#utility.yul\":5343:5407   */\n  tag_31\n  jump\t// in\ntag_117:\n    /* \"#utility.yul\":5333:5407   */\n  swap8\n  pop\n    /* \"#utility.yul\":5287:5417   */\n  pop\n    /* \"#utility.yul\":5456:5459   */\n  0xa0\n    /* \"#utility.yul\":5483:5547   */\n  tag_118\n    /* \"#utility.yul\":5539:5546   */\n  dup15\n    /* \"#utility.yul\":5530:5536   */\n  dup3\n    /* \"#utility.yul\":5519:5528   */\n  dup16\n    /* \"#utility.yul\":5515:5537   */\n  add\n    /* \"#utility.yul\":5483:5547   */\n  tag_31\n  jump\t// in\ntag_118:\n    /* \"#utility.yul\":5473:5547   */\n  swap7\n  pop\n    /* \"#utility.yul\":5427:5557   */\n  pop\n    /* \"#utility.yul\":5596:5599   */\n  0xc0\n    /* \"#utility.yul\":5623:5687   */\n  tag_119\n    /* \"#utility.yul\":5679:5686   */\n  dup15\n    /* \"#utility.yul\":5670:5676   */\n  dup3\n    /* \"#utility.yul\":5659:5668   */\n  dup16\n    /* \"#utility.yul\":5655:5677   */\n  add\n    /* \"#utility.yul\":5623:5687   */\n  tag_31\n  jump\t// in\ntag_119:\n    /* \"#utility.yul\":5613:5687   */\n  swap6\n  pop\n    /* \"#utility.yul\":5567:5697   */\n  pop\n    /* \"#utility.yul\":5757:5760   */\n  0xe0\n    /* \"#utility.yul\":5746:5755   */\n  dup13\n    /* \"#utility.yul\":5742:5761   */\n  add\n    /* \"#utility.yul\":5736:5762   */\n  mload\n    /* \"#utility.yul\":5789:5807   */\n  0xffffffffffffffff\n    /* \"#utility.yul\":5781:5787   */\n  dup2\n    /* \"#utility.yul\":5778:5808   */\n  gt\n    /* \"#utility.yul\":5775:5892   */\n  iszero\n  tag_120\n  jumpi\n    /* \"#utility.yul\":5811:5890   */\n  tag_121\n  tag_14\n  jump\t// in\ntag_121:\n    /* \"#utility.yul\":5775:5892   */\ntag_120:\n    /* \"#utility.yul\":5916:5990   */\n  tag_122\n    /* \"#utility.yul\":5982:5989   */\n  dup15\n    /* \"#utility.yul\":5973:5979   */\n  dup3\n    /* \"#utility.yul\":5962:5971   */\n  dup16\n    /* \"#utility.yul\":5958:5980   */\n  add\n    /* \"#utility.yul\":5916:5990   */\n  tag_28\n  jump\t// in\ntag_122:\n    /* \"#utility.yul\":5906:5990   */\n  swap5\n  pop\n    /* \"#utility.yul\":5707:6000   */\n  pop\n    /* \"#utility.yul\":6060:6063   */\n  0x0100\n    /* \"#utility.yul\":6049:6058   */\n  dup13\n    /* \"#utility.yul\":6045:6064   */\n  add\n    /* \"#utility.yul\":6039:6065   */\n  mload\n    /* \"#utility.yul\":6092:6110   */\n  0xffffffffffffffff\n    /* \"#utility.yul\":6084:6090   */\n  dup2\n    /* \"#utility.yul\":6081:6111   */\n  gt\n    /* \"#utility.yul\":6078:6195   */\n  iszero\n  tag_123\n  jumpi\n    /* \"#utility.yul\":6114:6193   */\n  tag_124\n  tag_14\n  jump\t// in\ntag_124:\n    /* \"#utility.yul\":6078:6195   */\ntag_123:\n    /* \"#utility.yul\":6219:6293   */\n  tag_125\n    /* \"#utility.yul\":6285:6292   */\n  dup15\n    /* \"#utility.yul\":6276:6282   */\n  dup3\n    /* \"#utility.yul\":6265:6274   */\n  dup16\n    /* \"#utility.yul\":6261:6283   */\n  add\n    /* \"#utility.yul\":6219:6293   */\n  tag_28\n  jump\t// in\ntag_125:\n    /* \"#utility.yul\":6209:6293   */\n  swap4\n  pop\n    /* \"#utility.yul\":6010:6303   */\n  pop\n    /* \"#utility.yul\":6342:6345   */\n  0x0120\n    /* \"#utility.yul\":6369:6433   */\n  tag_126\n    /* \"#utility.yul\":6425:6432   */\n  dup15\n    /* \"#utility.yul\":6416:6422   */\n  dup3\n    /* \"#utility.yul\":6405:6414   */\n  dup16\n    /* \"#utility.yul\":6401:6423   */\n  add\n    /* \"#utility.yul\":6369:6433   */\n  tag_31\n  jump\t// in\ntag_126:\n    /* \"#utility.yul\":6359:6433   */\n  swap3\n  pop\n    /* \"#utility.yul\":6313:6443   */\n  pop\n    /* \"#utility.yul\":6482:6485   */\n  0x0140\n    /* \"#utility.yul\":6510:6571   */\n  tag_127\n    /* \"#utility.yul\":6563:6570   */\n  dup15\n    /* \"#utility.yul\":6554:6560   */\n  dup3\n    /* \"#utility.yul\":6543:6552   */\n  dup16\n    /* \"#utility.yul\":6539:6561   */\n  add\n    /* \"#utility.yul\":6510:6571   */\n  tag_34\n  jump\t// in\ntag_127:\n    /* \"#utility.yul\":6499:6571   */\n  swap2\n  pop\n    /* \"#utility.yul\":6453:6581   */\n  pop\n    /* \"#utility.yul\":3949:6588   */\n  swap3\n  swap6\n  swap9\n  swap12\n  pop\n  swap3\n  swap6\n  swap9\n  swap12\n  swap1\n  swap4\n  swap7\n  swap10\n  pop\n  jump\t// out\n    /* \"#utility.yul\":6594:6693   */\ntag_35:\n    /* \"#utility.yul\":6646:6652   */\n  0x00\n    /* \"#utility.yul\":6680:6685   */\n  dup2\n    /* \"#utility.yul\":6674:6686   */\n  mload\n    /* \"#utility.yul\":6664:6686   */\n  swap1\n  pop\n    /* \"#utility.yul\":6594:6693   */\n  swap2\n  swap1\n  pop\n  jump\t// out\n    /* \"#utility.yul\":6699:6879   */\ntag_36:\n    /* \"#utility.yul\":6747:6824   */\n  0x4e487b7100000000000000000000000000000000000000000000000000000000\n    /* \"#utility.yul\":6744:6745   */\n  0x00\n    /* \"#utility.yul\":6737:6825   */\n  mstore\n    /* \"#utility.yul\":6844:6848   */\n  0x22\n    /* \"#utility.yul\":6841:6842   */\n  0x04\n    /* \"#utility.yul\":6834:6849   */\n  mstore\n    /* \"#utility.yul\":6868:6872   */\n  0x24\n    /* \"#utility.yul\":6865:6866   */\n  0x00\n    /* \"#utility.yul\":6858:6873   */\n  revert\n    /* \"#utility.yul\":6885:7205   */\ntag_37:\n    /* \"#utility.yul\":6929:6935   */\n  0x00\n    /* \"#utility.yul\":6966:6967   */\n  0x02\n    /* \"#utility.yul\":6960:6964   */\n  dup3\n    /* \"#utility.yul\":6956:6968   */\n  div\n    /* \"#utility.yul\":6946:6968   */\n  swap1\n  pop\n    /* \"#utility.yul\":7013:7014   */\n  0x01\n    /* \"#utility.yul\":7007:7011   */\n  dup3\n    /* \"#utility.yul\":7003:7015   */\n  and\n    /* \"#utility.yul\":7034:7052   */\n  dup1\n    /* \"#utility.yul\":7024:7105   */\n  tag_131\n  jumpi\n    /* \"#utility.yul\":7090:7094   */\n  0x7f\n    /* \"#utility.yul\":7082:7088   */\n  dup3\n    /* \"#utility.yul\":7078:7095   */\n  and\n    /* \"#utility.yul\":7068:7095   */\n  swap2\n  pop\n    /* \"#utility.yul\":7024:7105   */\ntag_131:\n    /* \"#utility.yul\":7152:7154   */\n  0x20\n    /* \"#utility.yul\":7144:7150   */\n  dup3\n    /* \"#utility.yul\":7141:7155   */\n  lt\n    /* \"#utility.yul\":7121:7139   */\n  dup2\n    /* \"#utility.yul\":7118:7156   */\n  sub\n    /* \"#utility.yul\":7115:7199   */\n  tag_132\n  jumpi\n    /* \"#utility.yul\":7171:7189   */\n  tag_133\n  tag_36\n  jump\t// in\ntag_133:\n    /* \"#utility.yul\":7115:7199   */\ntag_132:\n    /* \"#utility.yul\":6936:7205   */\n  pop\n    /* \"#utility.yul\":6885:7205   */\n  swap2\n  swap1\n  pop\n  jump\t// out\n    /* \"#utility.yul\":7211:7352   */\ntag_38:\n    /* \"#utility.yul\":7260:7264   */\n  0x00\n    /* \"#utility.yul\":7283:7286   */\n  dup2\n    /* \"#utility.yul\":7275:7286   */\n  swap1\n  pop\n    /* \"#utility.yul\":7306:7309   */\n  dup2\n    /* \"#utility.yul\":7303:7304   */\n  0x00\n    /* \"#utility.yul\":7296:7310   */\n  mstore\n    /* \"#utility.yul\":7340:7344   */\n  0x20\n    /* \"#utility.yul\":7337:7338   */\n  0x00\n    /* \"#utility.yul\":7327:7345   */\n  keccak256\n    /* \"#utility.yul\":7319:7345   */\n  swap1\n  pop\n    /* \"#utility.yul\":7211:7352   */\n  swap2\n  swap1\n  pop\n  jump\t// out\n    /* \"#utility.yul\":7358:7451   */\ntag_39:\n    /* \"#utility.yul\":7395:7401   */\n  0x00\n    /* \"#utility.yul\":7442:7444   */\n  0x20\n    /* \"#utility.yul\":7437:7439   */\n  0x1f\n    /* \"#utility.yul\":7430:7435   */\n  dup4\n    /* \"#utility.yul\":7426:7440   */\n  add\n    /* \"#utility.yul\":7422:7445   */\n  div\n    /* \"#utility.yul\":7412:7445   */\n  swap1\n  pop\n    /* \"#utility.yul\":7358:7451   */\n  swap2\n  swap1\n  pop\n  jump\t// out\n    /* \"#utility.yul\":7457:7564   */\ntag_40:\n    /* \"#utility.yul\":7501:7509   */\n  0x00\n    /* \"#utility.yul\":7551:7556   */\n  dup3\n    /* \"#utility.yul\":7545:7549   */\n  dup3\n    /* \"#utility.yul\":7541:7557   */\n  shl\n    /* \"#utility.yul\":7520:7557   */\n  swap1\n  pop\n    /* \"#utility.yul\":7457:7564   */\n  swap3\n  swap2\n  pop\n  pop\n  jump\t// out\n    /* \"#utility.yul\":7570:7963   */\ntag_41:\n    /* \"#utility.yul\":7639:7645   */\n  0x00\n    /* \"#utility.yul\":7689:7690   */\n  0x08\n    /* \"#utility.yul\":7677:7687   */\n  dup4\n    /* \"#utility.yul\":7673:7691   */\n  mul\n    /* \"#utility.yul\":7712:7809   */\n  tag_138\n    /* \"#utility.yul\":7742:7808   */\n  0xffffffffffffffffffffffffffffffffffffffffffffffffffffffffffffffff\n    /* \"#utility.yul\":7731:7740   */\n  dup3\n    /* \"#utility.yul\":7712:7809   */\n  tag_40\n  jump\t// in\ntag_138:\n    /* \"#utility.yul\":7830:7869   */\n  tag_139\n    /* \"#utility.yul\":7860:7868   */\n  dup7\n    /* \"#utility.yul\":7849:7858   */\n  dup4\n    /* \"#utility.yul\":7830:7869   */\n  tag_40\n  jump\t// in\ntag_139:\n    /* \"#utility.yul\":7818:7869   */\n  swap6\n  pop\n    /* \"#utility.yul\":7902:7906   */\n  dup1\n    /* \"#utility.yul\":7898:7907   */\n  not\n    /* \"#utility.yul\":7891:7896   */\n  dup5\n    /* \"#utility.yul\":7887:7908   */\n  and\n    /* \"#utility.yul\":7878:7908   */\n  swap4\n  pop\n    /* \"#utility.yul\":7951:7955   */\n  dup1\n    /* \"#utility.yul\":7941:7949   */\n  dup7\n    /* \"#utility.yul\":7937:7956   */\n  and\n    /* \"#utility.yul\":7930:7935   */\n  dup5\n    /* \"#utility.yul\":7927:7957   */\n  or\n    /* \"#utility.yul\":7917:7957   */\n  swap3\n  pop\n    /* \"#utility.yul\":7646:7963   */\n  pop\n  pop\n    /* \"#utility.yul\":7570:7963   */\n  swap4\n  swap3\n  pop\n  pop\n  pop\n  jump\t// out\n    /* \"#utility.yul\":7969:8029   */\ntag_42:\n    /* \"#utility.yul\":7997:8000   */\n  0x00\n    /* \"#utility.yul\":8018:8023   */\n  dup2\n    /* \"#utility.yul\":8011:8023   */\n  swap1\n  pop\n    /* \"#utility.yul\":7969:8029   */\n  swap2\n  swap1\n  pop\n  jump\t// out\n    /* \"#utility.yul\":8035:8177   */\ntag_43:\n    /* \"#utility.yul\":8085:8094   */\n  0x00\n    /* \"#utility.yul\":8118:8171   */\n  tag_142\n    /* \"#utility.yul\":8136:8170   */\n  tag_143\n    /* \"#utility.yul\":8145:8169   */\n  tag_144\n    /* \"#utility.yul\":8163:8168   */\n  dup5\n    /* \"#utility.yul\":8145:8169   */\n  tag_29\n  jump\t// in\ntag_144:\n    /* \"#utility.yul\":8136:8170   */\n  tag_42\n  jump\t// in\ntag_143:\n    /* \"#utility.yul\":8118:8171   */\n  tag_29\n  jump\t// in\ntag_142:\n    /* \"#utility.yul\":8105:8171   */\n  swap1\n  pop\n    /* \"#utility.yul\":8035:8177   */\n  swap2\n  swap1\n  pop\n  jump\t// out\n    /* \"#utility.yul\":8183:8258   */\ntag_44:\n    /* \"#utility.yul\":8226:8229   */\n  0x00\n    /* \"#utility.yul\":8247:8252   */\n  dup2\n    /* \"#utility.yul\":8240:8252   */\n  swap1\n  pop\n    /* \"#utility.yul\":8183:8258   */\n  swap2\n  swap1\n  pop\n  jump\t// out\n    /* \"#utility.yul\":8264:8533   */\ntag_45:\n    /* \"#utility.yul\":8374:8413   */\n  tag_147\n    /* \"#utility.yul\":8405:8412   */\n  dup4\n    /* \"#utility.yul\":8374:8413   */\n  tag_43\n  jump\t// in\ntag_147:\n    /* \"#utility.yul\":8435:8526   */\n  tag_148\n    /* \"#utility.yul\":8484:8525   */\n  tag_149\n    /* \"#utility.yul\":8508:8524   */\n  dup3\n    /* \"#utility.yul\":8484:8525   */\n  tag_44\n  jump\t// in\ntag_149:\n    /* \"#utility.yul\":8476:8482   */\n  dup5\n    /* \"#utility.yul\":8469:8473   */\n  dup5\n    /* \"#utility.yul\":8463:8474   */\n  sload\n    /* \"#utility.yul\":8435:8526   */\n  tag_41\n  jump\t// in\ntag_148:\n    /* \"#utility.yul\":8429:8433   */\n  dup3\n    /* \"#utility.yul\":8422:8527   */\n  sstore\n    /* \"#utility.yul\":8340:8533   */\n  pop\n    /* \"#utility.yul\":8264:8533   */\n  pop\n  pop\n  pop\n  jump\t// out\n    /* \"#utility.yul\":8539:8612   */\ntag_46:\n    /* \"#utility.yul\":8584:8587   */\n  0x00\n    /* \"#utility.yul\":8539:8612   */\n  swap1\n  jump\t// out\n    /* \"#utility.yul\":8618:8807   */\ntag_47:\n    /* \"#utility.yul\":8695:8727   */\n  tag_152\n  tag_46\n  jump\t// in\ntag_152:\n    /* \"#utility.yul\":8736:8801   */\n  tag_153\n    /* \"#utility.yul\":8794:8800   */\n  dup2\n    /* \"#utility.yul\":8786:8792   */\n  dup5\n    /* \"#utility.yul\":8780:8784   */\n  dup5\n    /* \"#utility.yul\":8736:8801   */\n  tag_45\n  jump\t// in\ntag_153:\n    /* \"#utility.yul\":8671:8807   */\n  pop\n    /* \"#utility.yul\":8618:8807   */\n  pop\n  pop\n  jump\t// out\n    /* \"#utility.yul\":8813:8999   */\ntag_48:\n    /* \"#utility.yul\":8873:8993   */\ntag_155:\n    /* \"#utility.yul\":8890:8893   */\n  dup2\n    /* \"#utility.yul\":8883:8888   */\n  dup2\n    /* \"#utility.yul\":8880:8894   */\n  lt\n    /* \"#utility.yul\":8873:8993   */\n  iszero\n  tag_157\n  jumpi\n    /* \"#utility.yul\":8944:8983   */\n  tag_158\n    /* \"#utility.yul\":8981:8982   */\n  0x00\n    /* \"#utility.yul\":8974:8979   */\n  dup3\n    /* \"#utility.yul\":8944:8983   */\n  tag_47\n  jump\t// in\ntag_158:\n    /* \"#utility.yul\":8917:8918   */\n  0x01\n    /* \"#utility.yul\":8910:8915   */\n  dup2\n    /* \"#utility.yul\":8906:8919   */\n  add\n    /* \"#utility.yul\":8897:8919   */\n  swap1\n  pop\n    /* \"#utility.yul\":8873:8993   */\n  jump(tag_155)\ntag_157:\n    /* \"#utility.yul\":8813:8999   */\n  pop\n  pop\n  jump\t// out\n    /* \"#utility.yul\":9005:9548   */\ntag_49:\n    /* \"#utility.yul\":9106:9108   */\n  0x1f\n    /* \"#utility.yul\":9101:9104   */\n  dup3\n    /* \"#utility.yul\":9098:9109   */\n  gt\n    /* \"#utility.yul\":9095:9541   */\n  iszero\n  tag_160\n  jumpi\n    /* \"#utility.yul\":9140:9178   */\n  tag_161\n    /* \"#utility.yul\":9172:9177   */\n  dup2\n    /* \"#utility.yul\":9140:9178   */\n  tag_38\n  jump\t// in\ntag_161:\n    /* \"#utility.yul\":9224:9253   */\n  tag_162\n    /* \"#utility.yul\":9242:9252   */\n  dup5\n    /* \"#utility.yul\":9224:9253   */\n  tag_39\n  jump\t// in\ntag_162:\n    /* \"#utility.yul\":9214:9222   */\n  dup2\n    /* \"#utility.yul\":9210:9254   */\n  add\n    /* \"#utility.yul\":9407:9409   */\n  0x20\n    /* \"#utility.yul\":9395:9405   */\n  dup6\n    /* \"#utility.yul\":9392:9410   */\n  lt\n    /* \"#utility.yul\":9389:9438   */\n  iszero\n  tag_163\n  jumpi\n    /* \"#utility.yul\":9428:9436   */\n  dup2\n    /* \"#utility.yul\":9413:9436   */\n  swap1\n  pop\n    /* \"#utility.yul\":9389:9438   */\ntag_163:\n    /* \"#utility.yul\":9451:9531   */\n  tag_164\n    /* \"#utility.yul\":9507:9529   */\n  tag_165\n    /* \"#utility.yul\":9525:9528   */\n  dup6\n    /* \"#utility.yul\":9507:9529   */\n  tag_39\n  jump\t// in\ntag_165:\n    /* \"#utility.yul\":9497:9505   */\n  dup4\n    /* \"#utility.yul\":9493:9530   */\n  add\n    /* \"#utility.yul\":9480:9491   */\n  dup3\n    /* \"#utility.yul\":9451:9531   */\n  tag_48\n  jump\t// in\ntag_164:\n    /* \"#utility.yul\":9110:9541   */\n  pop\n  pop\n    /* \"#utility.yul\":9095:9541   */\ntag_160:\n    /* \"#utility.yul\":9005:9548   */\n  pop\n  pop\n  pop\n  jump\t// out\n    /* \"#utility.yul\":9554:9671   */\ntag_50:\n    /* \"#utility.yul\":9608:9616   */\n  0x00\n    /* \"#utility.yul\":9658:9663   */\n  dup3\n    /* \"#utility.yul\":9652:9656   */\n  dup3\n    /* \"#utility.yul\":9648:9664   */\n  shr\n    /* \"#utility.yul\":9627:9664   */\n  swap1\n  pop\n    /* \"#utility.yul\":9554:9671   */\n  swap3\n  swap2\n  pop\n  pop\n  jump\t// out\n    /* \"#utility.yul\":9677:9846   */\ntag_51:\n    /* \"#utility.yul\":9721:9727   */\n  0x00\n    /* \"#utility.yul\":9754:9805   */\n  tag_168\n    /* \"#utility.yul\":9802:9803   */\n  0x00\n    /* \"#utility.yul\":9798:9804   */\n  not\n    /* \"#utility.yul\":9790:9795   */\n  dup5\n    /* \"#utility.yul\":9787:9788   */\n  0x08\n    /* \"#utility.yul\":9783:9796   */\n  mul\n    /* \"#utility.yul\":9754:9805   */\n  tag_50\n  jump\t// in\ntag_168:\n    /* \"#utility.yul\":9750:9806   */\n  not\n    /* \"#utility.yul\":9835:9839   */\n  dup1\n    /* \"#utility.yul\":9829:9833   */\n  dup4\n    /* \"#utility.yul\":9825:9840   */\n  and\n    /* \"#utility.yul\":9815:9840   */\n  swap2\n  pop\n    /* \"#utility.yul\":9728:9846   */\n  pop\n    /* \"#utility.yul\":9677:9846   */\n  swap3\n  swap2\n  pop\n  pop\n  jump\t// out\n    /* \"#utility.yul\":9851:10146   */\ntag_52:\n    /* \"#utility.yul\":9927:9931   */\n  0x00\n    /* \"#utility.yul\":10073:10102   */\n  tag_170\n    /* \"#utility.yul\":10098:10101   */\n  dup4\n    /* \"#utility.yul\":10092:10096   */\n  dup4\n    /* \"#utility.yul\":10073:10102   */\n  tag_51\n  jump\t// in\ntag_170:\n    /* \"#utility.yul\":10065:10102   */\n  swap2\n  pop\n    /* \"#utility.yul\":10135:10138   */\n  dup3\n    /* \"#utility.yul\":10132:10133   */\n  0x02\n    /* \"#utility.yul\":10128:10139   */\n  mul\n    /* \"#utility.yul\":10122:10126   */\n  dup3\n    /* \"#utility.yul\":10119:10140   */\n  or\n    /* \"#utility.yul\":10111:10140   */\n  swap1\n  pop\n    /* \"#utility.yul\":9851:10146   */\n  swap3\n  swap2\n  pop\n  pop\n  jump\t// out\n    /* \"#utility.yul\":10151:11546   */\ntag_7:\n    /* \"#utility.yul\":10268:10305   */\n  tag_172\n    /* \"#utility.yul\":10301:10304   */\n  dup3\n    /* \"#utility.yul\":10268:10305   */\n  tag_35\n  jump\t// in\ntag_172:\n    /* \"#utility.yul\":10370:10388   */\n  0xffffffffffffffff\n    /* \"#utility.yul\":10362:10368   */\n  dup2\n    /* \"#utility.yul\":10359:10389   */\n  gt\n    /* \"#utility.yul\":10356:10412   */\n  iszero\n  tag_173\n  jumpi\n    /* \"#utility.yul\":10392:10410   */\n  tag_174\n  tag_22\n  jump\t// in\ntag_174:\n    /* \"#utility.yul\":10356:10412   */\ntag_173:\n    /* \"#utility.yul\":10436:10474   */\n  tag_175\n    /* \"#utility.yul\":10468:10472   */\n  dup3\n    /* \"#utility.yul\":10462:10473   */\n  sload\n    /* \"#utility.yul\":10436:10474   */\n  tag_37\n  jump\t// in\ntag_175:\n    /* \"#utility.yul\":10521:10588   */\n  tag_176\n    /* \"#utility.yul\":10581:10587   */\n  dup3\n    /* \"#utility.yul\":10573:10579   */\n  dup3\n    /* \"#utility.yul\":10567:10571   */\n  dup6\n    /* \"#utility.yul\":10521:10588   */\n  tag_49\n  jump\t// in\ntag_176:\n    /* \"#utility.yul\":10615:10616   */\n  0x00\n    /* \"#utility.yul\":10639:10643   */\n  0x20\n    /* \"#utility.yul\":10626:10643   */\n  swap1\n  pop\n    /* \"#utility.yul\":10671:10673   */\n  0x1f\n    /* \"#utility.yul\":10663:10669   */\n  dup4\n    /* \"#utility.yul\":10660:10674   */\n  gt\n    /* \"#utility.yul\":10688:10689   */\n  0x01\n    /* \"#utility.yul\":10683:11301   */\n  dup2\n  eq\n  tag_178\n  jumpi\n    /* \"#utility.yul\":11345:11346   */\n  0x00\n    /* \"#utility.yul\":11362:11368   */\n  dup5\n    /* \"#utility.yul\":11359:11436   */\n  iszero\n  tag_179\n  jumpi\n    /* \"#utility.yul\":11411:11420   */\n  dup3\n    /* \"#utility.yul\":11406:11409   */\n  dup8\n    /* \"#utility.yul\":11402:11421   */\n  add\n    /* \"#utility.yul\":11396:11422   */\n  mload\n    /* \"#utility.yul\":11387:11422   */\n  swap1\n  pop\n    /* \"#utility.yul\":11359:11436   */\ntag_179:\n    /* \"#utility.yul\":11462:11529   */\n  tag_180\n    /* \"#utility.yul\":11522:11528   */\n  dup6\n    /* \"#utility.yul\":11515:11520   */\n  dup3\n    /* \"#utility.yul\":11462:11529   */\n  tag_52\n  jump\t// in\ntag_180:\n    /* \"#utility.yul\":11456:11460   */\n  dup7\n    /* \"#utility.yul\":11449:11530   */\n  sstore\n    /* \"#utility.yul\":11318:11540   */\n  pop\n    /* \"#utility.yul\":10653:11540   */\n  jump(tag_177)\n    /* \"#utility.yul\":10683:11301   */\ntag_178:\n    /* \"#utility.yul\":10735:10739   */\n  0x1f\n    /* \"#utility.yul\":10731:10740   */\n  not\n    /* \"#utility.yul\":10723:10729   */\n  dup5\n    /* \"#utility.yul\":10719:10741   */\n  and\n    /* \"#utility.yul\":10769:10806   */\n  tag_181\n    /* \"#utility.yul\":10801:10805   */\n  dup7\n    /* \"#utility.yul\":10769:10806   */\n  tag_38\n  jump\t// in\ntag_181:\n    /* \"#utility.yul\":10828:10829   */\n  0x00\n    /* \"#utility.yul\":10842:11050   */\ntag_182:\n    /* \"#utility.yul\":10856:10863   */\n  dup3\n    /* \"#utility.yul\":10853:10854   */\n  dup2\n    /* \"#utility.yul\":10850:10864   */\n  lt\n    /* \"#utility.yul\":10842:11050   */\n  iszero\n  tag_184\n  jumpi\n    /* \"#utility.yul\":10935:10944   */\n  dup5\n    /* \"#utility.yul\":10930:10933   */\n  dup10\n    /* \"#utility.yul\":10926:10945   */\n  add\n    /* \"#utility.yul\":10920:10946   */\n  mload\n    /* \"#utility.yul\":10912:10918   */\n  dup3\n    /* \"#utility.yul\":10905:10947   */\n  sstore\n    /* \"#utility.yul\":10986:10987   */\n  0x01\n    /* \"#utility.yul\":10978:10984   */\n  dup3\n    /* \"#utility.yul\":10974:10988   */\n  add\n    /* \"#utility.yul\":10964:10988   */\n  swap2\n  pop\n    /* \"#utility.yul\":11033:11035   */\n  0x20\n    /* \"#utility.yul\":11022:11031   */\n  dup6\n    /* \"#utility.yul\":11018:11036   */\n  add\n    /* \"#utility.yul\":11005:11036   */\n  swap5\n  pop\n    /* \"#utility.yul\":10879:10883   */\n  0x20\n    /* \"#utility.yul\":10876:10877   */\n  dup2\n    /* \"#utility.yul\":10872:10884   */\n  add\n    /* \"#utility.yul\":10867:10884   */\n  swap1\n  pop\n    /* \"#utility.yul\":10842:11050   */\n  jump(tag_182)\ntag_184:\n    /* \"#utility.yul\":11078:11084   */\n  dup7\n    /* \"#utility.yul\":11069:11076   */\n  dup4\n    /* \"#utility.yul\":11066:11085   */\n  lt\n    /* \"#utility.yul\":11063:11242   */\n  iszero\n  tag_185\n  jumpi\n    /* \"#utility.yul\":11136:11145   */\n  dup5\n    /* \"#utility.yul\":11131:11134   */\n  dup10\n    /* \"#utility.yul\":11127:11146   */\n  add\n    /* \"#utility.yul\":11121:11147   */\n  mload\n    /* \"#utility.yul\":11179:11227   */\n  tag_186\n    /* \"#utility.yul\":11221:11225   */\n  0x1f\n    /* \"#utility.yul\":11213:11219   */\n  dup10\n    /* \"#utility.yul\":11209:11226   */\n  and\n    /* \"#utility.yul\":11198:11207   */\n  dup3\n    /* \"#utility.yul\":11179:11227   */\n  tag_51\n  jump\t// in\ntag_186:\n    /* \"#utility.yul\":11171:11177   */\n  dup4\n    /* \"#utility.yul\":11164:11228   */\n  sstore\n    /* \"#utility.yul\":11086:11242   */\n  pop\n    /* \"#utility.yul\":11063:11242   */\ntag_185:\n    /* \"#utility.yul\":11288:11289   */\n  0x01\n    /* \"#utility.yul\":11284:11285   */\n  0x02\n    /* \"#utility.yul\":11276:11282   */\n  dup9\n    /* \"#utility.yul\":11272:11286   */\n  mul\n    /* \"#utility.yul\":11268:11290   */\n  add\n    /* \"#utility.yul\":11262:11266   */\n  dup9\n    /* \"#utility.yul\":11255:11291   */\n  sstore\n    /* \"#utility.yul\":10690:11301   */\n  pop\n  pop\n  pop\n    /* \"#utility.yul\":10653:11540   */\ntag_177:\n  pop\n    /* \"#utility.yul\":10243:11546   */\n  pop\n  pop\n  pop\n    /* \"#utility.yul\":10151:11546   */\n  pop\n  pop\n  jump\t// out\n    /* \"Imooc.sol\":68:2848  contract Course {... */\ntag_11:\n  dataSize(sub_0)\n  dup1\n  dataOffset(sub_0)\n  0x00\n  codecopy\n  0x00\n  return\nstop\n\nsub_0: assembly {\n        /* \"Imooc.sol\":68:2848  contract Course {... */\n      mstore(0x40, 0x80)\n      jumpi(tag_1, lt(calldatasize, 0x04))\n      shr(0xe0, calldataload(0x00))\n      dup1\n      0x8a4d5a67\n      gt\n      tag_17\n      jumpi\n      dup1\n      0xa6f2ae3a\n      gt\n      tag_18\n      jumpi\n      dup1\n      0xa6f2ae3a\n      eq\n      tag_13\n      jumpi\n      dup1\n      0xa87430ba\n      eq\n      tag_14\n      jumpi\n      dup1\n      0xcd0a4963\n      eq\n      tag_15\n      jumpi\n      dup1\n      0xd4b83992\n      eq\n      tag_16\n      jumpi\n      jump(tag_1)\n    tag_18:\n      dup1\n      0x8a4d5a67\n      eq\n      tag_9\n      jumpi\n      dup1\n      0x8da5cb5b\n      eq\n      tag_10\n      jumpi\n      dup1\n      0x908921fc\n      eq\n      tag_11\n      jumpi\n      dup1\n      0xa035b1fe\n      eq\n      tag_12\n      jumpi\n      jump(tag_1)\n    tag_17:\n      dup1\n      0x33938bb7\n      gt\n      tag_19\n      jumpi\n      dup1\n      0x33938bb7\n      eq\n      tag_5\n      jumpi\n      dup1\n      0x426bfd00\n      eq\n      tag_6\n      jumpi\n      dup1\n      0x5b2a4cff\n      eq\n      tag_7\n      jumpi\n      dup1\n      0x664ab18e\n      eq\n      tag_8\n      jumpi\n      jump(tag_1)\n    tag_19:\n      dup1\n      0x06661abd\n      eq\n      tag_2\n      jumpi\n      dup1\n      0x06fdde03\n      eq\n      tag_3\n      jumpi\n      dup1\n      0x11b00617\n      eq\n      tag_4\n      jumpi\n    tag_1:\n      0x00\n      dup1\n      revert\n        /* \"Imooc.sol\":348:365  uint public count */\n    tag_2:\n      callvalue\n      dup1\n      iszero\n      tag_20\n      jumpi\n      0x00\n      dup1\n      revert\n    tag_20:\n      pop\n      tag_21\n      tag_22\n      jump\t// in\n    tag_21:\n      mload(0x40)\n      tag_23\n      swap2\n      swap1\n      tag_24\n      jump\t// in\n    tag_23:\n      mload(0x40)\n      dup1\n      swap2\n      sub\n      swap1\n      return\n        /* \"Imooc.sol\":160:178  string public name */\n    tag_3:\n      callvalue\n      dup1\n      iszero\n      tag_25\n      jumpi\n      0x00\n      dup1\n      revert\n    tag_25:\n      pop\n      tag_26\n      tag_27\n      jump\t// in\n    tag_26:\n      mload(0x40)\n      tag_28\n      swap2\n      swap1\n      tag_29\n      jump\t// in\n    tag_28:\n      mload(0x40)\n      dup1\n      swap2\n      sub\n      swap1\n      return\n        /* \"Imooc.sol\":322:341  string public video */\n    tag_4:\n      callvalue\n      dup1\n      iszero\n      tag_30\n      jumpi\n      0x00\n      dup1\n      revert\n    tag_30:\n      pop\n      tag_31\n      tag_32\n      jump\t// in\n    tag_31:\n      mload(0x40)\n      tag_33\n      swap2\n      swap1\n      tag_29\n      jump\t// in\n    tag_33:\n      mload(0x40)\n      dup1\n      swap2\n      sub\n      swap1\n      return\n        /* \"Imooc.sol\":243:267  uint public fundingPrice */\n    tag_5:\n      callvalue\n      dup1\n      iszero\n      tag_34\n      jumpi\n      0x00\n      dup1\n      revert\n    tag_34:\n      pop\n      tag_35\n      tag_36\n      jump\t// in\n    tag_35:\n      mload(0x40)\n      tag_37\n      swap2\n      swap1\n      tag_24\n      jump\t// in\n    tag_37:\n      mload(0x40)\n      dup1\n      swap2\n      sub\n      swap1\n      return\n        /* \"Imooc.sol\":298:315  string public img */\n    tag_6:\n      callvalue\n      dup1\n      iszero\n      tag_38\n      jumpi\n      0x00\n      dup1\n      revert\n    tag_38:\n      pop\n      tag_39\n      tag_40\n      jump\t// in\n    tag_39:\n      mload(0x40)\n      tag_41\n      swap2\n      swap1\n      tag_29\n      jump\t// in\n    tag_41:\n      mload(0x40)\n      dup1\n      swap2\n      sub\n      swap1\n      return\n        /* \"Imooc.sol\":2042:2845  function getDetail()... */\n    tag_7:\n      callvalue\n      dup1\n      iszero\n      tag_42\n      jumpi\n      0x00\n      dup1\n      revert\n    tag_42:\n      pop\n      tag_43\n      tag_44\n      jump\t// in\n    tag_43:\n      mload(0x40)\n      tag_45\n      swap11\n      swap10\n      swap9\n      swap8\n      swap7\n      swap6\n      swap5\n      swap4\n      swap3\n      swap2\n      swap1\n      tag_46\n      jump\t// in\n    tag_45:\n      mload(0x40)\n      dup1\n      swap2\n      sub\n      swap1\n      return\n        /* \"Imooc.sol\":372:392  bool public isOnline */\n    tag_8:\n      callvalue\n      dup1\n      iszero\n      tag_47\n      jumpi\n      0x00\n      dup1\n      revert\n    tag_47:\n      pop\n      tag_48\n      tag_49\n      jump\t// in\n    tag_48:\n      mload(0x40)\n      tag_50\n      swap2\n      swap1\n      tag_51\n      jump\t// in\n    tag_50:\n      mload(0x40)\n      dup1\n      swap2\n      sub\n      swap1\n      return\n        /* \"Imooc.sol\":190:211  string public content */\n    tag_9:\n      callvalue\n      dup1\n      iszero\n      tag_52\n      jumpi\n      0x00\n      dup1\n      revert\n    tag_52:\n      pop\n      tag_53\n      tag_54\n      jump\t// in\n    tag_53:\n      mload(0x40)\n      tag_55\n      swap2\n      swap1\n      tag_29\n      jump\t// in\n    tag_55:\n      mload(0x40)\n      dup1\n      swap2\n      sub\n      swap1\n      return\n        /* \"Imooc.sol\":125:153  address payable public owner */\n    tag_10:\n      callvalue\n      dup1\n      iszero\n      tag_56\n      jumpi\n      0x00\n      dup1\n      revert\n    tag_56:\n      pop\n      tag_57\n      tag_58\n      jump\t// in\n    tag_57:\n      mload(0x40)\n      tag_59\n      swap2\n      swap1\n      tag_60\n      jump\t// in\n    tag_59:\n      mload(0x40)\n      dup1\n      swap2\n      sub\n      swap1\n      return\n        /* \"Imooc.sol\":91:117  address payable public ceo */\n    tag_11:\n      callvalue\n      dup1\n      iszero\n      tag_61\n      jumpi\n      0x00\n      dup1\n      revert\n    tag_61:\n      pop\n      tag_62\n      tag_63\n      jump\t// in\n    tag_62:\n      mload(0x40)\n      tag_64\n      swap2\n      swap1\n      tag_60\n      jump\t// in\n    tag_64:\n      mload(0x40)\n      dup1\n      swap2\n      sub\n      swap1\n      return\n        /* \"Imooc.sol\":274:291  uint public price */\n    tag_12:\n      callvalue\n      dup1\n      iszero\n      tag_65\n      jumpi\n      0x00\n      dup1\n      revert\n    tag_65:\n      pop\n      tag_66\n      tag_67\n      jump\t// in\n    tag_66:\n      mload(0x40)\n      tag_68\n      swap2\n      swap1\n      tag_24\n      jump\t// in\n    tag_68:\n      mload(0x40)\n      dup1\n      swap2\n      sub\n      swap1\n      return\n        /* \"Imooc.sol\":1269:2007  function buy() public payable {... */\n    tag_13:\n      tag_69\n      tag_70\n      jump\t// in\n    tag_69:\n      stop\n        /* \"Imooc.sol\":399:436  mapping(address => uint) public users */\n    tag_14:\n      callvalue\n      dup1\n      iszero\n      tag_71\n      jumpi\n      0x00\n      dup1\n      revert\n    tag_71:\n      pop\n      tag_72\n      0x04\n      dup1\n      calldatasize\n      sub\n      dup2\n      add\n      swap1\n      tag_73\n      swap2\n      swap1\n      tag_74\n      jump\t// in\n    tag_73:\n      tag_75\n      jump\t// in\n    tag_72:\n      mload(0x40)\n      tag_76\n      swap2\n      swap1\n      tag_24\n      jump\t// in\n    tag_76:\n      mload(0x40)\n      dup1\n      swap2\n      sub\n      swap1\n      return\n        /* \"Imooc.sol\":1095:1239  function addVideo(string memory _video) public{... */\n    tag_15:\n      callvalue\n      dup1\n      iszero\n      tag_77\n      jumpi\n      0x00\n      dup1\n      revert\n    tag_77:\n      pop\n      tag_78\n      0x04\n      dup1\n      calldatasize\n      sub\n      dup2\n      add\n      swap1\n      tag_79\n      swap2\n      swap1\n      tag_80\n      jump\t// in\n    tag_79:\n      tag_81\n      jump\t// in\n    tag_78:\n      stop\n        /* \"Imooc.sol\":218:236  uint public target */\n    tag_16:\n      callvalue\n      dup1\n      iszero\n      tag_82\n      jumpi\n      0x00\n      dup1\n      revert\n    tag_82:\n      pop\n      tag_83\n      tag_84\n      jump\t// in\n    tag_83:\n      mload(0x40)\n      tag_85\n      swap2\n      swap1\n      tag_24\n      jump\t// in\n    tag_85:\n      mload(0x40)\n      dup1\n      swap2\n      sub\n      swap1\n      return\n        /* \"Imooc.sol\":348:365  uint public count */\n    tag_22:\n      sload(0x09)\n      dup2\n      jump\t// out\n        /* \"Imooc.sol\":160:178  string public name */\n    tag_27:\n      0x02\n      dup1\n      sload\n      tag_86\n      swap1\n      tag_87\n      jump\t// in\n    tag_86:\n      dup1\n      0x1f\n      add\n      0x20\n      dup1\n      swap2\n      div\n      mul\n      0x20\n      add\n      mload(0x40)\n      swap1\n      dup2\n      add\n      0x40\n      mstore\n      dup1\n      swap3\n      swap2\n      swap1\n      dup2\n      dup2\n      mstore\n      0x20\n      add\n      dup3\n      dup1\n      sload\n      tag_88\n      swap1\n      tag_87\n      jump\t// in\n    tag_88:\n      dup1\n      iszero\n      tag_89\n      jumpi\n      dup1\n      0x1f\n      lt\n      tag_90\n      jumpi\n      0x0100\n      dup1\n      dup4\n      sload\n      div\n      mul\n      dup4\n      mstore\n      swap2\n      0x20\n      add\n      swap2\n      jump(tag_89)\n    tag_90:\n      dup3\n      add\n      swap2\n      swap1\n      0x00\n      mstore\n      keccak256(0x00, 0x20)\n      swap1\n    tag_91:\n      dup2\n      sload\n      dup2\n      mstore\n      swap1\n      0x01\n      add\n      swap1\n      0x20\n      add\n      dup1\n      dup4\n      gt\n      tag_91\n      jumpi\n      dup3\n      swap1\n      sub\n      0x1f\n      and\n      dup3\n      add\n      swap2\n    tag_89:\n      pop\n      pop\n      pop\n      pop\n      pop\n      dup2\n      jump\t// out\n        /* \"Imooc.sol\":322:341  string public video */\n    tag_32:\n      0x08\n      dup1\n      sload\n      tag_92\n      swap1\n      tag_87\n      jump\t// in\n    tag_92:\n      dup1\n      0x1f\n      add\n      0x20\n      dup1\n      swap2\n      div\n      mul\n      0x20\n      add\n      mload(0x40)\n      swap1\n      dup2\n      add\n      0x40\n      mstore\n      dup1\n      swap3\n      swap2\n      swap1\n      dup2\n      dup2\n      mstore\n      0x20\n      add\n      dup3\n      dup1\n      sload\n      tag_93\n      swap1\n      tag_87\n      jump\t// in\n    tag_93:\n      dup1\n      iszero\n      tag_94\n      jumpi\n      dup1\n      0x1f\n      lt\n      tag_95\n      jumpi\n      0x0100\n      dup1\n      dup4\n      sload\n      div\n      mul\n      dup4\n      mstore\n      swap2\n      0x20\n      add\n      swap2\n      jump(tag_94)\n    tag_95:\n      dup3\n      add\n      swap2\n      swap1\n      0x00\n      mstore\n      keccak256(0x00, 0x20)\n      swap1\n    tag_96:\n      dup2\n      sload\n      dup2\n      mstore\n      swap1\n      0x01\n      add\n      swap1\n      0x20\n      add\n      dup1\n      dup4\n      gt\n      tag_96\n      jumpi\n      dup3\n      swap1\n      sub\n      0x1f\n      and\n      dup3\n      add\n      swap2\n    tag_94:\n      pop\n      pop\n      pop\n      pop\n      pop\n      dup2\n      jump\t// out\n        /* \"Imooc.sol\":243:267  uint public fundingPrice */\n    tag_36:\n      sload(0x05)\n      dup2\n      jump\t// out\n        /* \"Imooc.sol\":298:315  string public img */\n    tag_40:\n      0x07\n      dup1\n      sload\n      tag_97\n      swap1\n      tag_87\n      jump\t// in\n    tag_97:\n      dup1\n      0x1f\n      add\n      0x20\n      dup1\n      swap2\n      div\n      mul\n      0x20\n      add\n      mload(0x40)\n      swap1\n      dup2\n      add\n      0x40\n      mstore\n      dup1\n      swap3\n      swap2\n      swap1\n      dup2\n      dup2\n      mstore\n      0x20\n      add\n      dup3\n      dup1\n      sload\n      tag_98\n      swap1\n      tag_87\n      jump\t// in\n    tag_98:\n      dup1\n      iszero\n      tag_99\n      jumpi\n      dup1\n      0x1f\n      lt\n      tag_100\n      jumpi\n      0x0100\n      dup1\n      dup4\n      sload\n      div\n      mul\n      dup4\n      mstore\n      swap2\n      0x20\n      add\n      swap2\n      jump(tag_99)\n    tag_100:\n      dup3\n      add\n      swap2\n      swap1\n      0x00\n      mstore\n      keccak256(0x00, 0x20)\n      swap1\n    tag_101:\n      dup2\n      sload\n      dup2\n      mstore\n      swap1\n      0x01\n      add\n      swap1\n      0x20\n      add\n      dup1\n      dup4\n      gt\n      tag_101\n      jumpi\n      dup3\n      swap1\n      sub\n      0x1f\n      and\n      dup3\n      add\n      swap2\n    tag_99:\n      pop\n      pop\n      pop\n      pop\n      pop\n      dup2\n      jump\t// out\n        /* \"Imooc.sol\":2042:2845  function getDetail()... */\n    tag_44:\n        /* \"Imooc.sol\":2125:2138  string memory */\n      0x60\n        /* \"Imooc.sol\":2153:2166  string memory */\n      dup1\n        /* \"Imooc.sol\":2181:2185  uint */\n      0x00\n        /* \"Imooc.sol\":2200:2204  uint */\n      dup1\n        /* \"Imooc.sol\":2219:2223  uint */\n      0x00\n        /* \"Imooc.sol\":2238:2251  string memory */\n      0x60\n        /* \"Imooc.sol\":2266:2279  string memory */\n      dup1\n        /* \"Imooc.sol\":2294:2298  uint */\n      0x00\n        /* \"Imooc.sol\":2313:2317  bool */\n      dup1\n        /* \"Imooc.sol\":2332:2336  uint */\n      0x00\n        /* \"Imooc.sol\":2364:2373  uint role */\n      dup1\n        /* \"Imooc.sol\":2397:2407  msg.sender */\n      caller\n        /* \"Imooc.sol\":2388:2407  owner == msg.sender */\n      0xffffffffffffffffffffffffffffffffffffffff\n      and\n        /* \"Imooc.sol\":2388:2393  owner */\n      0x01\n      0x00\n      swap1\n      sload\n      swap1\n      0x0100\n      exp\n      swap1\n      div\n      0xffffffffffffffffffffffffffffffffffffffff\n      and\n        /* \"Imooc.sol\":2388:2407  owner == msg.sender */\n      0xffffffffffffffffffffffffffffffffffffffff\n      and\n      sub\n        /* \"Imooc.sol\":2384:2598  if (owner == msg.sender) {... */\n      tag_103\n      jumpi\n        /* \"Imooc.sol\":2431:2432  0 */\n      0x00\n        /* \"Imooc.sol\":2424:2432  role = 0 */\n      swap1\n      pop\n        /* \"Imooc.sol\":2384:2598  if (owner == msg.sender) {... */\n      jump(tag_104)\n    tag_103:\n        /* \"Imooc.sol\":2493:2494  0 */\n      0x00\n        /* \"Imooc.sol\":2473:2478  users */\n      0x0b\n        /* \"Imooc.sol\":2473:2490  users[msg.sender] */\n      0x00\n        /* \"Imooc.sol\":2479:2489  msg.sender */\n      caller\n        /* \"Imooc.sol\":2473:2490  users[msg.sender] */\n      0xffffffffffffffffffffffffffffffffffffffff\n      and\n      0xffffffffffffffffffffffffffffffffffffffff\n      and\n      dup2\n      mstore\n      0x20\n      add\n      swap1\n      dup2\n      mstore\n      0x20\n      add\n      0x00\n      keccak256\n      sload\n        /* \"Imooc.sol\":2473:2494  users[msg.sender] > 0 */\n      gt\n        /* \"Imooc.sol\":2469:2598  if (users[msg.sender] > 0) {... */\n      iszero\n      tag_105\n      jumpi\n        /* \"Imooc.sol\":2518:2519  1 */\n      0x01\n        /* \"Imooc.sol\":2511:2519  role = 1 */\n      swap1\n      pop\n        /* \"Imooc.sol\":2469:2598  if (users[msg.sender] > 0) {... */\n      jump(tag_106)\n    tag_105:\n        /* \"Imooc.sol\":2572:2573  2 */\n      0x02\n        /* \"Imooc.sol\":2565:2573  role = 2 */\n      swap1\n      pop\n        /* \"Imooc.sol\":2469:2598  if (users[msg.sender] > 0) {... */\n    tag_106:\n        /* \"Imooc.sol\":2384:2598  if (owner == msg.sender) {... */\n    tag_104:\n        /* \"Imooc.sol\":2632:2636  name */\n      0x02\n        /* \"Imooc.sol\":2651:2658  content */\n      0x03\n        /* \"Imooc.sol\":2673:2679  target */\n      sload(0x04)\n        /* \"Imooc.sol\":2694:2706  fundingPrice */\n      sload(0x05)\n        /* \"Imooc.sol\":2721:2726  price */\n      sload(0x06)\n        /* \"Imooc.sol\":2741:2744  img */\n      0x07\n        /* \"Imooc.sol\":2759:2764  video */\n      0x08\n        /* \"Imooc.sol\":2779:2784  count */\n      sload(0x09)\n        /* \"Imooc.sol\":2799:2807  isOnline */\n      0x0a\n      0x00\n      swap1\n      sload\n      swap1\n      0x0100\n      exp\n      swap1\n      div\n      0xff\n      and\n        /* \"Imooc.sol\":2822:2826  role */\n      dup10\n        /* \"Imooc.sol\":2610:2837  return (... */\n      dup10\n      dup1\n      sload\n      tag_107\n      swap1\n      tag_87\n      jump\t// in\n    tag_107:\n      dup1\n      0x1f\n      add\n      0x20\n      dup1\n      swap2\n      div\n      mul\n      0x20\n      add\n      mload(0x40)\n      swap1\n      dup2\n      add\n      0x40\n      mstore\n      dup1\n      swap3\n      swap2\n      swap1\n      dup2\n      dup2\n      mstore\n      0x20\n      add\n      dup3\n      dup1\n      sload\n      tag_108\n      swap1\n      tag_87\n      jump\t// in\n    tag_108:\n      dup1\n      iszero\n      tag_109\n      jumpi\n      dup1\n      0x1f\n      lt\n      tag_110\n      jumpi\n      0x0100\n      dup1\n      dup4\n      sload\n      div\n      mul\n      dup4\n      mstore\n      swap2\n      0x20\n      add\n      swap2\n      jump(tag_109)\n    tag_110:\n      dup3\n      add\n      swap2\n      swap1\n      0x00\n      mstore\n      keccak256(0x00, 0x20)\n      swap1\n    tag_111:\n      dup2\n      sload\n      dup2\n      mstore\n      swap1\n      0x01\n      add\n      swap1\n      0x20\n      add\n      dup1\n      dup4\n      gt\n      tag_111\n      jumpi\n      dup3\n      swap1\n      sub\n      0x1f\n      and\n      dup3\n      add\n      swap2\n    tag_109:\n      pop\n      pop\n      pop\n      pop\n      pop\n      swap10\n      pop\n      dup9\n      dup1\n      sload\n      tag_112\n      swap1\n      tag_87\n      jump\t// in\n    tag_112:\n      dup1\n      0x1f\n      add\n      0x20\n      dup1\n      swap2\n      div\n      mul\n      0x20\n      add\n      mload(0x40)\n      swap1\n      dup2\n      add\n      0x40\n      mstore\n      dup1\n      swap3\n      swap2\n      swap1\n      dup2\n      dup2\n      mstore\n      0x20\n      add\n      dup3\n      dup1\n      sload\n      tag_113\n      swap1\n      tag_87\n      jump\t// in\n    tag_113:\n      dup1\n      iszero\n      tag_114\n      jumpi\n      dup1\n      0x1f\n      lt\n      tag_115\n      jumpi\n      0x0100\n      dup1\n      dup4\n      sload\n      div\n      mul\n      dup4\n      mstore\n      swap2\n      0x20\n      add\n      swap2\n      jump(tag_114)\n    tag_115:\n      dup3\n      add\n      swap2\n      swap1\n      0x00\n      mstore\n      keccak256(0x00, 0x20)\n      swap1\n    tag_116:\n      dup2\n      sload\n      dup2\n      mstore\n      swap1\n      0x01\n      add\n      swap1\n      0x20\n      add\n      dup1\n      dup4\n      gt\n      tag_116\n      jumpi\n      dup3\n      swap1\n      sub\n      0x1f\n      and\n      dup3\n      add\n      swap2\n    tag_114:\n      pop\n      pop\n      pop\n      pop\n      pop\n      swap9\n      pop\n      dup5\n      dup1\n      sload\n      tag_117\n      swap1\n      tag_87\n      jump\t// in\n    tag_117:\n      dup1\n      0x1f\n      add\n      0x20\n      dup1\n      swap2\n      div\n      mul\n      0x20\n      add\n      mload(0x40)\n      swap1\n      dup2\n      add\n      0x40\n      mstore\n      dup1\n      swap3\n      swap2\n      swap1\n      dup2\n      dup2\n      mstore\n      0x20\n      add\n      dup3\n      dup1\n      sload\n      tag_118\n      swap1\n      tag_87\n      jump\t// in\n    tag_118:\n      dup1\n      iszero\n      tag_119\n      jumpi\n      dup1\n      0x1f\n      lt\n      tag_120\n      jumpi\n      0x0100\n      dup1\n      dup4\n      sload\n      div\n      mul\n      dup4\n      mstore\n      swap2\n      0x20\n      add\n      swap2\n      jump(tag_119)\n    tag_120:\n      dup3\n      add\n      swap2\n      swap1\n      0x00\n      mstore\n      keccak256(0x00, 0x20)\n      swap1\n    tag_121:\n      dup2\n      sload\n      dup2\n      mstore\n      swap1\n      0x01\n      add\n      swap1\n      0x20\n      add\n      dup1\n      dup4\n      gt\n      tag_121\n      jumpi\n      dup3\n      swap1\n      sub\n      0x1f\n      and\n      dup3\n      add\n      swap2\n    tag_119:\n      pop\n      pop\n      pop\n      pop\n      pop\n      swap5\n      pop\n      dup4\n      dup1\n      sload\n      tag_122\n      swap1\n      tag_87\n      jump\t// in\n    tag_122:\n      dup1\n      0x1f\n      add\n      0x20\n      dup1\n      swap2\n      div\n      mul\n      0x20\n      add\n      mload(0x40)\n      swap1\n      dup2\n      add\n      0x40\n      mstore\n      dup1\n      swap3\n      swap2\n      swap1\n      dup2\n      dup2\n      mstore\n      0x20\n      add\n      dup3\n      dup1\n      sload\n      tag_123\n      swap1\n      tag_87\n      jump\t// in\n    tag_123:\n      dup1\n      iszero\n      tag_124\n      jumpi\n      dup1\n      0x1f\n      lt\n      tag_125\n      jumpi\n      0x0100\n      dup1\n      dup4\n      sload\n      div\n      mul\n      dup4\n      mstore\n      swap2\n      0x20\n      add\n      swap2\n      jump(tag_124)\n    tag_125:\n      dup3\n      add\n      swap2\n      swap1\n      0x00\n      mstore\n      keccak256(0x00, 0x20)\n      swap1\n    tag_126:\n      dup2\n      sload\n      dup2\n      mstore\n      swap1\n      0x01\n      add\n      swap1\n      0x20\n      add\n      dup1\n      dup4\n      gt\n      tag_126\n      jumpi\n      dup3\n      swap1\n      sub\n      0x1f\n      and\n      dup3\n      add\n      swap2\n    tag_124:\n      pop\n      pop\n      pop\n      pop\n      pop\n      swap4\n      pop\n      swap11\n      pop\n      swap11\n      pop\n      swap11\n      pop\n      swap11\n      pop\n      swap11\n      pop\n      swap11\n      pop\n      swap11\n      pop\n      swap11\n      pop\n      swap11\n      pop\n      swap11\n      pop\n      pop\n        /* \"Imooc.sol\":2042:2845  function getDetail()... */\n      swap1\n      swap2\n      swap3\n      swap4\n      swap5\n      swap6\n      swap7\n      swap8\n      swap9\n      swap10\n      jump\t// out\n        /* \"Imooc.sol\":372:392  bool public isOnline */\n    tag_49:\n      0x0a\n      0x00\n      swap1\n      sload\n      swap1\n      0x0100\n      exp\n      swap1\n      div\n      0xff\n      and\n      dup2\n      jump\t// out\n        /* \"Imooc.sol\":190:211  string public content */\n    tag_54:\n      0x03\n      dup1\n      sload\n      tag_127\n      swap1\n      tag_87\n      jump\t// in\n    tag_127:\n      dup1\n      0x1f\n      add\n      0x20\n      dup1\n      swap2\n      div\n      mul\n      0x20\n      add\n      mload(0x40)\n      swap1\n      dup2\n      add\n      0x40\n      mstore\n      dup1\n      swap3\n      swap2\n      swap1\n      dup2\n      dup2\n      mstore\n      0x20\n      add\n      dup3\n      dup1\n      sload\n      tag_128\n      swap1\n      tag_87\n      jump\t// in\n    tag_128:\n      dup1\n      iszero\n      tag_129\n      jumpi\n      dup1\n      0x1f\n      lt\n      tag_130\n      jumpi\n      0x0100\n      dup1\n      dup4\n      sload\n      div\n      mul\n      dup4\n      mstore\n      swap2\n      0x20\n      add\n      swap2\n      jump(tag_129)\n    tag_130:\n      dup3\n      add\n      swap2\n      swap1\n      0x00\n      mstore\n      keccak256(0x00, 0x20)\n      swap1\n    tag_131:\n      dup2\n      sload\n      dup2\n      mstore\n      swap1\n      0x01\n      add\n      swap1\n      0x20\n      add\n      dup1\n      dup4\n      gt\n      tag_131\n      jumpi\n      dup3\n      swap1\n      sub\n      0x1f\n      and\n      dup3\n      add\n      swap2\n    tag_129:\n      pop\n      pop\n      pop\n      pop\n      pop\n      dup2\n      jump\t// out\n        /* \"Imooc.sol\":125:153  address payable public owner */\n    tag_58:\n      0x01\n      0x00\n      swap1\n      sload\n      swap1\n      0x0100\n      exp\n      swap1\n      div\n      0xffffffffffffffffffffffffffffffffffffffff\n      and\n      dup2\n      jump\t// out\n        /* \"Imooc.sol\":91:117  address payable public ceo */\n    tag_63:\n      0x00\n      dup1\n      sload\n      swap1\n      0x0100\n      exp\n      swap1\n      div\n      0xffffffffffffffffffffffffffffffffffffffff\n      and\n      dup2\n      jump\t// out\n        /* \"Imooc.sol\":274:291  uint public price */\n    tag_67:\n      sload(0x06)\n      dup2\n      jump\t// out\n        /* \"Imooc.sol\":1269:2007  function buy() public payable {... */\n    tag_70:\n        /* \"Imooc.sol\":1339:1340  0 */\n      0x00\n        /* \"Imooc.sol\":1318:1323  users */\n      0x0b\n        /* \"Imooc.sol\":1318:1335  users[msg.sender] */\n      0x00\n        /* \"Imooc.sol\":1324:1334  msg.sender */\n      caller\n        /* \"Imooc.sol\":1318:1335  users[msg.sender] */\n      0xffffffffffffffffffffffffffffffffffffffff\n      and\n      0xffffffffffffffffffffffffffffffffffffffff\n      and\n      dup2\n      mstore\n      0x20\n      add\n      swap1\n      dup2\n      mstore\n      0x20\n      add\n      0x00\n      keccak256\n      sload\n        /* \"Imooc.sol\":1318:1340  users[msg.sender] == 0 */\n      eq\n        /* \"Imooc.sol\":1310:1374  require(users[msg.sender] == 0, \"You already bought the course\") */\n      tag_133\n      jumpi\n      mload(0x40)\n      0x08c379a000000000000000000000000000000000000000000000000000000000\n      dup2\n      mstore\n      0x04\n      add\n      tag_134\n      swap1\n      tag_135\n      jump\t// in\n    tag_134:\n      mload(0x40)\n      dup1\n      swap2\n      sub\n      swap1\n      revert\n    tag_133:\n        /* \"Imooc.sol\":1389:1397  isOnline */\n      0x0a\n      0x00\n      swap1\n      sload\n      swap1\n      0x0100\n      exp\n      swap1\n      div\n      0xff\n      and\n        /* \"Imooc.sol\":1385:1585  if (isOnline) {... */\n      iszero\n      tag_136\n      jumpi\n        /* \"Imooc.sol\":1431:1440  msg.value */\n      callvalue\n        /* \"Imooc.sol\":1422:1427  price */\n      sload(0x06)\n        /* \"Imooc.sol\":1422:1440  price == msg.value */\n      eq\n        /* \"Imooc.sol\":1414:1478  require(price == msg.value, \"Incorrect price for online course\") */\n      tag_137\n      jumpi\n      mload(0x40)\n      0x08c379a000000000000000000000000000000000000000000000000000000000\n      dup2\n      mstore\n      0x04\n      add\n      tag_138\n      swap1\n      tag_139\n      jump\t// in\n    tag_138:\n      mload(0x40)\n      dup1\n      swap2\n      sub\n      swap1\n      revert\n    tag_137:\n        /* \"Imooc.sol\":1385:1585  if (isOnline) {... */\n      jump(tag_140)\n    tag_136:\n        /* \"Imooc.sol\":1535:1544  msg.value */\n      callvalue\n        /* \"Imooc.sol\":1519:1531  fundingPrice */\n      sload(0x05)\n        /* \"Imooc.sol\":1519:1544  fundingPrice == msg.value */\n      eq\n        /* \"Imooc.sol\":1511:1573  require(fundingPrice == msg.value, \"Incorrect funding amount\") */\n      tag_141\n      jumpi\n      mload(0x40)\n      0x08c379a000000000000000000000000000000000000000000000000000000000\n      dup2\n      mstore\n      0x04\n      add\n      tag_142\n      swap1\n      tag_143\n      jump\t// in\n    tag_142:\n      mload(0x40)\n      dup1\n      swap2\n      sub\n      swap1\n      revert\n    tag_141:\n        /* \"Imooc.sol\":1385:1585  if (isOnline) {... */\n    tag_140:\n        /* \"Imooc.sol\":1617:1626  msg.value */\n      callvalue\n        /* \"Imooc.sol\":1597:1602  users */\n      0x0b\n        /* \"Imooc.sol\":1597:1614  users[msg.sender] */\n      0x00\n        /* \"Imooc.sol\":1603:1613  msg.sender */\n      caller\n        /* \"Imooc.sol\":1597:1614  users[msg.sender] */\n      0xffffffffffffffffffffffffffffffffffffffff\n      and\n      0xffffffffffffffffffffffffffffffffffffffff\n      and\n      dup2\n      mstore\n      0x20\n      add\n      swap1\n      dup2\n      mstore\n      0x20\n      add\n      0x00\n      keccak256\n        /* \"Imooc.sol\":1597:1626  users[msg.sender] = msg.value */\n      dup2\n      swap1\n      sstore\n      pop\n        /* \"Imooc.sol\":1646:1647  1 */\n      0x01\n        /* \"Imooc.sol\":1637:1642  count */\n      0x09\n      0x00\n        /* \"Imooc.sol\":1637:1647  count += 1 */\n      dup3\n      dup3\n      sload\n      tag_144\n      swap2\n      swap1\n      tag_145\n      jump\t// in\n    tag_144:\n      swap3\n      pop\n      pop\n      dup2\n      swap1\n      sstore\n      pop\n        /* \"Imooc.sol\":1682:1694  fundingPrice */\n      sload(0x05)\n        /* \"Imooc.sol\":1674:1679  count */\n      sload(0x09)\n        /* \"Imooc.sol\":1674:1694  count * fundingPrice */\n      tag_146\n      swap2\n      swap1\n      tag_147\n      jump\t// in\n    tag_146:\n        /* \"Imooc.sol\":1664:1670  target */\n      sload(0x04)\n        /* \"Imooc.sol\":1664:1694  target <= count * fundingPrice */\n      gt\n        /* \"Imooc.sol\":1660:2000  if (target <= count * fundingPrice) {... */\n      tag_148\n      jumpi\n        /* \"Imooc.sol\":1715:1723  isOnline */\n      0x0a\n      0x00\n      swap1\n      sload\n      swap1\n      0x0100\n      exp\n      swap1\n      div\n      0xff\n      and\n        /* \"Imooc.sol\":1711:1989  if (isOnline) {... */\n      iszero\n      tag_149\n      jumpi\n        /* \"Imooc.sol\":1744:1754  uint value */\n      0x00\n        /* \"Imooc.sol\":1757:1766  msg.value */\n      callvalue\n        /* \"Imooc.sol\":1744:1766  uint value = msg.value */\n      swap1\n      pop\n        /* \"Imooc.sol\":1785:1788  ceo */\n      0x00\n      dup1\n      sload\n      swap1\n      0x0100\n      exp\n      swap1\n      div\n      0xffffffffffffffffffffffffffffffffffffffff\n      and\n        /* \"Imooc.sol\":1785:1797  ceo.transfer */\n      0xffffffffffffffffffffffffffffffffffffffff\n      and\n        /* \"Imooc.sol\":1785:1809  ceo.transfer(value / 10) */\n      0x08fc\n        /* \"Imooc.sol\":1806:1808  10 */\n      0x0a\n        /* \"Imooc.sol\":1798:1803  value */\n      dup4\n        /* \"Imooc.sol\":1798:1808  value / 10 */\n      tag_150\n      swap2\n      swap1\n      tag_151\n      jump\t// in\n    tag_150:\n        /* \"Imooc.sol\":1785:1809  ceo.transfer(value / 10) */\n      swap1\n      dup2\n      iszero\n      mul\n      swap1\n      mload(0x40)\n      0x00\n      mload(0x40)\n      dup1\n      dup4\n      sub\n      dup2\n      dup6\n      dup9\n      dup9\n      call\n      swap4\n      pop\n      pop\n      pop\n      pop\n      iszero\n      dup1\n      iszero\n      tag_153\n      jumpi\n      returndatasize\n      0x00\n      dup1\n      returndatacopy\n      revert(0x00, returndatasize)\n    tag_153:\n      pop\n        /* \"Imooc.sol\":1828:1833  owner */\n      0x01\n      0x00\n      swap1\n      sload\n      swap1\n      0x0100\n      exp\n      swap1\n      div\n      0xffffffffffffffffffffffffffffffffffffffff\n      and\n        /* \"Imooc.sol\":1828:1842  owner.transfer */\n      0xffffffffffffffffffffffffffffffffffffffff\n      and\n        /* \"Imooc.sol\":1828:1862  owner.transfer(value - value / 10) */\n      0x08fc\n        /* \"Imooc.sol\":1859:1861  10 */\n      0x0a\n        /* \"Imooc.sol\":1851:1856  value */\n      dup4\n        /* \"Imooc.sol\":1851:1861  value / 10 */\n      tag_154\n      swap2\n      swap1\n      tag_151\n      jump\t// in\n    tag_154:\n        /* \"Imooc.sol\":1843:1848  value */\n      dup4\n        /* \"Imooc.sol\":1843:1861  value - value / 10 */\n      tag_155\n      swap2\n      swap1\n      tag_156\n      jump\t// in\n    tag_155:\n        /* \"Imooc.sol\":1828:1862  owner.transfer(value - value / 10) */\n      swap1\n      dup2\n      iszero\n      mul\n      swap1\n      mload(0x40)\n      0x00\n      mload(0x40)\n      dup1\n      dup4\n      sub\n      dup2\n      dup6\n      dup9\n      dup9\n      call\n      swap4\n      pop\n      pop\n      pop\n      pop\n      iszero\n      dup1\n      iszero\n      tag_158\n      jumpi\n      returndatasize\n      0x00\n      dup1\n      returndatacopy\n      revert(0x00, returndatasize)\n    tag_158:\n      pop\n        /* \"Imooc.sol\":1725:1878  {... */\n      pop\n        /* \"Imooc.sol\":1711:1989  if (isOnline) {... */\n      jump(tag_159)\n    tag_149:\n        /* \"Imooc.sol\":1914:1918  true */\n      0x01\n        /* \"Imooc.sol\":1903:1911  isOnline */\n      0x0a\n      0x00\n        /* \"Imooc.sol\":1903:1918  isOnline = true */\n      0x0100\n      exp\n      dup2\n      sload\n      dup2\n      0xff\n      mul\n      not\n      and\n      swap1\n      dup4\n      iszero\n      iszero\n      mul\n      or\n      swap1\n      sstore\n      pop\n        /* \"Imooc.sol\":1937:1942  owner */\n      0x01\n      0x00\n      swap1\n      sload\n      swap1\n      0x0100\n      exp\n      swap1\n      div\n      0xffffffffffffffffffffffffffffffffffffffff\n      and\n        /* \"Imooc.sol\":1937:1951  owner.transfer */\n      0xffffffffffffffffffffffffffffffffffffffff\n      and\n        /* \"Imooc.sol\":1937:1973  owner.transfer(count * fundingPrice) */\n      0x08fc\n        /* \"Imooc.sol\":1960:1972  fundingPrice */\n      sload(0x05)\n        /* \"Imooc.sol\":1952:1957  count */\n      sload(0x09)\n        /* \"Imooc.sol\":1952:1972  count * fundingPrice */\n      tag_160\n      swap2\n      swap1\n      tag_147\n      jump\t// in\n    tag_160:\n        /* \"Imooc.sol\":1937:1973  owner.transfer(count * fundingPrice) */\n      swap1\n      dup2\n      iszero\n      mul\n      swap1\n      mload(0x40)\n      0x00\n      mload(0x40)\n      dup1\n      dup4\n      sub\n      dup2\n      dup6\n      dup9\n      dup9\n      call\n      swap4\n      pop\n      pop\n      pop\n      pop\n      iszero\n      dup1\n      iszero\n      tag_162\n      jumpi\n      returndatasize\n      0x00\n      dup1\n      returndatacopy\n      revert(0x00, returndatasize)\n    tag_162:\n      pop\n        /* \"Imooc.sol\":1711:1989  if (isOnline) {... */\n    tag_159:\n        /* \"Imooc.sol\":1660:2000  if (target <= count * fundingPrice) {... */\n    tag_148:\n        /* \"Imooc.sol\":1269:2007  function buy() public payable {... */\n      jump\t// out\n        /* \"Imooc.sol\":399:436  mapping(address => uint) public users */\n    tag_75:\n      mstore(0x20, 0x0b)\n      dup1\n      0x00\n      mstore\n      keccak256(0x00, 0x40)\n      0x00\n      swap2\n      pop\n      swap1\n      pop\n      sload\n      dup2\n      jump\t// out\n        /* \"Imooc.sol\":1095:1239  function addVideo(string memory _video) public{... */\n    tag_81:\n        /* \"Imooc.sol\":1170:1175  owner */\n      0x01\n      0x00\n      swap1\n      sload\n      swap1\n      0x0100\n      exp\n      swap1\n      div\n      0xffffffffffffffffffffffffffffffffffffffff\n      and\n        /* \"Imooc.sol\":1157:1175  msg.sender== owner */\n      0xffffffffffffffffffffffffffffffffffffffff\n      and\n        /* \"Imooc.sol\":1157:1167  msg.sender */\n      caller\n        /* \"Imooc.sol\":1157:1175  msg.sender== owner */\n      0xffffffffffffffffffffffffffffffffffffffff\n      and\n      eq\n        /* \"Imooc.sol\":1149:1176  require(msg.sender== owner) */\n      tag_164\n      jumpi\n      0x00\n      dup1\n      revert\n    tag_164:\n        /* \"Imooc.sol\":1204:1208  true */\n      0x01\n        /* \"Imooc.sol\":1192:1208  isOnline == true */\n      iszero\n      iszero\n        /* \"Imooc.sol\":1192:1200  isOnline */\n      0x0a\n      0x00\n      swap1\n      sload\n      swap1\n      0x0100\n      exp\n      swap1\n      div\n      0xff\n      and\n        /* \"Imooc.sol\":1192:1208  isOnline == true */\n      iszero\n      iszero\n      eq\n        /* \"Imooc.sol\":1184:1209  require(isOnline == true) */\n      tag_165\n      jumpi\n      0x00\n      dup1\n      revert\n    tag_165:\n        /* \"Imooc.sol\":1225:1231  _video */\n      dup1\n        /* \"Imooc.sol\":1217:1222  video */\n      0x08\n        /* \"Imooc.sol\":1217:1231  video = _video */\n      swap1\n      dup2\n      tag_166\n      swap2\n      swap1\n      tag_167\n      jump\t// in\n    tag_166:\n      pop\n        /* \"Imooc.sol\":1095:1239  function addVideo(string memory _video) public{... */\n      pop\n      jump\t// out\n        /* \"Imooc.sol\":218:236  uint public target */\n    tag_84:\n      sload(0x04)\n      dup2\n      jump\t// out\n        /* \"#utility.yul\":7:84   */\n    tag_168:\n        /* \"#utility.yul\":44:51   */\n      0x00\n        /* \"#utility.yul\":73:78   */\n      dup2\n        /* \"#utility.yul\":62:78   */\n      swap1\n      pop\n        /* \"#utility.yul\":7:84   */\n      swap2\n      swap1\n      pop\n      jump\t// out\n        /* \"#utility.yul\":90:208   */\n    tag_169:\n        /* \"#utility.yul\":177:201   */\n      tag_222\n        /* \"#utility.yul\":195:200   */\n      dup2\n        /* \"#utility.yul\":177:201   */\n      tag_168\n      jump\t// in\n    tag_222:\n        /* \"#utility.yul\":172:175   */\n      dup3\n        /* \"#utility.yul\":165:202   */\n      mstore\n        /* \"#utility.yul\":90:208   */\n      pop\n      pop\n      jump\t// out\n        /* \"#utility.yul\":214:436   */\n    tag_24:\n        /* \"#utility.yul\":307:311   */\n      0x00\n        /* \"#utility.yul\":345:347   */\n      0x20\n        /* \"#utility.yul\":334:343   */\n      dup3\n        /* \"#utility.yul\":330:348   */\n      add\n        /* \"#utility.yul\":322:348   */\n      swap1\n      pop\n        /* \"#utility.yul\":358:429   */\n      tag_224\n        /* \"#utility.yul\":426:427   */\n      0x00\n        /* \"#utility.yul\":415:424   */\n      dup4\n        /* \"#utility.yul\":411:428   */\n      add\n        /* \"#utility.yul\":402:408   */\n      dup5\n        /* \"#utility.yul\":358:429   */\n      tag_169\n      jump\t// in\n    tag_224:\n        /* \"#utility.yul\":214:436   */\n      swap3\n      swap2\n      pop\n      pop\n      jump\t// out\n        /* \"#utility.yul\":442:541   */\n    tag_170:\n        /* \"#utility.yul\":494:500   */\n      0x00\n        /* \"#utility.yul\":528:533   */\n      dup2\n        /* \"#utility.yul\":522:534   */\n      mload\n        /* \"#utility.yul\":512:534   */\n      swap1\n      pop\n        /* \"#utility.yul\":442:541   */\n      swap2\n      swap1\n      pop\n      jump\t// out\n        /* \"#utility.yul\":547:716   */\n    tag_171:\n        /* \"#utility.yul\":631:642   */\n      0x00\n        /* \"#utility.yul\":665:671   */\n      dup3\n        /* \"#utility.yul\":660:663   */\n      dup3\n        /* \"#utility.yul\":653:672   */\n      mstore\n        /* \"#utility.yul\":705:709   */\n      0x20\n        /* \"#utility.yul\":700:703   */\n      dup3\n        /* \"#utility.yul\":696:710   */\n      add\n        /* \"#utility.yul\":681:710   */\n      swap1\n      pop\n        /* \"#utility.yul\":547:716   */\n      swap3\n      swap2\n      pop\n      pop\n      jump\t// out\n        /* \"#utility.yul\":722:968   */\n    tag_172:\n        /* \"#utility.yul\":803:804   */\n      0x00\n        /* \"#utility.yul\":813:926   */\n    tag_228:\n        /* \"#utility.yul\":827:833   */\n      dup4\n        /* \"#utility.yul\":824:825   */\n      dup2\n        /* \"#utility.yul\":821:834   */\n      lt\n        /* \"#utility.yul\":813:926   */\n      iszero\n      tag_230\n      jumpi\n        /* \"#utility.yul\":912:913   */\n      dup1\n        /* \"#utility.yul\":907:910   */\n      dup3\n        /* \"#utility.yul\":903:914   */\n      add\n        /* \"#utility.yul\":897:915   */\n      mload\n        /* \"#utility.yul\":893:894   */\n      dup2\n        /* \"#utility.yul\":888:891   */\n      dup5\n        /* \"#utility.yul\":884:895   */\n      add\n        /* \"#utility.yul\":877:916   */\n      mstore\n        /* \"#utility.yul\":849:851   */\n      0x20\n        /* \"#utility.yul\":846:847   */\n      dup2\n        /* \"#utility.yul\":842:852   */\n      add\n        /* \"#utility.yul\":837:852   */\n      swap1\n      pop\n        /* \"#utility.yul\":813:926   */\n      jump(tag_228)\n    tag_230:\n        /* \"#utility.yul\":960:961   */\n      0x00\n        /* \"#utility.yul\":951:957   */\n      dup5\n        /* \"#utility.yul\":946:949   */\n      dup5\n        /* \"#utility.yul\":942:958   */\n      add\n        /* \"#utility.yul\":935:962   */\n      mstore\n        /* \"#utility.yul\":784:968   */\n      pop\n        /* \"#utility.yul\":722:968   */\n      pop\n      pop\n      pop\n      jump\t// out\n        /* \"#utility.yul\":974:1076   */\n    tag_173:\n        /* \"#utility.yul\":1015:1021   */\n      0x00\n        /* \"#utility.yul\":1066:1068   */\n      0x1f\n        /* \"#utility.yul\":1062:1069   */\n      not\n        /* \"#utility.yul\":1057:1059   */\n      0x1f\n        /* \"#utility.yul\":1050:1055   */\n      dup4\n        /* \"#utility.yul\":1046:1060   */\n      add\n        /* \"#utility.yul\":1042:1070   */\n      and\n        /* \"#utility.yul\":1032:1070   */\n      swap1\n      pop\n        /* \"#utility.yul\":974:1076   */\n      swap2\n      swap1\n      pop\n      jump\t// out\n        /* \"#utility.yul\":1082:1459   */\n    tag_174:\n        /* \"#utility.yul\":1170:1173   */\n      0x00\n        /* \"#utility.yul\":1198:1237   */\n      tag_233\n        /* \"#utility.yul\":1231:1236   */\n      dup3\n        /* \"#utility.yul\":1198:1237   */\n      tag_170\n      jump\t// in\n    tag_233:\n        /* \"#utility.yul\":1253:1324   */\n      tag_234\n        /* \"#utility.yul\":1317:1323   */\n      dup2\n        /* \"#utility.yul\":1312:1315   */\n      dup6\n        /* \"#utility.yul\":1253:1324   */\n      tag_171\n      jump\t// in\n    tag_234:\n        /* \"#utility.yul\":1246:1324   */\n      swap4\n      pop\n        /* \"#utility.yul\":1333:1398   */\n      tag_235\n        /* \"#utility.yul\":1391:1397   */\n      dup2\n        /* \"#utility.yul\":1386:1389   */\n      dup6\n        /* \"#utility.yul\":1379:1383   */\n      0x20\n        /* \"#utility.yul\":1372:1377   */\n      dup7\n        /* \"#utility.yul\":1368:1384   */\n      add\n        /* \"#utility.yul\":1333:1398   */\n      tag_172\n      jump\t// in\n    tag_235:\n        /* \"#utility.yul\":1423:1452   */\n      tag_236\n        /* \"#utility.yul\":1445:1451   */\n      dup2\n        /* \"#utility.yul\":1423:1452   */\n      tag_173\n      jump\t// in\n    tag_236:\n        /* \"#utility.yul\":1418:1421   */\n      dup5\n        /* \"#utility.yul\":1414:1453   */\n      add\n        /* \"#utility.yul\":1407:1453   */\n      swap2\n      pop\n        /* \"#utility.yul\":1174:1459   */\n      pop\n        /* \"#utility.yul\":1082:1459   */\n      swap3\n      swap2\n      pop\n      pop\n      jump\t// out\n        /* \"#utility.yul\":1465:1778   */\n    tag_29:\n        /* \"#utility.yul\":1578:1582   */\n      0x00\n        /* \"#utility.yul\":1616:1618   */\n      0x20\n        /* \"#utility.yul\":1605:1614   */\n      dup3\n        /* \"#utility.yul\":1601:1619   */\n      add\n        /* \"#utility.yul\":1593:1619   */\n      swap1\n      pop\n        /* \"#utility.yul\":1665:1674   */\n      dup2\n        /* \"#utility.yul\":1659:1663   */\n      dup2\n        /* \"#utility.yul\":1655:1675   */\n      sub\n        /* \"#utility.yul\":1651:1652   */\n      0x00\n        /* \"#utility.yul\":1640:1649   */\n      dup4\n        /* \"#utility.yul\":1636:1653   */\n      add\n        /* \"#utility.yul\":1629:1676   */\n      mstore\n        /* \"#utility.yul\":1693:1771   */\n      tag_238\n        /* \"#utility.yul\":1766:1770   */\n      dup2\n        /* \"#utility.yul\":1757:1763   */\n      dup5\n        /* \"#utility.yul\":1693:1771   */\n      tag_174\n      jump\t// in\n    tag_238:\n        /* \"#utility.yul\":1685:1771   */\n      swap1\n      pop\n        /* \"#utility.yul\":1465:1778   */\n      swap3\n      swap2\n      pop\n      pop\n      jump\t// out\n        /* \"#utility.yul\":1784:1874   */\n    tag_175:\n        /* \"#utility.yul\":1818:1825   */\n      0x00\n        /* \"#utility.yul\":1861:1866   */\n      dup2\n        /* \"#utility.yul\":1854:1867   */\n      iszero\n        /* \"#utility.yul\":1847:1868   */\n      iszero\n        /* \"#utility.yul\":1836:1868   */\n      swap1\n      pop\n        /* \"#utility.yul\":1784:1874   */\n      swap2\n      swap1\n      pop\n      jump\t// out\n        /* \"#utility.yul\":1880:1989   */\n    tag_176:\n        /* \"#utility.yul\":1961:1982   */\n      tag_241\n        /* \"#utility.yul\":1976:1981   */\n      dup2\n        /* \"#utility.yul\":1961:1982   */\n      tag_175\n      jump\t// in\n    tag_241:\n        /* \"#utility.yul\":1956:1959   */\n      dup3\n        /* \"#utility.yul\":1949:1983   */\n      mstore\n        /* \"#utility.yul\":1880:1989   */\n      pop\n      pop\n      jump\t// out\n        /* \"#utility.yul\":1995:3566   */\n    tag_46:\n        /* \"#utility.yul\":2414:2418   */\n      0x00\n        /* \"#utility.yul\":2452:2455   */\n      0x0140\n        /* \"#utility.yul\":2441:2450   */\n      dup3\n        /* \"#utility.yul\":2437:2456   */\n      add\n        /* \"#utility.yul\":2429:2456   */\n      swap1\n      pop\n        /* \"#utility.yul\":2502:2511   */\n      dup2\n        /* \"#utility.yul\":2496:2500   */\n      dup2\n        /* \"#utility.yul\":2492:2512   */\n      sub\n        /* \"#utility.yul\":2488:2489   */\n      0x00\n        /* \"#utility.yul\":2477:2486   */\n      dup4\n        /* \"#utility.yul\":2473:2490   */\n      add\n        /* \"#utility.yul\":2466:2513   */\n      mstore\n        /* \"#utility.yul\":2530:2608   */\n      tag_243\n        /* \"#utility.yul\":2603:2607   */\n      dup2\n        /* \"#utility.yul\":2594:2600   */\n      dup14\n        /* \"#utility.yul\":2530:2608   */\n      tag_174\n      jump\t// in\n    tag_243:\n        /* \"#utility.yul\":2522:2608   */\n      swap1\n      pop\n        /* \"#utility.yul\":2655:2664   */\n      dup2\n        /* \"#utility.yul\":2649:2653   */\n      dup2\n        /* \"#utility.yul\":2645:2665   */\n      sub\n        /* \"#utility.yul\":2640:2642   */\n      0x20\n        /* \"#utility.yul\":2629:2638   */\n      dup4\n        /* \"#utility.yul\":2625:2643   */\n      add\n        /* \"#utility.yul\":2618:2666   */\n      mstore\n        /* \"#utility.yul\":2683:2761   */\n      tag_244\n        /* \"#utility.yul\":2756:2760   */\n      dup2\n        /* \"#utility.yul\":2747:2753   */\n      dup13\n        /* \"#utility.yul\":2683:2761   */\n      tag_174\n      jump\t// in\n    tag_244:\n        /* \"#utility.yul\":2675:2761   */\n      swap1\n      pop\n        /* \"#utility.yul\":2771:2843   */\n      tag_245\n        /* \"#utility.yul\":2839:2841   */\n      0x40\n        /* \"#utility.yul\":2828:2837   */\n      dup4\n        /* \"#utility.yul\":2824:2842   */\n      add\n        /* \"#utility.yul\":2815:2821   */\n      dup12\n        /* \"#utility.yul\":2771:2843   */\n      tag_169\n      jump\t// in\n    tag_245:\n        /* \"#utility.yul\":2853:2925   */\n      tag_246\n        /* \"#utility.yul\":2921:2923   */\n      0x60\n        /* \"#utility.yul\":2910:2919   */\n      dup4\n        /* \"#utility.yul\":2906:2924   */\n      add\n        /* \"#utility.yul\":2897:2903   */\n      dup11\n        /* \"#utility.yul\":2853:2925   */\n      tag_169\n      jump\t// in\n    tag_246:\n        /* \"#utility.yul\":2935:3008   */\n      tag_247\n        /* \"#utility.yul\":3003:3006   */\n      0x80\n        /* \"#utility.yul\":2992:3001   */\n      dup4\n        /* \"#utility.yul\":2988:3007   */\n      add\n        /* \"#utility.yul\":2979:2985   */\n      dup10\n        /* \"#utility.yul\":2935:3008   */\n      tag_169\n      jump\t// in\n    tag_247:\n        /* \"#utility.yul\":3056:3065   */\n      dup2\n        /* \"#utility.yul\":3050:3054   */\n      dup2\n        /* \"#utility.yul\":3046:3066   */\n      sub\n        /* \"#utility.yul\":3040:3043   */\n      0xa0\n        /* \"#utility.yul\":3029:3038   */\n      dup4\n        /* \"#utility.yul\":3025:3044   */\n      add\n        /* \"#utility.yul\":3018:3067   */\n      mstore\n        /* \"#utility.yul\":3084:3162   */\n      tag_248\n        /* \"#utility.yul\":3157:3161   */\n      dup2\n        /* \"#utility.yul\":3148:3154   */\n      dup9\n        /* \"#utility.yul\":3084:3162   */\n      tag_174\n      jump\t// in\n    tag_248:\n        /* \"#utility.yul\":3076:3162   */\n      swap1\n      pop\n        /* \"#utility.yul\":3210:3219   */\n      dup2\n        /* \"#utility.yul\":3204:3208   */\n      dup2\n        /* \"#utility.yul\":3200:3220   */\n      sub\n        /* \"#utility.yul\":3194:3197   */\n      0xc0\n        /* \"#utility.yul\":3183:3192   */\n      dup4\n        /* \"#utility.yul\":3179:3198   */\n      add\n        /* \"#utility.yul\":3172:3221   */\n      mstore\n        /* \"#utility.yul\":3238:3316   */\n      tag_249\n        /* \"#utility.yul\":3311:3315   */\n      dup2\n        /* \"#utility.yul\":3302:3308   */\n      dup8\n        /* \"#utility.yul\":3238:3316   */\n      tag_174\n      jump\t// in\n    tag_249:\n        /* \"#utility.yul\":3230:3316   */\n      swap1\n      pop\n        /* \"#utility.yul\":3326:3399   */\n      tag_250\n        /* \"#utility.yul\":3394:3397   */\n      0xe0\n        /* \"#utility.yul\":3383:3392   */\n      dup4\n        /* \"#utility.yul\":3379:3398   */\n      add\n        /* \"#utility.yul\":3370:3376   */\n      dup7\n        /* \"#utility.yul\":3326:3399   */\n      tag_169\n      jump\t// in\n    tag_250:\n        /* \"#utility.yul\":3409:3476   */\n      tag_251\n        /* \"#utility.yul\":3471:3474   */\n      0x0100\n        /* \"#utility.yul\":3460:3469   */\n      dup4\n        /* \"#utility.yul\":3456:3475   */\n      add\n        /* \"#utility.yul\":3447:3453   */\n      dup6\n        /* \"#utility.yul\":3409:3476   */\n      tag_176\n      jump\t// in\n    tag_251:\n        /* \"#utility.yul\":3486:3559   */\n      tag_252\n        /* \"#utility.yul\":3554:3557   */\n      0x0120\n        /* \"#utility.yul\":3543:3552   */\n      dup4\n        /* \"#utility.yul\":3539:3558   */\n      add\n        /* \"#utility.yul\":3530:3536   */\n      dup5\n        /* \"#utility.yul\":3486:3559   */\n      tag_169\n      jump\t// in\n    tag_252:\n        /* \"#utility.yul\":1995:3566   */\n      swap12\n      swap11\n      pop\n      pop\n      pop\n      pop\n      pop\n      pop\n      pop\n      pop\n      pop\n      pop\n      pop\n      jump\t// out\n        /* \"#utility.yul\":3572:3782   */\n    tag_51:\n        /* \"#utility.yul\":3659:3663   */\n      0x00\n        /* \"#utility.yul\":3697:3699   */\n      0x20\n        /* \"#utility.yul\":3686:3695   */\n      dup3\n        /* \"#utility.yul\":3682:3700   */\n      add\n        /* \"#utility.yul\":3674:3700   */\n      swap1\n      pop\n        /* \"#utility.yul\":3710:3775   */\n      tag_254\n        /* \"#utility.yul\":3772:3773   */\n      0x00\n        /* \"#utility.yul\":3761:3770   */\n      dup4\n        /* \"#utility.yul\":3757:3774   */\n      add\n        /* \"#utility.yul\":3748:3754   */\n      dup5\n        /* \"#utility.yul\":3710:3775   */\n      tag_176\n      jump\t// in\n    tag_254:\n        /* \"#utility.yul\":3572:3782   */\n      swap3\n      swap2\n      pop\n      pop\n      jump\t// out\n        /* \"#utility.yul\":3788:3914   */\n    tag_177:\n        /* \"#utility.yul\":3825:3832   */\n      0x00\n        /* \"#utility.yul\":3865:3907   */\n      0xffffffffffffffffffffffffffffffffffffffff\n        /* \"#utility.yul\":3858:3863   */\n      dup3\n        /* \"#utility.yul\":3854:3908   */\n      and\n        /* \"#utility.yul\":3843:3908   */\n      swap1\n      pop\n        /* \"#utility.yul\":3788:3914   */\n      swap2\n      swap1\n      pop\n      jump\t// out\n        /* \"#utility.yul\":3920:4024   */\n    tag_178:\n        /* \"#utility.yul\":3965:3972   */\n      0x00\n        /* \"#utility.yul\":3994:4018   */\n      tag_257\n        /* \"#utility.yul\":4012:4017   */\n      dup3\n        /* \"#utility.yul\":3994:4018   */\n      tag_177\n      jump\t// in\n    tag_257:\n        /* \"#utility.yul\":3983:4018   */\n      swap1\n      pop\n        /* \"#utility.yul\":3920:4024   */\n      swap2\n      swap1\n      pop\n      jump\t// out\n        /* \"#utility.yul\":4030:4172   */\n    tag_179:\n        /* \"#utility.yul\":4133:4165   */\n      tag_259\n        /* \"#utility.yul\":4159:4164   */\n      dup2\n        /* \"#utility.yul\":4133:4165   */\n      tag_178\n      jump\t// in\n    tag_259:\n        /* \"#utility.yul\":4128:4131   */\n      dup3\n        /* \"#utility.yul\":4121:4166   */\n      mstore\n        /* \"#utility.yul\":4030:4172   */\n      pop\n      pop\n      jump\t// out\n        /* \"#utility.yul\":4178:4432   */\n    tag_60:\n        /* \"#utility.yul\":4287:4291   */\n      0x00\n        /* \"#utility.yul\":4325:4327   */\n      0x20\n        /* \"#utility.yul\":4314:4323   */\n      dup3\n        /* \"#utility.yul\":4310:4328   */\n      add\n        /* \"#utility.yul\":4302:4328   */\n      swap1\n      pop\n        /* \"#utility.yul\":4338:4425   */\n      tag_261\n        /* \"#utility.yul\":4422:4423   */\n      0x00\n        /* \"#utility.yul\":4411:4420   */\n      dup4\n        /* \"#utility.yul\":4407:4424   */\n      add\n        /* \"#utility.yul\":4398:4404   */\n      dup5\n        /* \"#utility.yul\":4338:4425   */\n      tag_179\n      jump\t// in\n    tag_261:\n        /* \"#utility.yul\":4178:4432   */\n      swap3\n      swap2\n      pop\n      pop\n      jump\t// out\n        /* \"#utility.yul\":4438:4513   */\n    tag_180:\n        /* \"#utility.yul\":4471:4477   */\n      0x00\n        /* \"#utility.yul\":4504:4506   */\n      0x40\n        /* \"#utility.yul\":4498:4507   */\n      mload\n        /* \"#utility.yul\":4488:4507   */\n      swap1\n      pop\n        /* \"#utility.yul\":4438:4513   */\n      swap1\n      jump\t// out\n        /* \"#utility.yul\":4519:4636   */\n    tag_181:\n        /* \"#utility.yul\":4628:4629   */\n      0x00\n        /* \"#utility.yul\":4625:4626   */\n      dup1\n        /* \"#utility.yul\":4618:4630   */\n      revert\n        /* \"#utility.yul\":4642:4759   */\n    tag_182:\n        /* \"#utility.yul\":4751:4752   */\n      0x00\n        /* \"#utility.yul\":4748:4749   */\n      dup1\n        /* \"#utility.yul\":4741:4753   */\n      revert\n        /* \"#utility.yul\":4765:4861   */\n    tag_183:\n        /* \"#utility.yul\":4802:4809   */\n      0x00\n        /* \"#utility.yul\":4831:4855   */\n      tag_266\n        /* \"#utility.yul\":4849:4854   */\n      dup3\n        /* \"#utility.yul\":4831:4855   */\n      tag_177\n      jump\t// in\n    tag_266:\n        /* \"#utility.yul\":4820:4855   */\n      swap1\n      pop\n        /* \"#utility.yul\":4765:4861   */\n      swap2\n      swap1\n      pop\n      jump\t// out\n        /* \"#utility.yul\":4867:4989   */\n    tag_184:\n        /* \"#utility.yul\":4940:4964   */\n      tag_268\n        /* \"#utility.yul\":4958:4963   */\n      dup2\n        /* \"#utility.yul\":4940:4964   */\n      tag_183\n      jump\t// in\n    tag_268:\n        /* \"#utility.yul\":4933:4938   */\n      dup2\n        /* \"#utility.yul\":4930:4965   */\n      eq\n        /* \"#utility.yul\":4920:4983   */\n      tag_269\n      jumpi\n        /* \"#utility.yul\":4979:4980   */\n      0x00\n        /* \"#utility.yul\":4976:4977   */\n      dup1\n        /* \"#utility.yul\":4969:4981   */\n      revert\n        /* \"#utility.yul\":4920:4983   */\n    tag_269:\n        /* \"#utility.yul\":4867:4989   */\n      pop\n      jump\t// out\n        /* \"#utility.yul\":4995:5134   */\n    tag_185:\n        /* \"#utility.yul\":5041:5046   */\n      0x00\n        /* \"#utility.yul\":5079:5085   */\n      dup2\n        /* \"#utility.yul\":5066:5086   */\n      calldataload\n        /* \"#utility.yul\":5057:5086   */\n      swap1\n      pop\n        /* \"#utility.yul\":5095:5128   */\n      tag_271\n        /* \"#utility.yul\":5122:5127   */\n      dup2\n        /* \"#utility.yul\":5095:5128   */\n      tag_184\n      jump\t// in\n    tag_271:\n        /* \"#utility.yul\":4995:5134   */\n      swap3\n      swap2\n      pop\n      pop\n      jump\t// out\n        /* \"#utility.yul\":5140:5469   */\n    tag_74:\n        /* \"#utility.yul\":5199:5205   */\n      0x00\n        /* \"#utility.yul\":5248:5250   */\n      0x20\n        /* \"#utility.yul\":5236:5245   */\n      dup3\n        /* \"#utility.yul\":5227:5234   */\n      dup5\n        /* \"#utility.yul\":5223:5246   */\n      sub\n        /* \"#utility.yul\":5219:5251   */\n      slt\n        /* \"#utility.yul\":5216:5335   */\n      iszero\n      tag_273\n      jumpi\n        /* \"#utility.yul\":5254:5333   */\n      tag_274\n      tag_181\n      jump\t// in\n    tag_274:\n        /* \"#utility.yul\":5216:5335   */\n    tag_273:\n        /* \"#utility.yul\":5374:5375   */\n      0x00\n        /* \"#utility.yul\":5399:5452   */\n      tag_275\n        /* \"#utility.yul\":5444:5451   */\n      dup5\n        /* \"#utility.yul\":5435:5441   */\n      dup3\n        /* \"#utility.yul\":5424:5433   */\n      dup6\n        /* \"#utility.yul\":5420:5442   */\n      add\n        /* \"#utility.yul\":5399:5452   */\n      tag_185\n      jump\t// in\n    tag_275:\n        /* \"#utility.yul\":5389:5452   */\n      swap2\n      pop\n        /* \"#utility.yul\":5345:5462   */\n      pop\n        /* \"#utility.yul\":5140:5469   */\n      swap3\n      swap2\n      pop\n      pop\n      jump\t// out\n        /* \"#utility.yul\":5475:5592   */\n    tag_186:\n        /* \"#utility.yul\":5584:5585   */\n      0x00\n        /* \"#utility.yul\":5581:5582   */\n      dup1\n        /* \"#utility.yul\":5574:5586   */\n      revert\n        /* \"#utility.yul\":5598:5715   */\n    tag_187:\n        /* \"#utility.yul\":5707:5708   */\n      0x00\n        /* \"#utility.yul\":5704:5705   */\n      dup1\n        /* \"#utility.yul\":5697:5709   */\n      revert\n        /* \"#utility.yul\":5721:5901   */\n    tag_188:\n        /* \"#utility.yul\":5769:5846   */\n      0x4e487b7100000000000000000000000000000000000000000000000000000000\n        /* \"#utility.yul\":5766:5767   */\n      0x00\n        /* \"#utility.yul\":5759:5847   */\n      mstore\n        /* \"#utility.yul\":5866:5870   */\n      0x41\n        /* \"#utility.yul\":5863:5864   */\n      0x04\n        /* \"#utility.yul\":5856:5871   */\n      mstore\n        /* \"#utility.yul\":5890:5894   */\n      0x24\n        /* \"#utility.yul\":5887:5888   */\n      0x00\n        /* \"#utility.yul\":5880:5895   */\n      revert\n        /* \"#utility.yul\":5907:6188   */\n    tag_189:\n        /* \"#utility.yul\":5990:6017   */\n      tag_280\n        /* \"#utility.yul\":6012:6016   */\n      dup3\n        /* \"#utility.yul\":5990:6017   */\n      tag_173\n      jump\t// in\n    tag_280:\n        /* \"#utility.yul\":5982:5988   */\n      dup2\n        /* \"#utility.yul\":5978:6018   */\n      add\n        /* \"#utility.yul\":6120:6126   */\n      dup2\n        /* \"#utility.yul\":6108:6118   */\n      dup2\n        /* \"#utility.yul\":6105:6127   */\n      lt\n        /* \"#utility.yul\":6084:6102   */\n      0xffffffffffffffff\n        /* \"#utility.yul\":6072:6082   */\n      dup3\n        /* \"#utility.yul\":6069:6103   */\n      gt\n        /* \"#utility.yul\":6066:6128   */\n      or\n        /* \"#utility.yul\":6063:6151   */\n      iszero\n      tag_281\n      jumpi\n        /* \"#utility.yul\":6131:6149   */\n      tag_282\n      tag_188\n      jump\t// in\n    tag_282:\n        /* \"#utility.yul\":6063:6151   */\n    tag_281:\n        /* \"#utility.yul\":6171:6181   */\n      dup1\n        /* \"#utility.yul\":6167:6169   */\n      0x40\n        /* \"#utility.yul\":6160:6182   */\n      mstore\n        /* \"#utility.yul\":5950:6188   */\n      pop\n        /* \"#utility.yul\":5907:6188   */\n      pop\n      pop\n      jump\t// out\n        /* \"#utility.yul\":6194:6323   */\n    tag_190:\n        /* \"#utility.yul\":6228:6234   */\n      0x00\n        /* \"#utility.yul\":6255:6275   */\n      tag_284\n      tag_180\n      jump\t// in\n    tag_284:\n        /* \"#utility.yul\":6245:6275   */\n      swap1\n      pop\n        /* \"#utility.yul\":6284:6317   */\n      tag_285\n        /* \"#utility.yul\":6312:6316   */\n      dup3\n        /* \"#utility.yul\":6304:6310   */\n      dup3\n        /* \"#utility.yul\":6284:6317   */\n      tag_189\n      jump\t// in\n    tag_285:\n        /* \"#utility.yul\":6194:6323   */\n      swap2\n      swap1\n      pop\n      jump\t// out\n        /* \"#utility.yul\":6329:6637   */\n    tag_191:\n        /* \"#utility.yul\":6391:6395   */\n      0x00\n        /* \"#utility.yul\":6481:6499   */\n      0xffffffffffffffff\n        /* \"#utility.yul\":6473:6479   */\n      dup3\n        /* \"#utility.yul\":6470:6500   */\n      gt\n        /* \"#utility.yul\":6467:6523   */\n      iszero\n      tag_287\n      jumpi\n        /* \"#utility.yul\":6503:6521   */\n      tag_288\n      tag_188\n      jump\t// in\n    tag_288:\n        /* \"#utility.yul\":6467:6523   */\n    tag_287:\n        /* \"#utility.yul\":6541:6570   */\n      tag_289\n        /* \"#utility.yul\":6563:6569   */\n      dup3\n        /* \"#utility.yul\":6541:6570   */\n      tag_173\n      jump\t// in\n    tag_289:\n        /* \"#utility.yul\":6533:6570   */\n      swap1\n      pop\n        /* \"#utility.yul\":6625:6629   */\n      0x20\n        /* \"#utility.yul\":6619:6623   */\n      dup2\n        /* \"#utility.yul\":6615:6630   */\n      add\n        /* \"#utility.yul\":6607:6630   */\n      swap1\n      pop\n        /* \"#utility.yul\":6329:6637   */\n      swap2\n      swap1\n      pop\n      jump\t// out\n        /* \"#utility.yul\":6643:6789   */\n    tag_192:\n        /* \"#utility.yul\":6740:6746   */\n      dup3\n        /* \"#utility.yul\":6735:6738   */\n      dup2\n        /* \"#utility.yul\":6730:6733   */\n      dup4\n        /* \"#utility.yul\":6717:6747   */\n      calldatacopy\n        /* \"#utility.yul\":6781:6782   */\n      0x00\n        /* \"#utility.yul\":6772:6778   */\n      dup4\n        /* \"#utility.yul\":6767:6770   */\n      dup4\n        /* \"#utility.yul\":6763:6779   */\n      add\n        /* \"#utility.yul\":6756:6783   */\n      mstore\n        /* \"#utility.yul\":6643:6789   */\n      pop\n      pop\n      pop\n      jump\t// out\n        /* \"#utility.yul\":6795:7220   */\n    tag_193:\n        /* \"#utility.yul\":6873:6878   */\n      0x00\n        /* \"#utility.yul\":6898:6964   */\n      tag_292\n        /* \"#utility.yul\":6914:6963   */\n      tag_293\n        /* \"#utility.yul\":6956:6962   */\n      dup5\n        /* \"#utility.yul\":6914:6963   */\n      tag_191\n      jump\t// in\n    tag_293:\n        /* \"#utility.yul\":6898:6964   */\n      tag_190\n      jump\t// in\n    tag_292:\n        /* \"#utility.yul\":6889:6964   */\n      swap1\n      pop\n        /* \"#utility.yul\":6987:6993   */\n      dup3\n        /* \"#utility.yul\":6980:6985   */\n      dup2\n        /* \"#utility.yul\":6973:6994   */\n      mstore\n        /* \"#utility.yul\":7025:7029   */\n      0x20\n        /* \"#utility.yul\":7018:7023   */\n      dup2\n        /* \"#utility.yul\":7014:7030   */\n      add\n        /* \"#utility.yul\":7063:7066   */\n      dup5\n        /* \"#utility.yul\":7054:7060   */\n      dup5\n        /* \"#utility.yul\":7049:7052   */\n      dup5\n        /* \"#utility.yul\":7045:7061   */\n      add\n        /* \"#utility.yul\":7042:7067   */\n      gt\n        /* \"#utility.yul\":7039:7151   */\n      iszero\n      tag_294\n      jumpi\n        /* \"#utility.yul\":7070:7149   */\n      tag_295\n      tag_187\n      jump\t// in\n    tag_295:\n        /* \"#utility.yul\":7039:7151   */\n    tag_294:\n        /* \"#utility.yul\":7160:7214   */\n      tag_296\n        /* \"#utility.yul\":7207:7213   */\n      dup5\n        /* \"#utility.yul\":7202:7205   */\n      dup3\n        /* \"#utility.yul\":7197:7200   */\n      dup6\n        /* \"#utility.yul\":7160:7214   */\n      tag_192\n      jump\t// in\n    tag_296:\n        /* \"#utility.yul\":6879:7220   */\n      pop\n        /* \"#utility.yul\":6795:7220   */\n      swap4\n      swap3\n      pop\n      pop\n      pop\n      jump\t// out\n        /* \"#utility.yul\":7240:7580   */\n    tag_194:\n        /* \"#utility.yul\":7296:7301   */\n      0x00\n        /* \"#utility.yul\":7345:7348   */\n      dup3\n        /* \"#utility.yul\":7338:7342   */\n      0x1f\n        /* \"#utility.yul\":7330:7336   */\n      dup4\n        /* \"#utility.yul\":7326:7343   */\n      add\n        /* \"#utility.yul\":7322:7349   */\n      slt\n        /* \"#utility.yul\":7312:7434   */\n      tag_298\n      jumpi\n        /* \"#utility.yul\":7353:7432   */\n      tag_299\n      tag_186\n      jump\t// in\n    tag_299:\n        /* \"#utility.yul\":7312:7434   */\n    tag_298:\n        /* \"#utility.yul\":7470:7476   */\n      dup2\n        /* \"#utility.yul\":7457:7477   */\n      calldataload\n        /* \"#utility.yul\":7495:7574   */\n      tag_300\n        /* \"#utility.yul\":7570:7573   */\n      dup5\n        /* \"#utility.yul\":7562:7568   */\n      dup3\n        /* \"#utility.yul\":7555:7559   */\n      0x20\n        /* \"#utility.yul\":7547:7553   */\n      dup7\n        /* \"#utility.yul\":7543:7560   */\n      add\n        /* \"#utility.yul\":7495:7574   */\n      tag_193\n      jump\t// in\n    tag_300:\n        /* \"#utility.yul\":7486:7574   */\n      swap2\n      pop\n        /* \"#utility.yul\":7302:7580   */\n      pop\n        /* \"#utility.yul\":7240:7580   */\n      swap3\n      swap2\n      pop\n      pop\n      jump\t// out\n        /* \"#utility.yul\":7586:8095   */\n    tag_80:\n        /* \"#utility.yul\":7655:7661   */\n      0x00\n        /* \"#utility.yul\":7704:7706   */\n      0x20\n        /* \"#utility.yul\":7692:7701   */\n      dup3\n        /* \"#utility.yul\":7683:7690   */\n      dup5\n        /* \"#utility.yul\":7679:7702   */\n      sub\n        /* \"#utility.yul\":7675:7707   */\n      slt\n        /* \"#utility.yul\":7672:7791   */\n      iszero\n      tag_302\n      jumpi\n        /* \"#utility.yul\":7710:7789   */\n      tag_303\n      tag_181\n      jump\t// in\n    tag_303:\n        /* \"#utility.yul\":7672:7791   */\n    tag_302:\n        /* \"#utility.yul\":7858:7859   */\n      0x00\n        /* \"#utility.yul\":7847:7856   */\n      dup3\n        /* \"#utility.yul\":7843:7860   */\n      add\n        /* \"#utility.yul\":7830:7861   */\n      calldataload\n        /* \"#utility.yul\":7888:7906   */\n      0xffffffffffffffff\n        /* \"#utility.yul\":7880:7886   */\n      dup2\n        /* \"#utility.yul\":7877:7907   */\n      gt\n        /* \"#utility.yul\":7874:7991   */\n      iszero\n      tag_304\n      jumpi\n        /* \"#utility.yul\":7910:7989   */\n      tag_305\n      tag_182\n      jump\t// in\n    tag_305:\n        /* \"#utility.yul\":7874:7991   */\n    tag_304:\n        /* \"#utility.yul\":8015:8078   */\n      tag_306\n        /* \"#utility.yul\":8070:8077   */\n      dup5\n        /* \"#utility.yul\":8061:8067   */\n      dup3\n        /* \"#utility.yul\":8050:8059   */\n      dup6\n        /* \"#utility.yul\":8046:8068   */\n      add\n        /* \"#utility.yul\":8015:8078   */\n      tag_194\n      jump\t// in\n    tag_306:\n        /* \"#utility.yul\":8005:8078   */\n      swap2\n      pop\n        /* \"#utility.yul\":7801:8088   */\n      pop\n        /* \"#utility.yul\":7586:8095   */\n      swap3\n      swap2\n      pop\n      pop\n      jump\t// out\n        /* \"#utility.yul\":8101:8281   */\n    tag_195:\n        /* \"#utility.yul\":8149:8226   */\n      0x4e487b7100000000000000000000000000000000000000000000000000000000\n        /* \"#utility.yul\":8146:8147   */\n      0x00\n        /* \"#utility.yul\":8139:8227   */\n      mstore\n        /* \"#utility.yul\":8246:8250   */\n      0x22\n        /* \"#utility.yul\":8243:8244   */\n      0x04\n        /* \"#utility.yul\":8236:8251   */\n      mstore\n        /* \"#utility.yul\":8270:8274   */\n      0x24\n        /* \"#utility.yul\":8267:8268   */\n      0x00\n        /* \"#utility.yul\":8260:8275   */\n      revert\n        /* \"#utility.yul\":8287:8607   */\n    tag_87:\n        /* \"#utility.yul\":8331:8337   */\n      0x00\n        /* \"#utility.yul\":8368:8369   */\n      0x02\n        /* \"#utility.yul\":8362:8366   */\n      dup3\n        /* \"#utility.yul\":8358:8370   */\n      div\n        /* \"#utility.yul\":8348:8370   */\n      swap1\n      pop\n        /* \"#utility.yul\":8415:8416   */\n      0x01\n        /* \"#utility.yul\":8409:8413   */\n      dup3\n        /* \"#utility.yul\":8405:8417   */\n      and\n        /* \"#utility.yul\":8436:8454   */\n      dup1\n        /* \"#utility.yul\":8426:8507   */\n      tag_309\n      jumpi\n        /* \"#utility.yul\":8492:8496   */\n      0x7f\n        /* \"#utility.yul\":8484:8490   */\n      dup3\n        /* \"#utility.yul\":8480:8497   */\n      and\n        /* \"#utility.yul\":8470:8497   */\n      swap2\n      pop\n        /* \"#utility.yul\":8426:8507   */\n    tag_309:\n        /* \"#utility.yul\":8554:8556   */\n      0x20\n        /* \"#utility.yul\":8546:8552   */\n      dup3\n        /* \"#utility.yul\":8543:8557   */\n      lt\n        /* \"#utility.yul\":8523:8541   */\n      dup2\n        /* \"#utility.yul\":8520:8558   */\n      sub\n        /* \"#utility.yul\":8517:8601   */\n      tag_310\n      jumpi\n        /* \"#utility.yul\":8573:8591   */\n      tag_311\n      tag_195\n      jump\t// in\n    tag_311:\n        /* \"#utility.yul\":8517:8601   */\n    tag_310:\n        /* \"#utility.yul\":8338:8607   */\n      pop\n        /* \"#utility.yul\":8287:8607   */\n      swap2\n      swap1\n      pop\n      jump\t// out\n        /* \"#utility.yul\":8613:8792   */\n    tag_196:\n        /* \"#utility.yul\":8753:8784   */\n      0x596f7520616c726561647920626f756768742074686520636f75727365000000\n        /* \"#utility.yul\":8749:8750   */\n      0x00\n        /* \"#utility.yul\":8741:8747   */\n      dup3\n        /* \"#utility.yul\":8737:8751   */\n      add\n        /* \"#utility.yul\":8730:8785   */\n      mstore\n        /* \"#utility.yul\":8613:8792   */\n      pop\n      jump\t// out\n        /* \"#utility.yul\":8798:9164   */\n    tag_197:\n        /* \"#utility.yul\":8940:8943   */\n      0x00\n        /* \"#utility.yul\":8961:9028   */\n      tag_314\n        /* \"#utility.yul\":9025:9027   */\n      0x1d\n        /* \"#utility.yul\":9020:9023   */\n      dup4\n        /* \"#utility.yul\":8961:9028   */\n      tag_171\n      jump\t// in\n    tag_314:\n        /* \"#utility.yul\":8954:9028   */\n      swap2\n      pop\n        /* \"#utility.yul\":9037:9130   */\n      tag_315\n        /* \"#utility.yul\":9126:9129   */\n      dup3\n        /* \"#utility.yul\":9037:9130   */\n      tag_196\n      jump\t// in\n    tag_315:\n        /* \"#utility.yul\":9155:9157   */\n      0x20\n        /* \"#utility.yul\":9150:9153   */\n      dup3\n        /* \"#utility.yul\":9146:9158   */\n      add\n        /* \"#utility.yul\":9139:9158   */\n      swap1\n      pop\n        /* \"#utility.yul\":8798:9164   */\n      swap2\n      swap1\n      pop\n      jump\t// out\n        /* \"#utility.yul\":9170:9589   */\n    tag_135:\n        /* \"#utility.yul\":9336:9340   */\n      0x00\n        /* \"#utility.yul\":9374:9376   */\n      0x20\n        /* \"#utility.yul\":9363:9372   */\n      dup3\n        /* \"#utility.yul\":9359:9377   */\n      add\n        /* \"#utility.yul\":9351:9377   */\n      swap1\n      pop\n        /* \"#utility.yul\":9423:9432   */\n      dup2\n        /* \"#utility.yul\":9417:9421   */\n      dup2\n        /* \"#utility.yul\":9413:9433   */\n      sub\n        /* \"#utility.yul\":9409:9410   */\n      0x00\n        /* \"#utility.yul\":9398:9407   */\n      dup4\n        /* \"#utility.yul\":9394:9411   */\n      add\n        /* \"#utility.yul\":9387:9434   */\n      mstore\n        /* \"#utility.yul\":9451:9582   */\n      tag_317\n        /* \"#utility.yul\":9577:9581   */\n      dup2\n        /* \"#utility.yul\":9451:9582   */\n      tag_197\n      jump\t// in\n    tag_317:\n        /* \"#utility.yul\":9443:9582   */\n      swap1\n      pop\n        /* \"#utility.yul\":9170:9589   */\n      swap2\n      swap1\n      pop\n      jump\t// out\n        /* \"#utility.yul\":9595:9815   */\n    tag_198:\n        /* \"#utility.yul\":9735:9769   */\n      0x496e636f727265637420707269636520666f72206f6e6c696e6520636f757273\n        /* \"#utility.yul\":9731:9732   */\n      0x00\n        /* \"#utility.yul\":9723:9729   */\n      dup3\n        /* \"#utility.yul\":9719:9733   */\n      add\n        /* \"#utility.yul\":9712:9770   */\n      mstore\n        /* \"#utility.yul\":9804:9807   */\n      0x6500000000000000000000000000000000000000000000000000000000000000\n        /* \"#utility.yul\":9799:9801   */\n      0x20\n        /* \"#utility.yul\":9791:9797   */\n      dup3\n        /* \"#utility.yul\":9787:9802   */\n      add\n        /* \"#utility.yul\":9780:9808   */\n      mstore\n        /* \"#utility.yul\":9595:9815   */\n      pop\n      jump\t// out\n        /* \"#utility.yul\":9821:10187   */\n    tag_199:\n        /* \"#utility.yul\":9963:9966   */\n      0x00\n        /* \"#utility.yul\":9984:10051   */\n      tag_320\n        /* \"#utility.yul\":10048:10050   */\n      0x21\n        /* \"#utility.yul\":10043:10046   */\n      dup4\n        /* \"#utility.yul\":9984:10051   */\n      tag_171\n      jump\t// in\n    tag_320:\n        /* \"#utility.yul\":9977:10051   */\n      swap2\n      pop\n        /* \"#utility.yul\":10060:10153   */\n      tag_321\n        /* \"#utility.yul\":10149:10152   */\n      dup3\n        /* \"#utility.yul\":10060:10153   */\n      tag_198\n      jump\t// in\n    tag_321:\n        /* \"#utility.yul\":10178:10180   */\n      0x40\n        /* \"#utility.yul\":10173:10176   */\n      dup3\n        /* \"#utility.yul\":10169:10181   */\n      add\n        /* \"#utility.yul\":10162:10181   */\n      swap1\n      pop\n        /* \"#utility.yul\":9821:10187   */\n      swap2\n      swap1\n      pop\n      jump\t// out\n        /* \"#utility.yul\":10193:10612   */\n    tag_139:\n        /* \"#utility.yul\":10359:10363   */\n      0x00\n        /* \"#utility.yul\":10397:10399   */\n      0x20\n        /* \"#utility.yul\":10386:10395   */\n      dup3\n        /* \"#utility.yul\":10382:10400   */\n      add\n        /* \"#utility.yul\":10374:10400   */\n      swap1\n      pop\n        /* \"#utility.yul\":10446:10455   */\n      dup2\n        /* \"#utility.yul\":10440:10444   */\n      dup2\n        /* \"#utility.yul\":10436:10456   */\n      sub\n        /* \"#utility.yul\":10432:10433   */\n      0x00\n        /* \"#utility.yul\":10421:10430   */\n      dup4\n        /* \"#utility.yul\":10417:10434   */\n      add\n        /* \"#utility.yul\":10410:10457   */\n      mstore\n        /* \"#utility.yul\":10474:10605   */\n      tag_323\n        /* \"#utility.yul\":10600:10604   */\n      dup2\n        /* \"#utility.yul\":10474:10605   */\n      tag_199\n      jump\t// in\n    tag_323:\n        /* \"#utility.yul\":10466:10605   */\n      swap1\n      pop\n        /* \"#utility.yul\":10193:10612   */\n      swap2\n      swap1\n      pop\n      jump\t// out\n        /* \"#utility.yul\":10618:10792   */\n    tag_200:\n        /* \"#utility.yul\":10758:10784   */\n      0x496e636f72726563742066756e64696e6720616d6f756e740000000000000000\n        /* \"#utility.yul\":10754:10755   */\n      0x00\n        /* \"#utility.yul\":10746:10752   */\n      dup3\n        /* \"#utility.yul\":10742:10756   */\n      add\n        /* \"#utility.yul\":10735:10785   */\n      mstore\n        /* \"#utility.yul\":10618:10792   */\n      pop\n      jump\t// out\n        /* \"#utility.yul\":10798:11164   */\n    tag_201:\n        /* \"#utility.yul\":10940:10943   */\n      0x00\n        /* \"#utility.yul\":10961:11028   */\n      tag_326\n        /* \"#utility.yul\":11025:11027   */\n      0x18\n        /* \"#utility.yul\":11020:11023   */\n      dup4\n        /* \"#utility.yul\":10961:11028   */\n      tag_171\n      jump\t// in\n    tag_326:\n        /* \"#utility.yul\":10954:11028   */\n      swap2\n      pop\n        /* \"#utility.yul\":11037:11130   */\n      tag_327\n        /* \"#utility.yul\":11126:11129   */\n      dup3\n        /* \"#utility.yul\":11037:11130   */\n      tag_200\n      jump\t// in\n    tag_327:\n        /* \"#utility.yul\":11155:11157   */\n      0x20\n        /* \"#utility.yul\":11150:11153   */\n      dup3\n        /* \"#utility.yul\":11146:11158   */\n      add\n        /* \"#utility.yul\":11139:11158   */\n      swap1\n      pop\n        /* \"#utility.yul\":10798:11164   */\n      swap2\n      swap1\n      pop\n      jump\t// out\n        /* \"#utility.yul\":11170:11589   */\n    tag_143:\n        /* \"#utility.yul\":11336:11340   */\n      0x00\n        /* \"#utility.yul\":11374:11376   */\n      0x20\n        /* \"#utility.yul\":11363:11372   */\n      dup3\n        /* \"#utility.yul\":11359:11377   */\n      add\n        /* \"#utility.yul\":11351:11377   */\n      swap1\n      pop\n        /* \"#utility.yul\":11423:11432   */\n      dup2\n        /* \"#utility.yul\":11417:11421   */\n      dup2\n        /* \"#utility.yul\":11413:11433   */\n      sub\n        /* \"#utility.yul\":11409:11410   */\n      0x00\n        /* \"#utility.yul\":11398:11407   */\n      dup4\n        /* \"#utility.yul\":11394:11411   */\n      add\n        /* \"#utility.yul\":11387:11434   */\n      mstore\n        /* \"#utility.yul\":11451:11582   */\n      tag_329\n        /* \"#utility.yul\":11577:11581   */\n      dup2\n        /* \"#utility.yul\":11451:11582   */\n      tag_201\n      jump\t// in\n    tag_329:\n        /* \"#utility.yul\":11443:11582   */\n      swap1\n      pop\n        /* \"#utility.yul\":11170:11589   */\n      swap2\n      swap1\n      pop\n      jump\t// out\n        /* \"#utility.yul\":11595:11775   */\n    tag_202:\n        /* \"#utility.yul\":11643:11720   */\n      0x4e487b7100000000000000000000000000000000000000000000000000000000\n        /* \"#utility.yul\":11640:11641   */\n      0x00\n        /* \"#utility.yul\":11633:11721   */\n      mstore\n        /* \"#utility.yul\":11740:11744   */\n      0x11\n        /* \"#utility.yul\":11737:11738   */\n      0x04\n        /* \"#utility.yul\":11730:11745   */\n      mstore\n        /* \"#utility.yul\":11764:11768   */\n      0x24\n        /* \"#utility.yul\":11761:11762   */\n      0x00\n        /* \"#utility.yul\":11754:11769   */\n      revert\n        /* \"#utility.yul\":11781:11972   */\n    tag_145:\n        /* \"#utility.yul\":11821:11824   */\n      0x00\n        /* \"#utility.yul\":11840:11860   */\n      tag_332\n        /* \"#utility.yul\":11858:11859   */\n      dup3\n        /* \"#utility.yul\":11840:11860   */\n      tag_168\n      jump\t// in\n    tag_332:\n        /* \"#utility.yul\":11835:11860   */\n      swap2\n      pop\n        /* \"#utility.yul\":11874:11894   */\n      tag_333\n        /* \"#utility.yul\":11892:11893   */\n      dup4\n        /* \"#utility.yul\":11874:11894   */\n      tag_168\n      jump\t// in\n    tag_333:\n        /* \"#utility.yul\":11869:11894   */\n      swap3\n      pop\n        /* \"#utility.yul\":11917:11918   */\n      dup3\n        /* \"#utility.yul\":11914:11915   */\n      dup3\n        /* \"#utility.yul\":11910:11919   */\n      add\n        /* \"#utility.yul\":11903:11919   */\n      swap1\n      pop\n        /* \"#utility.yul\":11938:11941   */\n      dup1\n        /* \"#utility.yul\":11935:11936   */\n      dup3\n        /* \"#utility.yul\":11932:11942   */\n      gt\n        /* \"#utility.yul\":11929:11965   */\n      iszero\n      tag_334\n      jumpi\n        /* \"#utility.yul\":11945:11963   */\n      tag_335\n      tag_202\n      jump\t// in\n    tag_335:\n        /* \"#utility.yul\":11929:11965   */\n    tag_334:\n        /* \"#utility.yul\":11781:11972   */\n      swap3\n      swap2\n      pop\n      pop\n      jump\t// out\n        /* \"#utility.yul\":11978:12388   */\n    tag_147:\n        /* \"#utility.yul\":12018:12025   */\n      0x00\n        /* \"#utility.yul\":12041:12061   */\n      tag_337\n        /* \"#utility.yul\":12059:12060   */\n      dup3\n        /* \"#utility.yul\":12041:12061   */\n      tag_168\n      jump\t// in\n    tag_337:\n        /* \"#utility.yul\":12036:12061   */\n      swap2\n      pop\n        /* \"#utility.yul\":12075:12095   */\n      tag_338\n        /* \"#utility.yul\":12093:12094   */\n      dup4\n        /* \"#utility.yul\":12075:12095   */\n      tag_168\n      jump\t// in\n    tag_338:\n        /* \"#utility.yul\":12070:12095   */\n      swap3\n      pop\n        /* \"#utility.yul\":12130:12131   */\n      dup3\n        /* \"#utility.yul\":12127:12128   */\n      dup3\n        /* \"#utility.yul\":12123:12132   */\n      mul\n        /* \"#utility.yul\":12152:12182   */\n      tag_339\n        /* \"#utility.yul\":12170:12181   */\n      dup2\n        /* \"#utility.yul\":12152:12182   */\n      tag_168\n      jump\t// in\n    tag_339:\n        /* \"#utility.yul\":12141:12182   */\n      swap2\n      pop\n        /* \"#utility.yul\":12331:12332   */\n      dup3\n        /* \"#utility.yul\":12322:12329   */\n      dup3\n        /* \"#utility.yul\":12318:12333   */\n      div\n        /* \"#utility.yul\":12315:12316   */\n      dup5\n        /* \"#utility.yul\":12312:12334   */\n      eq\n        /* \"#utility.yul\":12292:12293   */\n      dup4\n        /* \"#utility.yul\":12285:12294   */\n      iszero\n        /* \"#utility.yul\":12265:12348   */\n      or\n        /* \"#utility.yul\":12242:12381   */\n      tag_340\n      jumpi\n        /* \"#utility.yul\":12361:12379   */\n      tag_341\n      tag_202\n      jump\t// in\n    tag_341:\n        /* \"#utility.yul\":12242:12381   */\n    tag_340:\n        /* \"#utility.yul\":12026:12388   */\n      pop\n        /* \"#utility.yul\":11978:12388   */\n      swap3\n      swap2\n      pop\n      pop\n      jump\t// out\n        /* \"#utility.yul\":12394:12574   */\n    tag_203:\n        /* \"#utility.yul\":12442:12519   */\n      0x4e487b7100000000000000000000000000000000000000000000000000000000\n        /* \"#utility.yul\":12439:12440   */\n      0x00\n        /* \"#utility.yul\":12432:12520   */\n      mstore\n        /* \"#utility.yul\":12539:12543   */\n      0x12\n        /* \"#utility.yul\":12536:12537   */\n      0x04\n        /* \"#utility.yul\":12529:12544   */\n      mstore\n        /* \"#utility.yul\":12563:12567   */\n      0x24\n        /* \"#utility.yul\":12560:12561   */\n      0x00\n        /* \"#utility.yul\":12553:12568   */\n      revert\n        /* \"#utility.yul\":12580:12765   */\n    tag_151:\n        /* \"#utility.yul\":12620:12621   */\n      0x00\n        /* \"#utility.yul\":12637:12657   */\n      tag_344\n        /* \"#utility.yul\":12655:12656   */\n      dup3\n        /* \"#utility.yul\":12637:12657   */\n      tag_168\n      jump\t// in\n    tag_344:\n        /* \"#utility.yul\":12632:12657   */\n      swap2\n      pop\n        /* \"#utility.yul\":12671:12691   */\n      tag_345\n        /* \"#utility.yul\":12689:12690   */\n      dup4\n        /* \"#utility.yul\":12671:12691   */\n      tag_168\n      jump\t// in\n    tag_345:\n        /* \"#utility.yul\":12666:12691   */\n      swap3\n      pop\n        /* \"#utility.yul\":12710:12711   */\n      dup3\n        /* \"#utility.yul\":12700:12735   */\n      tag_346\n      jumpi\n        /* \"#utility.yul\":12715:12733   */\n      tag_347\n      tag_203\n      jump\t// in\n    tag_347:\n        /* \"#utility.yul\":12700:12735   */\n    tag_346:\n        /* \"#utility.yul\":12757:12758   */\n      dup3\n        /* \"#utility.yul\":12754:12755   */\n      dup3\n        /* \"#utility.yul\":12750:12759   */\n      div\n        /* \"#utility.yul\":12745:12759   */\n      swap1\n      pop\n        /* \"#utility.yul\":12580:12765   */\n      swap3\n      swap2\n      pop\n      pop\n      jump\t// out\n        /* \"#utility.yul\":12771:12965   */\n    tag_156:\n        /* \"#utility.yul\":12811:12815   */\n      0x00\n        /* \"#utility.yul\":12831:12851   */\n      tag_349\n        /* \"#utility.yul\":12849:12850   */\n      dup3\n        /* \"#utility.yul\":12831:12851   */\n      tag_168\n      jump\t// in\n    tag_349:\n        /* \"#utility.yul\":12826:12851   */\n      swap2\n      pop\n        /* \"#utility.yul\":12865:12885   */\n      tag_350\n        /* \"#utility.yul\":12883:12884   */\n      dup4\n        /* \"#utility.yul\":12865:12885   */\n      tag_168\n      jump\t// in\n    tag_350:\n        /* \"#utility.yul\":12860:12885   */\n      swap3\n      pop\n        /* \"#utility.yul\":12909:12910   */\n      dup3\n        /* \"#utility.yul\":12906:12907   */\n      dup3\n        /* \"#utility.yul\":12902:12911   */\n      sub\n        /* \"#utility.yul\":12894:12911   */\n      swap1\n      pop\n        /* \"#utility.yul\":12933:12934   */\n      dup2\n        /* \"#utility.yul\":12927:12931   */\n      dup2\n        /* \"#utility.yul\":12924:12935   */\n      gt\n        /* \"#utility.yul\":12921:12958   */\n      iszero\n      tag_351\n      jumpi\n        /* \"#utility.yul\":12938:12956   */\n      tag_352\n      tag_202\n      jump\t// in\n    tag_352:\n        /* \"#utility.yul\":12921:12958   */\n    tag_351:\n        /* \"#utility.yul\":12771:12965   */\n      swap3\n      swap2\n      pop\n      pop\n      jump\t// out\n        /* \"#utility.yul\":12971:13112   */\n    tag_204:\n        /* \"#utility.yul\":13020:13024   */\n      0x00\n        /* \"#utility.yul\":13043:13046   */\n      dup2\n        /* \"#utility.yul\":13035:13046   */\n      swap1\n      pop\n        /* \"#utility.yul\":13066:13069   */\n      dup2\n        /* \"#utility.yul\":13063:13064   */\n      0x00\n        /* \"#utility.yul\":13056:13070   */\n      mstore\n        /* \"#utility.yul\":13100:13104   */\n      0x20\n        /* \"#utility.yul\":13097:13098   */\n      0x00\n        /* \"#utility.yul\":13087:13105   */\n      keccak256\n        /* \"#utility.yul\":13079:13105   */\n      swap1\n      pop\n        /* \"#utility.yul\":12971:13112   */\n      swap2\n      swap1\n      pop\n      jump\t// out\n        /* \"#utility.yul\":13118:13211   */\n    tag_205:\n        /* \"#utility.yul\":13155:13161   */\n      0x00\n        /* \"#utility.yul\":13202:13204   */\n      0x20\n        /* \"#utility.yul\":13197:13199   */\n      0x1f\n        /* \"#utility.yul\":13190:13195   */\n      dup4\n        /* \"#utility.yul\":13186:13200   */\n      add\n        /* \"#utility.yul\":13182:13205   */\n      div\n        /* \"#utility.yul\":13172:13205   */\n      swap1\n      pop\n        /* \"#utility.yul\":13118:13211   */\n      swap2\n      swap1\n      pop\n      jump\t// out\n        /* \"#utility.yul\":13217:13324   */\n    tag_206:\n        /* \"#utility.yul\":13261:13269   */\n      0x00\n        /* \"#utility.yul\":13311:13316   */\n      dup3\n        /* \"#utility.yul\":13305:13309   */\n      dup3\n        /* \"#utility.yul\":13301:13317   */\n      shl\n        /* \"#utility.yul\":13280:13317   */\n      swap1\n      pop\n        /* \"#utility.yul\":13217:13324   */\n      swap3\n      swap2\n      pop\n      pop\n      jump\t// out\n        /* \"#utility.yul\":13330:13723   */\n    tag_207:\n        /* \"#utility.yul\":13399:13405   */\n      0x00\n        /* \"#utility.yul\":13449:13450   */\n      0x08\n        /* \"#utility.yul\":13437:13447   */\n      dup4\n        /* \"#utility.yul\":13433:13451   */\n      mul\n        /* \"#utility.yul\":13472:13569   */\n      tag_357\n        /* \"#utility.yul\":13502:13568   */\n      0xffffffffffffffffffffffffffffffffffffffffffffffffffffffffffffffff\n        /* \"#utility.yul\":13491:13500   */\n      dup3\n        /* \"#utility.yul\":13472:13569   */\n      tag_206\n      jump\t// in\n    tag_357:\n        /* \"#utility.yul\":13590:13629   */\n      tag_358\n        /* \"#utility.yul\":13620:13628   */\n      dup7\n        /* \"#utility.yul\":13609:13618   */\n      dup4\n        /* \"#utility.yul\":13590:13629   */\n      tag_206\n      jump\t// in\n    tag_358:\n        /* \"#utility.yul\":13578:13629   */\n      swap6\n      pop\n        /* \"#utility.yul\":13662:13666   */\n      dup1\n        /* \"#utility.yul\":13658:13667   */\n      not\n        /* \"#utility.yul\":13651:13656   */\n      dup5\n        /* \"#utility.yul\":13647:13668   */\n      and\n        /* \"#utility.yul\":13638:13668   */\n      swap4\n      pop\n        /* \"#utility.yul\":13711:13715   */\n      dup1\n        /* \"#utility.yul\":13701:13709   */\n      dup7\n        /* \"#utility.yul\":13697:13716   */\n      and\n        /* \"#utility.yul\":13690:13695   */\n      dup5\n        /* \"#utility.yul\":13687:13717   */\n      or\n        /* \"#utility.yul\":13677:13717   */\n      swap3\n      pop\n        /* \"#utility.yul\":13406:13723   */\n      pop\n      pop\n        /* \"#utility.yul\":13330:13723   */\n      swap4\n      swap3\n      pop\n      pop\n      pop\n      jump\t// out\n        /* \"#utility.yul\":13729:13789   */\n    tag_208:\n        /* \"#utility.yul\":13757:13760   */\n      0x00\n        /* \"#utility.yul\":13778:13783   */\n      dup2\n        /* \"#utility.yul\":13771:13783   */\n      swap1\n      pop\n        /* \"#utility.yul\":13729:13789   */\n      swap2\n      swap1\n      pop\n      jump\t// out\n        /* \"#utility.yul\":13795:13937   */\n    tag_209:\n        /* \"#utility.yul\":13845:13854   */\n      0x00\n        /* \"#utility.yul\":13878:13931   */\n      tag_361\n        /* \"#utility.yul\":13896:13930   */\n      tag_362\n        /* \"#utility.yul\":13905:13929   */\n      tag_363\n        /* \"#utility.yul\":13923:13928   */\n      dup5\n        /* \"#utility.yul\":13905:13929   */\n      tag_168\n      jump\t// in\n    tag_363:\n        /* \"#utility.yul\":13896:13930   */\n      tag_208\n      jump\t// in\n    tag_362:\n        /* \"#utility.yul\":13878:13931   */\n      tag_168\n      jump\t// in\n    tag_361:\n        /* \"#utility.yul\":13865:13931   */\n      swap1\n      pop\n        /* \"#utility.yul\":13795:13937   */\n      swap2\n      swap1\n      pop\n      jump\t// out\n        /* \"#utility.yul\":13943:14018   */\n    tag_210:\n        /* \"#utility.yul\":13986:13989   */\n      0x00\n        /* \"#utility.yul\":14007:14012   */\n      dup2\n        /* \"#utility.yul\":14000:14012   */\n      swap1\n      pop\n        /* \"#utility.yul\":13943:14018   */\n      swap2\n      swap1\n      pop\n      jump\t// out\n        /* \"#utility.yul\":14024:14293   */\n    tag_211:\n        /* \"#utility.yul\":14134:14173   */\n      tag_366\n        /* \"#utility.yul\":14165:14172   */\n      dup4\n        /* \"#utility.yul\":14134:14173   */\n      tag_209\n      jump\t// in\n    tag_366:\n        /* \"#utility.yul\":14195:14286   */\n      tag_367\n        /* \"#utility.yul\":14244:14285   */\n      tag_368\n        /* \"#utility.yul\":14268:14284   */\n      dup3\n        /* \"#utility.yul\":14244:14285   */\n      tag_210\n      jump\t// in\n    tag_368:\n        /* \"#utility.yul\":14236:14242   */\n      dup5\n        /* \"#utility.yul\":14229:14233   */\n      dup5\n        /* \"#utility.yul\":14223:14234   */\n      sload\n        /* \"#utility.yul\":14195:14286   */\n      tag_207\n      jump\t// in\n    tag_367:\n        /* \"#utility.yul\":14189:14193   */\n      dup3\n        /* \"#utility.yul\":14182:14287   */\n      sstore\n        /* \"#utility.yul\":14100:14293   */\n      pop\n        /* \"#utility.yul\":14024:14293   */\n      pop\n      pop\n      pop\n      jump\t// out\n        /* \"#utility.yul\":14299:14372   */\n    tag_212:\n        /* \"#utility.yul\":14344:14347   */\n      0x00\n        /* \"#utility.yul\":14299:14372   */\n      swap1\n      jump\t// out\n        /* \"#utility.yul\":14378:14567   */\n    tag_213:\n        /* \"#utility.yul\":14455:14487   */\n      tag_371\n      tag_212\n      jump\t// in\n    tag_371:\n        /* \"#utility.yul\":14496:14561   */\n      tag_372\n        /* \"#utility.yul\":14554:14560   */\n      dup2\n        /* \"#utility.yul\":14546:14552   */\n      dup5\n        /* \"#utility.yul\":14540:14544   */\n      dup5\n        /* \"#utility.yul\":14496:14561   */\n      tag_211\n      jump\t// in\n    tag_372:\n        /* \"#utility.yul\":14431:14567   */\n      pop\n        /* \"#utility.yul\":14378:14567   */\n      pop\n      pop\n      jump\t// out\n        /* \"#utility.yul\":14573:14759   */\n    tag_214:\n        /* \"#utility.yul\":14633:14753   */\n    tag_374:\n        /* \"#utility.yul\":14650:14653   */\n      dup2\n        /* \"#utility.yul\":14643:14648   */\n      dup2\n        /* \"#utility.yul\":14640:14654   */\n      lt\n        /* \"#utility.yul\":14633:14753   */\n      iszero\n      tag_376\n      jumpi\n        /* \"#utility.yul\":14704:14743   */\n      tag_377\n        /* \"#utility.yul\":14741:14742   */\n      0x00\n        /* \"#utility.yul\":14734:14739   */\n      dup3\n        /* \"#utility.yul\":14704:14743   */\n      tag_213\n      jump\t// in\n    tag_377:\n        /* \"#utility.yul\":14677:14678   */\n      0x01\n        /* \"#utility.yul\":14670:14675   */\n      dup2\n        /* \"#utility.yul\":14666:14679   */\n      add\n        /* \"#utility.yul\":14657:14679   */\n      swap1\n      pop\n        /* \"#utility.yul\":14633:14753   */\n      jump(tag_374)\n    tag_376:\n        /* \"#utility.yul\":14573:14759   */\n      pop\n      pop\n      jump\t// out\n        /* \"#utility.yul\":14765:15308   */\n    tag_215:\n        /* \"#utility.yul\":14866:14868   */\n      0x1f\n        /* \"#utility.yul\":14861:14864   */\n      dup3\n        /* \"#utility.yul\":14858:14869   */\n      gt\n        /* \"#utility.yul\":14855:15301   */\n      iszero\n      tag_379\n      jumpi\n        /* \"#utility.yul\":14900:14938   */\n      tag_380\n        /* \"#utility.yul\":14932:14937   */\n      dup2\n        /* \"#utility.yul\":14900:14938   */\n      tag_204\n      jump\t// in\n    tag_380:\n        /* \"#utility.yul\":14984:15013   */\n      tag_381\n        /* \"#utility.yul\":15002:15012   */\n      dup5\n        /* \"#utility.yul\":14984:15013   */\n      tag_205\n      jump\t// in\n    tag_381:\n        /* \"#utility.yul\":14974:14982   */\n      dup2\n        /* \"#utility.yul\":14970:15014   */\n      add\n        /* \"#utility.yul\":15167:15169   */\n      0x20\n        /* \"#utility.yul\":15155:15165   */\n      dup6\n        /* \"#utility.yul\":15152:15170   */\n      lt\n        /* \"#utility.yul\":15149:15198   */\n      iszero\n      tag_382\n      jumpi\n        /* \"#utility.yul\":15188:15196   */\n      dup2\n        /* \"#utility.yul\":15173:15196   */\n      swap1\n      pop\n        /* \"#utility.yul\":15149:15198   */\n    tag_382:\n        /* \"#utility.yul\":15211:15291   */\n      tag_383\n        /* \"#utility.yul\":15267:15289   */\n      tag_384\n        /* \"#utility.yul\":15285:15288   */\n      dup6\n        /* \"#utility.yul\":15267:15289   */\n      tag_205\n      jump\t// in\n    tag_384:\n        /* \"#utility.yul\":15257:15265   */\n      dup4\n        /* \"#utility.yul\":15253:15290   */\n      add\n        /* \"#utility.yul\":15240:15251   */\n      dup3\n        /* \"#utility.yul\":15211:15291   */\n      tag_214\n      jump\t// in\n    tag_383:\n        /* \"#utility.yul\":14870:15301   */\n      pop\n      pop\n        /* \"#utility.yul\":14855:15301   */\n    tag_379:\n        /* \"#utility.yul\":14765:15308   */\n      pop\n      pop\n      pop\n      jump\t// out\n        /* \"#utility.yul\":15314:15431   */\n    tag_216:\n        /* \"#utility.yul\":15368:15376   */\n      0x00\n        /* \"#utility.yul\":15418:15423   */\n      dup3\n        /* \"#utility.yul\":15412:15416   */\n      dup3\n        /* \"#utility.yul\":15408:15424   */\n      shr\n        /* \"#utility.yul\":15387:15424   */\n      swap1\n      pop\n        /* \"#utility.yul\":15314:15431   */\n      swap3\n      swap2\n      pop\n      pop\n      jump\t// out\n        /* \"#utility.yul\":15437:15606   */\n    tag_217:\n        /* \"#utility.yul\":15481:15487   */\n      0x00\n        /* \"#utility.yul\":15514:15565   */\n      tag_387\n        /* \"#utility.yul\":15562:15563   */\n      0x00\n        /* \"#utility.yul\":15558:15564   */\n      not\n        /* \"#utility.yul\":15550:15555   */\n      dup5\n        /* \"#utility.yul\":15547:15548   */\n      0x08\n        /* \"#utility.yul\":15543:15556   */\n      mul\n        /* \"#utility.yul\":15514:15565   */\n      tag_216\n      jump\t// in\n    tag_387:\n        /* \"#utility.yul\":15510:15566   */\n      not\n        /* \"#utility.yul\":15595:15599   */\n      dup1\n        /* \"#utility.yul\":15589:15593   */\n      dup4\n        /* \"#utility.yul\":15585:15600   */\n      and\n        /* \"#utility.yul\":15575:15600   */\n      swap2\n      pop\n        /* \"#utility.yul\":15488:15606   */\n      pop\n        /* \"#utility.yul\":15437:15606   */\n      swap3\n      swap2\n      pop\n      pop\n      jump\t// out\n        /* \"#utility.yul\":15611:15906   */\n    tag_218:\n        /* \"#utility.yul\":15687:15691   */\n      0x00\n        /* \"#utility.yul\":15833:15862   */\n      tag_389\n        /* \"#utility.yul\":15858:15861   */\n      dup4\n        /* \"#utility.yul\":15852:15856   */\n      dup4\n        /* \"#utility.yul\":15833:15862   */\n      tag_217\n      jump\t// in\n    tag_389:\n        /* \"#utility.yul\":15825:15862   */\n      swap2\n      pop\n        /* \"#utility.yul\":15895:15898   */\n      dup3\n        /* \"#utility.yul\":15892:15893   */\n      0x02\n        /* \"#utility.yul\":15888:15899   */\n      mul\n        /* \"#utility.yul\":15882:15886   */\n      dup3\n        /* \"#utility.yul\":15879:15900   */\n      or\n        /* \"#utility.yul\":15871:15900   */\n      swap1\n      pop\n        /* \"#utility.yul\":15611:15906   */\n      swap3\n      swap2\n      pop\n      pop\n      jump\t// out\n        /* \"#utility.yul\":15911:17306   */\n    tag_167:\n        /* \"#utility.yul\":16028:16065   */\n      tag_391\n        /* \"#utility.yul\":16061:16064   */\n      dup3\n        /* \"#utility.yul\":16028:16065   */\n      tag_170\n      jump\t// in\n    tag_391:\n        /* \"#utility.yul\":16130:16148   */\n      0xffffffffffffffff\n        /* \"#utility.yul\":16122:16128   */\n      dup2\n        /* \"#utility.yul\":16119:16149   */\n      gt\n        /* \"#utility.yul\":16116:16172   */\n      iszero\n      tag_392\n      jumpi\n        /* \"#utility.yul\":16152:16170   */\n      tag_393\n      tag_188\n      jump\t// in\n    tag_393:\n        /* \"#utility.yul\":16116:16172   */\n    tag_392:\n        /* \"#utility.yul\":16196:16234   */\n      tag_394\n        /* \"#utility.yul\":16228:16232   */\n      dup3\n        /* \"#utility.yul\":16222:16233   */\n      sload\n        /* \"#utility.yul\":16196:16234   */\n      tag_87\n      jump\t// in\n    tag_394:\n        /* \"#utility.yul\":16281:16348   */\n      tag_395\n        /* \"#utility.yul\":16341:16347   */\n      dup3\n        /* \"#utility.yul\":16333:16339   */\n      dup3\n        /* \"#utility.yul\":16327:16331   */\n      dup6\n        /* \"#utility.yul\":16281:16348   */\n      tag_215\n      jump\t// in\n    tag_395:\n        /* \"#utility.yul\":16375:16376   */\n      0x00\n        /* \"#utility.yul\":16399:16403   */\n      0x20\n        /* \"#utility.yul\":16386:16403   */\n      swap1\n      pop\n        /* \"#utility.yul\":16431:16433   */\n      0x1f\n        /* \"#utility.yul\":16423:16429   */\n      dup4\n        /* \"#utility.yul\":16420:16434   */\n      gt\n        /* \"#utility.yul\":16448:16449   */\n      0x01\n        /* \"#utility.yul\":16443:17061   */\n      dup2\n      eq\n      tag_397\n      jumpi\n        /* \"#utility.yul\":17105:17106   */\n      0x00\n        /* \"#utility.yul\":17122:17128   */\n      dup5\n        /* \"#utility.yul\":17119:17196   */\n      iszero\n      tag_398\n      jumpi\n        /* \"#utility.yul\":17171:17180   */\n      dup3\n        /* \"#utility.yul\":17166:17169   */\n      dup8\n        /* \"#utility.yul\":17162:17181   */\n      add\n        /* \"#utility.yul\":17156:17182   */\n      mload\n        /* \"#utility.yul\":17147:17182   */\n      swap1\n      pop\n        /* \"#utility.yul\":17119:17196   */\n    tag_398:\n        /* \"#utility.yul\":17222:17289   */\n      tag_399\n        /* \"#utility.yul\":17282:17288   */\n      dup6\n        /* \"#utility.yul\":17275:17280   */\n      dup3\n        /* \"#utility.yul\":17222:17289   */\n      tag_218\n      jump\t// in\n    tag_399:\n        /* \"#utility.yul\":17216:17220   */\n      dup7\n        /* \"#utility.yul\":17209:17290   */\n      sstore\n        /* \"#utility.yul\":17078:17300   */\n      pop\n        /* \"#utility.yul\":16413:17300   */\n      jump(tag_396)\n        /* \"#utility.yul\":16443:17061   */\n    tag_397:\n        /* \"#utility.yul\":16495:16499   */\n      0x1f\n        /* \"#utility.yul\":16491:16500   */\n      not\n        /* \"#utility.yul\":16483:16489   */\n      dup5\n        /* \"#utility.yul\":16479:16501   */\n      and\n        /* \"#utility.yul\":16529:16566   */\n      tag_400\n        /* \"#utility.yul\":16561:16565   */\n      dup7\n        /* \"#utility.yul\":16529:16566   */\n      tag_204\n      jump\t// in\n    tag_400:\n        /* \"#utility.yul\":16588:16589   */\n      0x00\n        /* \"#utility.yul\":16602:16810   */\n    tag_401:\n        /* \"#utility.yul\":16616:16623   */\n      dup3\n        /* \"#utility.yul\":16613:16614   */\n      dup2\n        /* \"#utility.yul\":16610:16624   */\n      lt\n        /* \"#utility.yul\":16602:16810   */\n      iszero\n      tag_403\n      jumpi\n        /* \"#utility.yul\":16695:16704   */\n      dup5\n        /* \"#utility.yul\":16690:16693   */\n      dup10\n        /* \"#utility.yul\":16686:16705   */\n      add\n        /* \"#utility.yul\":16680:16706   */\n      mload\n        /* \"#utility.yul\":16672:16678   */\n      dup3\n        /* \"#utility.yul\":16665:16707   */\n      sstore\n        /* \"#utility.yul\":16746:16747   */\n      0x01\n        /* \"#utility.yul\":16738:16744   */\n      dup3\n        /* \"#utility.yul\":16734:16748   */\n      add\n        /* \"#utility.yul\":16724:16748   */\n      swap2\n      pop\n        /* \"#utility.yul\":16793:16795   */\n      0x20\n        /* \"#utility.yul\":16782:16791   */\n      dup6\n        /* \"#utility.yul\":16778:16796   */\n      add\n        /* \"#utility.yul\":16765:16796   */\n      swap5\n      pop\n        /* \"#utility.yul\":16639:16643   */\n      0x20\n        /* \"#utility.yul\":16636:16637   */\n      dup2\n        /* \"#utility.yul\":16632:16644   */\n      add\n        /* \"#utility.yul\":16627:16644   */\n      swap1\n      pop\n        /* \"#utility.yul\":16602:16810   */\n      jump(tag_401)\n    tag_403:\n        /* \"#utility.yul\":16838:16844   */\n      dup7\n        /* \"#utility.yul\":16829:16836   */\n      dup4\n        /* \"#utility.yul\":16826:16845   */\n      lt\n        /* \"#utility.yul\":16823:17002   */\n      iszero\n      tag_404\n      jumpi\n        /* \"#utility.yul\":16896:16905   */\n      dup5\n        /* \"#utility.yul\":16891:16894   */\n      dup10\n        /* \"#utility.yul\":16887:16906   */\n      add\n        /* \"#utility.yul\":16881:16907   */\n      mload\n        /* \"#utility.yul\":16939:16987   */\n      tag_405\n        /* \"#utility.yul\":16981:16985   */\n      0x1f\n        /* \"#utility.yul\":16973:16979   */\n      dup10\n        /* \"#utility.yul\":16969:16986   */\n      and\n        /* \"#utility.yul\":16958:16967   */\n      dup3\n        /* \"#utility.yul\":16939:16987   */\n      tag_217\n      jump\t// in\n    tag_405:\n        /* \"#utility.yul\":16931:16937   */\n      dup4\n        /* \"#utility.yul\":16924:16988   */\n      sstore\n        /* \"#utility.yul\":16846:17002   */\n      pop\n        /* \"#utility.yul\":16823:17002   */\n    tag_404:\n        /* \"#utility.yul\":17048:17049   */\n      0x01\n        /* \"#utility.yul\":17044:17045   */\n      0x02\n        /* \"#utility.yul\":17036:17042   */\n      dup9\n        /* \"#utility.yul\":17032:17046   */\n      mul\n        /* \"#utility.yul\":17028:17050   */\n      add\n        /* \"#utility.yul\":17022:17026   */\n      dup9\n        /* \"#utility.yul\":17015:17051   */\n      sstore\n        /* \"#utility.yul\":16450:17061   */\n      pop\n      pop\n      pop\n        /* \"#utility.yul\":16413:17300   */\n    tag_396:\n      pop\n        /* \"#utility.yul\":16003:17306   */\n      pop\n      pop\n      pop\n        /* \"#utility.yul\":15911:17306   */\n      pop\n      pop\n      jump\t// out\n\n    auxdata: 0xa2646970667358221220bec0e011e04552a8f91272f39c37c25a763ef9543b0c6e37f640109afd7b082364736f6c63430008180033\n}\n",
    "bytecode": {
      "linkReferences": {},
      "object": "608060405234801562000010575f80fd5b5060405162001ec438038062001ec483398181016040528101906200003691906200039b565b8a5f806101000a81548173ffffffffffffffffffffffffffffffffffffffff021916908373ffffffffffffffffffffffffffffffffffffffff1602179055508960015f6101000a81548173ffffffffffffffffffffffffffffffffffffffff021916908373ffffffffffffffffffffffffffffffffffffffff1602179055508860029081620000c691906200074b565b508760039081620000d891906200074b565b508660048190555085600581905550846006819055508360079081620000ff91906200074b565b5082600890816200011191906200074b565b508160098190555080600a5f6101000a81548160ff02191690831515021790555050505050505050505050506200082f565b5f604051905090565b5f80fd5b5f80fd5b5f73ffffffffffffffffffffffffffffffffffffffff82169050919050565b5f6200017f8262000154565b9050919050565b620001918162000173565b81146200019c575f80fd5b50565b5f81519050620001af8162000186565b92915050565b5f80fd5b5f80fd5b5f601f19601f8301169050919050565b7f4e487b71000000000000000000000000000000000000000000000000000000005f52604160045260245ffd5b6200020582620001bd565b810181811067ffffffffffffffff82111715620002275762000226620001cd565b5b80604052505050565b5f6200023b62000143565b9050620002498282620001fa565b919050565b5f67ffffffffffffffff8211156200026b576200026a620001cd565b5b6200027682620001bd565b9050602081019050919050565b5f5b83811015620002a257808201518184015260208101905062000285565b5f8484015250505050565b5f620002c3620002bd846200024e565b62000230565b905082815260208101848484011115620002e257620002e1620001b9565b5b620002ef84828562000283565b509392505050565b5f82601f8301126200030e576200030d620001b5565b5b815162000320848260208601620002ad565b91505092915050565b5f819050919050565b6200033d8162000329565b811462000348575f80fd5b50565b5f815190506200035b8162000332565b92915050565b5f8115159050919050565b620003778162000361565b811462000382575f80fd5b50565b5f8151905062000395816200036c565b92915050565b5f805f805f805f805f805f6101608c8e031215620003be57620003bd6200014c565b5b5f620003cd8e828f016200019f565b9b50506020620003e08e828f016200019f565b9a505060408c015167ffffffffffffffff81111562000404576200040362000150565b5b620004128e828f01620002f7565b99505060608c015167ffffffffffffffff81111562000436576200043562000150565b5b620004448e828f01620002f7565b9850506080620004578e828f016200034b565b97505060a06200046a8e828f016200034b565b96505060c06200047d8e828f016200034b565b95505060e08c015167ffffffffffffffff811115620004a157620004a062000150565b5b620004af8e828f01620002f7565b9450506101008c015167ffffffffffffffff811115620004d457620004d362000150565b5b620004e28e828f01620002f7565b935050610120620004f68e828f016200034b565b9250506101406200050a8e828f0162000385565b9150509295989b509295989b9093969950565b5f81519050919050565b7f4e487b71000000000000000000000000000000000000000000000000000000005f52602260045260245ffd5b5f60028204905060018216806200056c57607f821691505b60208210810362000582576200058162000527565b5b50919050565b5f819050815f5260205f209050919050565b5f6020601f8301049050919050565b5f82821b905092915050565b5f60088302620005e67fffffffffffffffffffffffffffffffffffffffffffffffffffffffffffffffff82620005a9565b620005f28683620005a9565b95508019841693508086168417925050509392505050565b5f819050919050565b5f620006336200062d620006278462000329565b6200060a565b62000329565b9050919050565b5f819050919050565b6200064e8362000613565b620006666200065d826200063a565b848454620005b5565b825550505050565b5f90565b6200067c6200066e565b6200068981848462000643565b505050565b5b81811015620006b057620006a45f8262000672565b6001810190506200068f565b5050565b601f821115620006ff57620006c98162000588565b620006d4846200059a565b81016020851015620006e4578190505b620006fc620006f3856200059a565b8301826200068e565b50505b505050565b5f82821c905092915050565b5f620007215f198460080262000704565b1980831691505092915050565b5f6200073b838362000710565b9150826002028217905092915050565b62000756826200051d565b67ffffffffffffffff811115620007725762000771620001cd565b5b6200077e825462000554565b6200078b828285620006b4565b5f60209050601f831160018114620007c1575f8415620007ac578287015190505b620007b885826200072e565b86555062000827565b601f198416620007d18662000588565b5f5b82811015620007fa57848901518255600182019150602085019450602081019050620007d3565b868310156200081a578489015162000816601f89168262000710565b8355505b6001600288020188555050505b505050505050565b611687806200083d5f395ff3fe6080604052600436106100e7575f3560e01c80638a4d5a6711610089578063a6f2ae3a11610058578063a6f2ae3a146102c2578063a87430ba146102cc578063cd0a496314610308578063d4b8399214610330576100e7565b80638a4d5a671461021a5780638da5cb5b14610244578063908921fc1461026e578063a035b1fe14610298576100e7565b806333938bb7116100c557806333938bb714610169578063426bfd00146101935780635b2a4cff146101bd578063664ab18e146101f0576100e7565b806306661abd146100eb57806306fdde031461011557806311b006171461013f575b5f80fd5b3480156100f6575f80fd5b506100ff61035a565b60405161010c9190610d0b565b60405180910390f35b348015610120575f80fd5b50610129610360565b6040516101369190610dae565b60405180910390f35b34801561014a575f80fd5b506101536103ec565b6040516101609190610dae565b60405180910390f35b348015610174575f80fd5b5061017d610478565b60405161018a9190610d0b565b60405180910390f35b34801561019e575f80fd5b506101a761047e565b6040516101b49190610dae565b60405180910390f35b3480156101c8575f80fd5b506101d161050a565b6040516101e79a99989796959493929190610de8565b60405180910390f35b3480156101fb575f80fd5b50610204610834565b6040516102119190610e9e565b60405180910390f35b348015610225575f80fd5b5061022e610846565b60405161023b9190610dae565b60405180910390f35b34801561024f575f80fd5b506102586108d2565b6040516102659190610ef6565b60405180910390f35b348015610279575f80fd5b506102826108f7565b60405161028f9190610ef6565b60405180910390f35b3480156102a3575f80fd5b506102ac61091a565b6040516102b99190610d0b565b60405180910390f35b6102ca610920565b005b3480156102d7575f80fd5b506102f260048036038101906102ed9190610f5b565b610c4f565b6040516102ff9190610d0b565b60405180910390f35b348015610313575f80fd5b5061032e600480360381019061032991906110b2565b610c64565b005b34801561033b575f80fd5b50610344610ced565b6040516103519190610d0b565b60405180910390f35b60095481565b6002805461036d90611126565b80601f016020809104026020016040519081016040528092919081815260200182805461039990611126565b80156103e45780601f106103bb576101008083540402835291602001916103e4565b820191905f5260205f20905b8154815290600101906020018083116103c757829003601f168201915b505050505081565b600880546103f990611126565b80601f016020809104026020016040519081016040528092919081815260200182805461042590611126565b80156104705780601f1061044757610100808354040283529160200191610470565b820191905f5260205f20905b81548152906001019060200180831161045357829003601f168201915b505050505081565b60055481565b6007805461048b90611126565b80601f01602080910402602001604051908101604052809291908181526020018280546104b790611126565b80156105025780601f106104d957610100808354040283529160200191610502565b820191905f5260205f20905b8154815290600101906020018083116104e557829003601f168201915b505050505081565b6060805f805f6060805f805f803373ffffffffffffffffffffffffffffffffffffffff1660015f9054906101000a900473ffffffffffffffffffffffffffffffffffffffff1673ffffffffffffffffffffffffffffffffffffffff1603610573575f90506105c7565b5f600b5f3373ffffffffffffffffffffffffffffffffffffffff1673ffffffffffffffffffffffffffffffffffffffff1681526020019081526020015f205411156105c157600190506105c6565b600290505b5b6002600360045460055460065460076008600954600a5f9054906101000a900460ff16898980546105f790611126565b80601f016020809104026020016040519081016040528092919081815260200182805461062390611126565b801561066e5780601f106106455761010080835404028352916020019161066e565b820191905f5260205f20905b81548152906001019060200180831161065157829003601f168201915b5050505050995088805461068190611126565b80601f01602080910402602001604051908101604052809291908181526020018280546106ad90611126565b80156106f85780601f106106cf576101008083540402835291602001916106f8565b820191905f5260205f20905b8154815290600101906020018083116106db57829003601f168201915b5050505050985084805461070b90611126565b80601f016020809104026020016040519081016040528092919081815260200182805461073790611126565b80156107825780601f1061075957610100808354040283529160200191610782565b820191905f5260205f20905b81548152906001019060200180831161076557829003601f168201915b5050505050945083805461079590611126565b80601f01602080910402602001604051908101604052809291908181526020018280546107c190611126565b801561080c5780601f106107e35761010080835404028352916020019161080c565b820191905f5260205f20905b8154815290600101906020018083116107ef57829003601f168201915b505050505093509a509a509a509a509a509a509a509a509a509a505090919293949596979899565b600a5f9054906101000a900460ff1681565b6003805461085390611126565b80601f016020809104026020016040519081016040528092919081815260200182805461087f90611126565b80156108ca5780601f106108a1576101008083540402835291602001916108ca565b820191905f5260205f20905b8154815290600101906020018083116108ad57829003601f168201915b505050505081565b60015f9054906101000a900473ffffffffffffffffffffffffffffffffffffffff1681565b5f8054906101000a900473ffffffffffffffffffffffffffffffffffffffff1681565b60065481565b5f600b5f3373ffffffffffffffffffffffffffffffffffffffff1673ffffffffffffffffffffffffffffffffffffffff1681526020019081526020015f20541461099f576040517f08c379a0000000000000000000000000000000000000000000000000000000008152600401610996906111a0565b60405180910390fd5b600a5f9054906101000a900460ff16156109fc5734600654146109f7576040517f08c379a00000000000000000000000000000000000000000000000000000000081526004016109ee9061122e565b60405180910390fd5b610a41565b3460055414610a40576040517f08c379a0000000000000000000000000000000000000000000000000000000008152600401610a3790611296565b60405180910390fd5b5b34600b5f3373ffffffffffffffffffffffffffffffffffffffff1673ffffffffffffffffffffffffffffffffffffffff1681526020019081526020015f2081905550600160095f828254610a9591906112e1565b92505081905550600554600954610aac9190611314565b60045411610c4d57600a5f9054906101000a900460ff1615610bbd575f3490505f8054906101000a900473ffffffffffffffffffffffffffffffffffffffff1673ffffffffffffffffffffffffffffffffffffffff166108fc600a83610b129190611382565b90811502906040515f60405180830381858888f19350505050158015610b3a573d5f803e3d5ffd5b5060015f9054906101000a900473ffffffffffffffffffffffffffffffffffffffff1673ffffffffffffffffffffffffffffffffffffffff166108fc600a83610b839190611382565b83610b8e91906113b2565b90811502906040515f60405180830381858888f19350505050158015610bb6573d5f803e3d5ffd5b5050610c4c565b6001600a5f6101000a81548160ff02191690831515021790555060015f9054906101000a900473ffffffffffffffffffffffffffffffffffffffff1673ffffffffffffffffffffffffffffffffffffffff166108fc600554600954610c229190611314565b90811502906040515f60405180830381858888f19350505050158015610c4a573d5f803e3d5ffd5b505b5b565b600b602052805f5260405f205f915090505481565b60015f9054906101000a900473ffffffffffffffffffffffffffffffffffffffff1673ffffffffffffffffffffffffffffffffffffffff163373ffffffffffffffffffffffffffffffffffffffff1614610cbc575f80fd5b60011515600a5f9054906101000a900460ff16151514610cda575f80fd5b8060089081610ce99190611582565b5050565b60045481565b5f819050919050565b610d0581610cf3565b82525050565b5f602082019050610d1e5f830184610cfc565b92915050565b5f81519050919050565b5f82825260208201905092915050565b5f5b83811015610d5b578082015181840152602081019050610d40565b5f8484015250505050565b5f601f19601f8301169050919050565b5f610d8082610d24565b610d8a8185610d2e565b9350610d9a818560208601610d3e565b610da381610d66565b840191505092915050565b5f6020820190508181035f830152610dc68184610d76565b905092915050565b5f8115159050919050565b610de281610dce565b82525050565b5f610140820190508181035f830152610e01818d610d76565b90508181036020830152610e15818c610d76565b9050610e24604083018b610cfc565b610e31606083018a610cfc565b610e3e6080830189610cfc565b81810360a0830152610e508188610d76565b905081810360c0830152610e648187610d76565b9050610e7360e0830186610cfc565b610e81610100830185610dd9565b610e8f610120830184610cfc565b9b9a5050505050505050505050565b5f602082019050610eb15f830184610dd9565b92915050565b5f73ffffffffffffffffffffffffffffffffffffffff82169050919050565b5f610ee082610eb7565b9050919050565b610ef081610ed6565b82525050565b5f602082019050610f095f830184610ee7565b92915050565b5f604051905090565b5f80fd5b5f80fd5b5f610f2a82610eb7565b9050919050565b610f3a81610f20565b8114610f44575f80fd5b50565b5f81359050610f5581610f31565b92915050565b5f60208284031215610f7057610f6f610f18565b5b5f610f7d84828501610f47565b91505092915050565b5f80fd5b5f80fd5b7f4e487b71000000000000000000000000000000000000000000000000000000005f52604160045260245ffd5b610fc482610d66565b810181811067ffffffffffffffff82111715610fe357610fe2610f8e565b5b80604052505050565b5f610ff5610f0f565b90506110018282610fbb565b919050565b5f67ffffffffffffffff8211156110205761101f610f8e565b5b61102982610d66565b9050602081019050919050565b828183375f83830152505050565b5f61105661105184611006565b610fec565b90508281526020810184848401111561107257611071610f8a565b5b61107d848285611036565b509392505050565b5f82601f83011261109957611098610f86565b5b81356110a9848260208601611044565b91505092915050565b5f602082840312156110c7576110c6610f18565b5b5f82013567ffffffffffffffff8111156110e4576110e3610f1c565b5b6110f084828501611085565b91505092915050565b7f4e487b71000000000000000000000000000000000000000000000000000000005f52602260045260245ffd5b5f600282049050600182168061113d57607f821691505b6020821081036111505761114f6110f9565b5b50919050565b7f596f7520616c726561647920626f756768742074686520636f757273650000005f82015250565b5f61118a601d83610d2e565b915061119582611156565b602082019050919050565b5f6020820190508181035f8301526111b78161117e565b9050919050565b7f496e636f727265637420707269636520666f72206f6e6c696e6520636f7572735f8201527f6500000000000000000000000000000000000000000000000000000000000000602082015250565b5f611218602183610d2e565b9150611223826111be565b604082019050919050565b5f6020820190508181035f8301526112458161120c565b9050919050565b7f496e636f72726563742066756e64696e6720616d6f756e7400000000000000005f82015250565b5f611280601883610d2e565b915061128b8261124c565b602082019050919050565b5f6020820190508181035f8301526112ad81611274565b9050919050565b7f4e487b71000000000000000000000000000000000000000000000000000000005f52601160045260245ffd5b5f6112eb82610cf3565b91506112f683610cf3565b925082820190508082111561130e5761130d6112b4565b5b92915050565b5f61131e82610cf3565b915061132983610cf3565b925082820261133781610cf3565b9150828204841483151761134e5761134d6112b4565b5b5092915050565b7f4e487b71000000000000000000000000000000000000000000000000000000005f52601260045260245ffd5b5f61138c82610cf3565b915061139783610cf3565b9250826113a7576113a6611355565b5b828204905092915050565b5f6113bc82610cf3565b91506113c783610cf3565b92508282039050818111156113df576113de6112b4565b5b92915050565b5f819050815f5260205f209050919050565b5f6020601f8301049050919050565b5f82821b905092915050565b5f600883026114417fffffffffffffffffffffffffffffffffffffffffffffffffffffffffffffffff82611406565b61144b8683611406565b95508019841693508086168417925050509392505050565b5f819050919050565b5f61148661148161147c84610cf3565b611463565b610cf3565b9050919050565b5f819050919050565b61149f8361146c565b6114b36114ab8261148d565b848454611412565b825550505050565b5f90565b6114c76114bb565b6114d2818484611496565b505050565b5b818110156114f5576114ea5f826114bf565b6001810190506114d8565b5050565b601f82111561153a5761150b816113e5565b611514846113f7565b81016020851015611523578190505b61153761152f856113f7565b8301826114d7565b50505b505050565b5f82821c905092915050565b5f61155a5f198460080261153f565b1980831691505092915050565b5f611572838361154b565b9150826002028217905092915050565b61158b82610d24565b67ffffffffffffffff8111156115a4576115a3610f8e565b5b6115ae8254611126565b6115b98282856114f9565b5f60209050601f8311600181146115ea575f84156115d8578287015190505b6115e28582611567565b865550611649565b601f1984166115f8866113e5565b5f5b8281101561161f578489015182556001820191506020850194506020810190506115fa565b8683101561163c5784890151611638601f89168261154b565b8355505b6001600288020188555050505b50505050505056fea2646970667358221220bec0e011e04552a8f91272f39c37c25a763ef9543b0c6e37f640109afd7b082364736f6c63430008180033",
      "opcodes": "PUSH1 0x80 PUSH1 0x40 MSTORE CALLVALUE DUP1 ISZERO PUSH3 0x10 JUMPI PUSH0 DUP1 REVERT JUMPDEST POP PUSH1 0x40 MLOAD PUSH3 0x1EC4 CODESIZE SUB DUP1 PUSH3 0x1EC4 DUP4 CODECOPY DUP2 DUP2 ADD PUSH1 0x40 MSTORE DUP2 ADD SWAP1 PUSH3 0x36 SWAP2 SWAP1 PUSH3 0x39B JUMP JUMPDEST DUP11 PUSH0 DUP1 PUSH2 0x100 EXP DUP2 SLOAD DUP2 PUSH20 0xFFFFFFFFFFFFFFFFFFFFFFFFFFFFFFFFFFFFFFFF MUL NOT AND SWAP1 DUP4 PUSH20 0xFFFFFFFFFFFFFFFFFFFFFFFFFFFFFFFFFFFFFFFF AND MUL OR SWAP1 SSTORE POP DUP10 PUSH1 0x1 PUSH0 PUSH2 0x100 EXP DUP2 SLOAD DUP2 PUSH20 0xFFFFFFFFFFFFFFFFFFFFFFFFFFFFFFFFFFFFFFFF MUL NOT AND SWAP1 DUP4 PUSH20 0xFFFFFFFFFFFFFFFFFFFFFFFFFFFFFFFFFFFFFFFF AND MUL OR SWAP1 SSTORE POP DUP9 PUSH1 0x2 SWAP1 DUP2 PUSH3 0xC6 SWAP2 SWAP1 PUSH3 0x74B JUMP JUMPDEST POP DUP8 PUSH1 0x3 SWAP1 DUP2 PUSH3 0xD8 SWAP2 SWAP1 PUSH3 0x74B JUMP JUMPDEST POP DUP7 PUSH1 0x4 DUP2 SWAP1 SSTORE POP DUP6 PUSH1 0x5 DUP2 SWAP1 SSTORE POP DUP5 PUSH1 0x6 DUP2 SWAP1 SSTORE POP DUP4 PUSH1 0x7 SWAP1 DUP2 PUSH3 0xFF SWAP2 SWAP1 PUSH3 0x74B JUMP JUMPDEST POP DUP3 PUSH1 0x8 SWAP1 DUP2 PUSH3 0x111 SWAP2 SWAP1 PUSH3 0x74B JUMP JUMPDEST POP DUP2 PUSH1 0x9 DUP2 SWAP1 SSTORE POP DUP1 PUSH1 0xA PUSH0 PUSH2 0x100 EXP DUP2 SLOAD DUP2 PUSH1 0xFF MUL NOT AND SWAP1 DUP4 ISZERO ISZERO MUL OR SWAP1 SSTORE POP POP POP POP POP POP POP POP POP POP POP POP PUSH3 0x82F JUMP JUMPDEST PUSH0 PUSH1 0x40 MLOAD SWAP1 POP SWAP1 JUMP JUMPDEST PUSH0 DUP1 REVERT JUMPDEST PUSH0 DUP1 REVERT JUMPDEST PUSH0 PUSH20 0xFFFFFFFFFFFFFFFFFFFFFFFFFFFFFFFFFFFFFFFF DUP3 AND SWAP1 POP SWAP2 SWAP1 POP JUMP JUMPDEST PUSH0 PUSH3 0x17F DUP3 PUSH3 0x154 JUMP JUMPDEST SWAP1 POP SWAP2 SWAP1 POP JUMP JUMPDEST PUSH3 0x191 DUP2 PUSH3 0x173 JUMP JUMPDEST DUP2 EQ PUSH3 0x19C JUMPI PUSH0 DUP1 REVERT JUMPDEST POP JUMP JUMPDEST PUSH0 DUP2 MLOAD SWAP1 POP PUSH3 0x1AF DUP2 PUSH3 0x186 JUMP JUMPDEST SWAP3 SWAP2 POP POP JUMP JUMPDEST PUSH0 DUP1 REVERT JUMPDEST PUSH0 DUP1 REVERT JUMPDEST PUSH0 PUSH1 0x1F NOT PUSH1 0x1F DUP4 ADD AND SWAP1 POP SWAP2 SWAP1 POP JUMP JUMPDEST PUSH32 0x4E487B7100000000000000000000000000000000000000000000000000000000 PUSH0 MSTORE PUSH1 0x41 PUSH1 0x4 MSTORE PUSH1 0x24 PUSH0 REVERT JUMPDEST PUSH3 0x205 DUP3 PUSH3 0x1BD JUMP JUMPDEST DUP2 ADD DUP2 DUP2 LT PUSH8 0xFFFFFFFFFFFFFFFF DUP3 GT OR ISZERO PUSH3 0x227 JUMPI PUSH3 0x226 PUSH3 0x1CD JUMP JUMPDEST JUMPDEST DUP1 PUSH1 0x40 MSTORE POP POP POP JUMP JUMPDEST PUSH0 PUSH3 0x23B PUSH3 0x143 JUMP JUMPDEST SWAP1 POP PUSH3 0x249 DUP3 DUP3 PUSH3 0x1FA JUMP JUMPDEST SWAP2 SWAP1 POP JUMP JUMPDEST PUSH0 PUSH8 0xFFFFFFFFFFFFFFFF DUP3 GT ISZERO PUSH3 0x26B JUMPI PUSH3 0x26A PUSH3 0x1CD JUMP JUMPDEST JUMPDEST PUSH3 0x276 DUP3 PUSH3 0x1BD JUMP JUMPDEST SWAP1 POP PUSH1 0x20 DUP2 ADD SWAP1 POP SWAP2 SWAP1 POP JUMP JUMPDEST PUSH0 JUMPDEST DUP4 DUP2 LT ISZERO PUSH3 0x2A2 JUMPI DUP1 DUP3 ADD MLOAD DUP2 DUP5 ADD MSTORE PUSH1 0x20 DUP2 ADD SWAP1 POP PUSH3 0x285 JUMP JUMPDEST PUSH0 DUP5 DUP5 ADD MSTORE POP POP POP POP JUMP JUMPDEST PUSH0 PUSH3 0x2C3 PUSH3 0x2BD DUP5 PUSH3 0x24E JUMP JUMPDEST PUSH3 0x230 JUMP JUMPDEST SWAP1 POP DUP3 DUP2 MSTORE PUSH1 0x20 DUP2 ADD DUP5 DUP5 DUP5 ADD GT ISZERO PUSH3 0x2E2 JUMPI PUSH3 0x2E1 PUSH3 0x1B9 JUMP JUMPDEST JUMPDEST PUSH3 0x2EF DUP5 DUP3 DUP6 PUSH3 0x283 JUMP JUMPDEST POP SWAP4 SWAP3 POP POP POP JUMP JUMPDEST PUSH0 DUP3 PUSH1 0x1F DUP4 ADD SLT PUSH3 0x30E JUMPI PUSH3 0x30D PUSH3 0x1B5 JUMP JUMPDEST JUMPDEST DUP2 MLOAD PUSH3 0x320 DUP5 DUP3 PUSH1 0x20 DUP7 ADD PUSH3 0x2AD JUMP JUMPDEST SWAP2 POP POP SWAP3 SWAP2 POP POP JUMP JUMPDEST PUSH0 DUP2 SWAP1 POP SWAP2 SWAP1 POP JUMP JUMPDEST PUSH3 0x33D DUP2 PUSH3 0x329 JUMP JUMPDEST DUP2 EQ PUSH3 0x348 JUMPI PUSH0 DUP1 REVERT JUMPDEST POP JUMP JUMPDEST PUSH0 DUP2 MLOAD SWAP1 POP PUSH3 0x35B DUP2 PUSH3 0x332 JUMP JUMPDEST SWAP3 SWAP2 POP POP JUMP JUMPDEST PUSH0 DUP2 ISZERO ISZERO SWAP1 POP SWAP2 SWAP1 POP JUMP JUMPDEST PUSH3 0x377 DUP2 PUSH3 0x361 JUMP JUMPDEST DUP2 EQ PUSH3 0x382 JUMPI PUSH0 DUP1 REVERT JUMPDEST POP JUMP JUMPDEST PUSH0 DUP2 MLOAD SWAP1 POP PUSH3 0x395 DUP2 PUSH3 0x36C JUMP JUMPDEST SWAP3 SWAP2 POP POP JUMP JUMPDEST PUSH0 DUP1 PUSH0 DUP1 PUSH0 DUP1 PUSH0 DUP1 PUSH0 DUP1 PUSH0 PUSH2 0x160 DUP13 DUP15 SUB SLT ISZERO PUSH3 0x3BE JUMPI PUSH3 0x3BD PUSH3 0x14C JUMP JUMPDEST JUMPDEST PUSH0 PUSH3 0x3CD DUP15 DUP3 DUP16 ADD PUSH3 0x19F JUMP JUMPDEST SWAP12 POP POP PUSH1 0x20 PUSH3 0x3E0 DUP15 DUP3 DUP16 ADD PUSH3 0x19F JUMP JUMPDEST SWAP11 POP POP PUSH1 0x40 DUP13 ADD MLOAD PUSH8 0xFFFFFFFFFFFFFFFF DUP2 GT ISZERO PUSH3 0x404 JUMPI PUSH3 0x403 PUSH3 0x150 JUMP JUMPDEST JUMPDEST PUSH3 0x412 DUP15 DUP3 DUP16 ADD PUSH3 0x2F7 JUMP JUMPDEST SWAP10 POP POP PUSH1 0x60 DUP13 ADD MLOAD PUSH8 0xFFFFFFFFFFFFFFFF DUP2 GT ISZERO PUSH3 0x436 JUMPI PUSH3 0x435 PUSH3 0x150 JUMP JUMPDEST JUMPDEST PUSH3 0x444 DUP15 DUP3 DUP16 ADD PUSH3 0x2F7 JUMP JUMPDEST SWAP9 POP POP PUSH1 0x80 PUSH3 0x457 DUP15 DUP3 DUP16 ADD PUSH3 0x34B JUMP JUMPDEST SWAP8 POP POP PUSH1 0xA0 PUSH3 0x46A DUP15 DUP3 DUP16 ADD PUSH3 0x34B JUMP JUMPDEST SWAP7 POP POP PUSH1 0xC0 PUSH3 0x47D DUP15 DUP3 DUP16 ADD PUSH3 0x34B JUMP JUMPDEST SWAP6 POP POP PUSH1 0xE0 DUP13 ADD MLOAD PUSH8 0xFFFFFFFFFFFFFFFF DUP2 GT ISZERO PUSH3 0x4A1 JUMPI PUSH3 0x4A0 PUSH3 0x150 JUMP JUMPDEST JUMPDEST PUSH3 0x4AF DUP15 DUP3 DUP16 ADD PUSH3 0x2F7 JUMP JUMPDEST SWAP5 POP POP PUSH2 0x100 DUP13 ADD MLOAD PUSH8 0xFFFFFFFFFFFFFFFF DUP2 GT ISZERO PUSH3 0x4D4 JUMPI PUSH3 0x4D3 PUSH3 0x150 JUMP JUMPDEST JUMPDEST PUSH3 0x4E2 DUP15 DUP3 DUP16 ADD PUSH3 0x2F7 JUMP JUMPDEST SWAP4 POP POP PUSH2 0x120 PUSH3 0x4F6 DUP15 DUP3 DUP16 ADD PUSH3 0x34B JUMP JUMPDEST SWAP3 POP POP PUSH2 0x140 PUSH3 0x50A DUP15 DUP3 DUP16 ADD PUSH3 0x385 JUMP JUMPDEST SWAP2 POP POP SWAP3 SWAP6 SWAP9 SWAP12 POP SWAP3 SWAP6 SWAP9 SWAP12 SWAP1 SWAP4 SWAP7 SWAP10 POP JUMP JUMPDEST PUSH0 DUP2 MLOAD SWAP1 POP SWAP2 SWAP1 POP JUMP JUMPDEST PUSH32 0x4E487B7100000000000000000000000000000000000000000000000000000000 PUSH0 MSTORE PUSH1 0x22 PUSH1 0x4 MSTORE PUSH1 0x24 PUSH0 REVERT JUMPDEST PUSH0 PUSH1 0x2 DUP3 DIV SWAP1 POP PUSH1 0x1 DUP3 AND DUP1 PUSH3 0x56C JUMPI PUSH1 0x7F DUP3 AND SWAP2 POP JUMPDEST PUSH1 0x20 DUP3 LT DUP2 SUB PUSH3 0x582 JUMPI PUSH3 0x581 PUSH3 0x527 JUMP JUMPDEST JUMPDEST POP SWAP2 SWAP1 POP JUMP JUMPDEST PUSH0 DUP2 SWAP1 POP DUP2 PUSH0 MSTORE PUSH1 0x20 PUSH0 KECCAK256 SWAP1 POP SWAP2 SWAP1 POP JUMP JUMPDEST PUSH0 PUSH1 0x20 PUSH1 0x1F DUP4 ADD DIV SWAP1 POP SWAP2 SWAP1 POP JUMP JUMPDEST PUSH0 DUP3 DUP3 SHL SWAP1 POP SWAP3 SWAP2 POP POP JUMP JUMPDEST PUSH0 PUSH1 0x8 DUP4 MUL PUSH3 0x5E6 PUSH32 0xFFFFFFFFFFFFFFFFFFFFFFFFFFFFFFFFFFFFFFFFFFFFFFFFFFFFFFFFFFFFFFFF DUP3 PUSH3 0x5A9 JUMP JUMPDEST PUSH3 0x5F2 DUP7 DUP4 PUSH3 0x5A9 JUMP JUMPDEST SWAP6 POP DUP1 NOT DUP5 AND SWAP4 POP DUP1 DUP7 AND DUP5 OR SWAP3 POP POP POP SWAP4 SWAP3 POP POP POP JUMP JUMPDEST PUSH0 DUP2 SWAP1 POP SWAP2 SWAP1 POP JUMP JUMPDEST PUSH0 PUSH3 0x633 PUSH3 0x62D PUSH3 0x627 DUP5 PUSH3 0x329 JUMP JUMPDEST PUSH3 0x60A JUMP JUMPDEST PUSH3 0x329 JUMP JUMPDEST SWAP1 POP SWAP2 SWAP1 POP JUMP JUMPDEST PUSH0 DUP2 SWAP1 POP SWAP2 SWAP1 POP JUMP JUMPDEST PUSH3 0x64E DUP4 PUSH3 0x613 JUMP JUMPDEST PUSH3 0x666 PUSH3 0x65D DUP3 PUSH3 0x63A JUMP JUMPDEST DUP5 DUP5 SLOAD PUSH3 0x5B5 JUMP JUMPDEST DUP3 SSTORE POP POP POP POP JUMP JUMPDEST PUSH0 SWAP1 JUMP JUMPDEST PUSH3 0x67C PUSH3 0x66E JUMP JUMPDEST PUSH3 0x689 DUP2 DUP5 DUP5 PUSH3 0x643 JUMP JUMPDEST POP POP POP JUMP JUMPDEST JUMPDEST DUP2 DUP2 LT ISZERO PUSH3 0x6B0 JUMPI PUSH3 0x6A4 PUSH0 DUP3 PUSH3 0x672 JUMP JUMPDEST PUSH1 0x1 DUP2 ADD SWAP1 POP PUSH3 0x68F JUMP JUMPDEST POP POP JUMP JUMPDEST PUSH1 0x1F DUP3 GT ISZERO PUSH3 0x6FF JUMPI PUSH3 0x6C9 DUP2 PUSH3 0x588 JUMP JUMPDEST PUSH3 0x6D4 DUP5 PUSH3 0x59A JUMP JUMPDEST DUP2 ADD PUSH1 0x20 DUP6 LT ISZERO PUSH3 0x6E4 JUMPI DUP2 SWAP1 POP JUMPDEST PUSH3 0x6FC PUSH3 0x6F3 DUP6 PUSH3 0x59A JUMP JUMPDEST DUP4 ADD DUP3 PUSH3 0x68E JUMP JUMPDEST POP POP JUMPDEST POP POP POP JUMP JUMPDEST PUSH0 DUP3 DUP3 SHR SWAP1 POP SWAP3 SWAP2 POP POP JUMP JUMPDEST PUSH0 PUSH3 0x721 PUSH0 NOT DUP5 PUSH1 0x8 MUL PUSH3 0x704 JUMP JUMPDEST NOT DUP1 DUP4 AND SWAP2 POP POP SWAP3 SWAP2 POP POP JUMP JUMPDEST PUSH0 PUSH3 0x73B DUP4 DUP4 PUSH3 0x710 JUMP JUMPDEST SWAP2 POP DUP3 PUSH1 0x2 MUL DUP3 OR SWAP1 POP SWAP3 SWAP2 POP POP JUMP JUMPDEST PUSH3 0x756 DUP3 PUSH3 0x51D JUMP JUMPDEST PUSH8 0xFFFFFFFFFFFFFFFF DUP2 GT ISZERO PUSH3 0x772 JUMPI PUSH3 0x771 PUSH3 0x1CD JUMP JUMPDEST JUMPDEST PUSH3 0x77E DUP3 SLOAD PUSH3 0x554 JUMP JUMPDEST PUSH3 0x78B DUP3 DUP3 DUP6 PUSH3 0x6B4 JUMP JUMPDEST PUSH0 PUSH1 0x20 SWAP1 POP PUSH1 0x1F DUP4 GT PUSH1 0x1 DUP2 EQ PUSH3 0x7C1 JUMPI PUSH0 DUP5 ISZERO PUSH3 0x7AC JUMPI DUP3 DUP8 ADD MLOAD SWAP1 POP JUMPDEST PUSH3 0x7B8 DUP6 DUP3 PUSH3 0x72E JUMP JUMPDEST DUP7 SSTORE POP PUSH3 0x827 JUMP JUMPDEST PUSH1 0x1F NOT DUP5 AND PUSH3 0x7D1 DUP7 PUSH3 0x588 JUMP JUMPDEST PUSH0 JUMPDEST DUP3 DUP2 LT ISZERO PUSH3 0x7FA JUMPI DUP5 DUP10 ADD MLOAD DUP3 SSTORE PUSH1 0x1 DUP3 ADD SWAP2 POP PUSH1 0x20 DUP6 ADD SWAP5 POP PUSH1 0x20 DUP2 ADD SWAP1 POP PUSH3 0x7D3 JUMP JUMPDEST DUP7 DUP4 LT ISZERO PUSH3 0x81A JUMPI DUP5 DUP10 ADD MLOAD PUSH3 0x816 PUSH1 0x1F DUP10 AND DUP3 PUSH3 0x710 JUMP JUMPDEST DUP4 SSTORE POP JUMPDEST PUSH1 0x1 PUSH1 0x2 DUP9 MUL ADD DUP9 SSTORE POP POP POP JUMPDEST POP POP POP POP POP POP JUMP JUMPDEST PUSH2 0x1687 DUP1 PUSH3 0x83D PUSH0 CODECOPY PUSH0 RETURN INVALID PUSH1 0x80 PUSH1 0x40 MSTORE PUSH1 0x4 CALLDATASIZE LT PUSH2 0xE7 JUMPI PUSH0 CALLDATALOAD PUSH1 0xE0 SHR DUP1 PUSH4 0x8A4D5A67 GT PUSH2 0x89 JUMPI DUP1 PUSH4 0xA6F2AE3A GT PUSH2 0x58 JUMPI DUP1 PUSH4 0xA6F2AE3A EQ PUSH2 0x2C2 JUMPI DUP1 PUSH4 0xA87430BA EQ PUSH2 0x2CC JUMPI DUP1 PUSH4 0xCD0A4963 EQ PUSH2 0x308 JUMPI DUP1 PUSH4 0xD4B83992 EQ PUSH2 0x330 JUMPI PUSH2 0xE7 JUMP JUMPDEST DUP1 PUSH4 0x8A4D5A67 EQ PUSH2 0x21A JUMPI DUP1 PUSH4 0x8DA5CB5B EQ PUSH2 0x244 JUMPI DUP1 PUSH4 0x908921FC EQ PUSH2 0x26E JUMPI DUP1 PUSH4 0xA035B1FE EQ PUSH2 0x298 JUMPI PUSH2 0xE7 JUMP JUMPDEST DUP1 PUSH4 0x33938BB7 GT PUSH2 0xC5 JUMPI DUP1 PUSH4 0x33938BB7 EQ PUSH2 0x169 JUMPI DUP1 PUSH4 0x426BFD00 EQ PUSH2 0x193 JUMPI DUP1 PUSH4 0x5B2A4CFF EQ PUSH2 0x1BD JUMPI DUP1 PUSH4 0x664AB18E EQ PUSH2 0x1F0 JUMPI PUSH2 0xE7 JUMP JUMPDEST DUP1 PUSH4 0x6661ABD EQ PUSH2 0xEB JUMPI DUP1 PUSH4 0x6FDDE03 EQ PUSH2 0x115 JUMPI DUP1 PUSH4 0x11B00617 EQ PUSH2 0x13F JUMPI JUMPDEST PUSH0 DUP1 REVERT JUMPDEST CALLVALUE DUP1 ISZERO PUSH2 0xF6 JUMPI PUSH0 DUP1 REVERT JUMPDEST POP PUSH2 0xFF PUSH2 0x35A JUMP JUMPDEST PUSH1 0x40 MLOAD PUSH2 0x10C SWAP2 SWAP1 PUSH2 0xD0B JUMP JUMPDEST PUSH1 0x40 MLOAD DUP1 SWAP2 SUB SWAP1 RETURN JUMPDEST CALLVALUE DUP1 ISZERO PUSH2 0x120 JUMPI PUSH0 DUP1 REVERT JUMPDEST POP PUSH2 0x129 PUSH2 0x360 JUMP JUMPDEST PUSH1 0x40 MLOAD PUSH2 0x136 SWAP2 SWAP1 PUSH2 0xDAE JUMP JUMPDEST PUSH1 0x40 MLOAD DUP1 SWAP2 SUB SWAP1 RETURN JUMPDEST CALLVALUE DUP1 ISZERO PUSH2 0x14A JUMPI PUSH0 DUP1 REVERT JUMPDEST POP PUSH2 0x153 PUSH2 0x3EC JUMP JUMPDEST PUSH1 0x40 MLOAD PUSH2 0x160 SWAP2 SWAP1 PUSH2 0xDAE JUMP JUMPDEST PUSH1 0x40 MLOAD DUP1 SWAP2 SUB SWAP1 RETURN JUMPDEST CALLVALUE DUP1 ISZERO PUSH2 0x174 JUMPI PUSH0 DUP1 REVERT JUMPDEST POP PUSH2 0x17D PUSH2 0x478 JUMP JUMPDEST PUSH1 0x40 MLOAD PUSH2 0x18A SWAP2 SWAP1 PUSH2 0xD0B JUMP JUMPDEST PUSH1 0x40 MLOAD DUP1 SWAP2 SUB SWAP1 RETURN JUMPDEST CALLVALUE DUP1 ISZERO PUSH2 0x19E JUMPI PUSH0 DUP1 REVERT JUMPDEST POP PUSH2 0x1A7 PUSH2 0x47E JUMP JUMPDEST PUSH1 0x40 MLOAD PUSH2 0x1B4 SWAP2 SWAP1 PUSH2 0xDAE JUMP JUMPDEST PUSH1 0x40 MLOAD DUP1 SWAP2 SUB SWAP1 RETURN JUMPDEST CALLVALUE DUP1 ISZERO PUSH2 0x1C8 JUMPI PUSH0 DUP1 REVERT JUMPDEST POP PUSH2 0x1D1 PUSH2 0x50A JUMP JUMPDEST PUSH1 0x40 MLOAD PUSH2 0x1E7 SWAP11 SWAP10 SWAP9 SWAP8 SWAP7 SWAP6 SWAP5 SWAP4 SWAP3 SWAP2 SWAP1 PUSH2 0xDE8 JUMP JUMPDEST PUSH1 0x40 MLOAD DUP1 SWAP2 SUB SWAP1 RETURN JUMPDEST CALLVALUE DUP1 ISZERO PUSH2 0x1FB JUMPI PUSH0 DUP1 REVERT JUMPDEST POP PUSH2 0x204 PUSH2 0x834 JUMP JUMPDEST PUSH1 0x40 MLOAD PUSH2 0x211 SWAP2 SWAP1 PUSH2 0xE9E JUMP JUMPDEST PUSH1 0x40 MLOAD DUP1 SWAP2 SUB SWAP1 RETURN JUMPDEST CALLVALUE DUP1 ISZERO PUSH2 0x225 JUMPI PUSH0 DUP1 REVERT JUMPDEST POP PUSH2 0x22E PUSH2 0x846 JUMP JUMPDEST PUSH1 0x40 MLOAD PUSH2 0x23B SWAP2 SWAP1 PUSH2 0xDAE JUMP JUMPDEST PUSH1 0x40 MLOAD DUP1 SWAP2 SUB SWAP1 RETURN JUMPDEST CALLVALUE DUP1 ISZERO PUSH2 0x24F JUMPI PUSH0 DUP1 REVERT JUMPDEST POP PUSH2 0x258 PUSH2 0x8D2 JUMP JUMPDEST PUSH1 0x40 MLOAD PUSH2 0x265 SWAP2 SWAP1 PUSH2 0xEF6 JUMP JUMPDEST PUSH1 0x40 MLOAD DUP1 SWAP2 SUB SWAP1 RETURN JUMPDEST CALLVALUE DUP1 ISZERO PUSH2 0x279 JUMPI PUSH0 DUP1 REVERT JUMPDEST POP PUSH2 0x282 PUSH2 0x8F7 JUMP JUMPDEST PUSH1 0x40 MLOAD PUSH2 0x28F SWAP2 SWAP1 PUSH2 0xEF6 JUMP JUMPDEST PUSH1 0x40 MLOAD DUP1 SWAP2 SUB SWAP1 RETURN JUMPDEST CALLVALUE DUP1 ISZERO PUSH2 0x2A3 JUMPI PUSH0 DUP1 REVERT JUMPDEST POP PUSH2 0x2AC PUSH2 0x91A JUMP JUMPDEST PUSH1 0x40 MLOAD PUSH2 0x2B9 SWAP2 SWAP1 PUSH2 0xD0B JUMP JUMPDEST PUSH1 0x40 MLOAD DUP1 SWAP2 SUB SWAP1 RETURN JUMPDEST PUSH2 0x2CA PUSH2 0x920 JUMP JUMPDEST STOP JUMPDEST CALLVALUE DUP1 ISZERO PUSH2 0x2D7 JUMPI PUSH0 DUP1 REVERT JUMPDEST POP PUSH2 0x2F2 PUSH1 0x4 DUP1 CALLDATASIZE SUB DUP2 ADD SWAP1 PUSH2 0x2ED SWAP2 SWAP1 PUSH2 0xF5B JUMP JUMPDEST PUSH2 0xC4F JUMP JUMPDEST PUSH1 0x40 MLOAD PUSH2 0x2FF SWAP2 SWAP1 PUSH2 0xD0B JUMP JUMPDEST PUSH1 0x40 MLOAD DUP1 SWAP2 SUB SWAP1 RETURN JUMPDEST CALLVALUE DUP1 ISZERO PUSH2 0x313 JUMPI PUSH0 DUP1 REVERT JUMPDEST POP PUSH2 0x32E PUSH1 0x4 DUP1 CALLDATASIZE SUB DUP2 ADD SWAP1 PUSH2 0x329 SWAP2 SWAP1 PUSH2 0x10B2 JUMP JUMPDEST PUSH2 0xC64 JUMP JUMPDEST STOP JUMPDEST CALLVALUE DUP1 ISZERO PUSH2 0x33B JUMPI PUSH0 DUP1 REVERT JUMPDEST POP PUSH2 0x344 PUSH2 0xCED JUMP JUMPDEST PUSH1 0x40 MLOAD PUSH2 0x351 SWAP2 SWAP1 PUSH2 0xD0B JUMP JUMPDEST PUSH1 0x40 MLOAD DUP1 SWAP2 SUB SWAP1 RETURN JUMPDEST PUSH1 0x9 SLOAD DUP2 JUMP JUMPDEST PUSH1 0x2 DUP1 SLOAD PUSH2 0x36D SWAP1 PUSH2 0x1126 JUMP JUMPDEST DUP1 PUSH1 0x1F ADD PUSH1 0x20 DUP1 SWAP2 DIV MUL PUSH1 0x20 ADD PUSH1 0x40 MLOAD SWAP1 DUP2 ADD PUSH1 0x40 MSTORE DUP1 SWAP3 SWAP2 SWAP1 DUP2 DUP2 MSTORE PUSH1 0x20 ADD DUP3 DUP1 SLOAD PUSH2 0x399 SWAP1 PUSH2 0x1126 JUMP JUMPDEST DUP1 ISZERO PUSH2 0x3E4 JUMPI DUP1 PUSH1 0x1F LT PUSH2 0x3BB JUMPI PUSH2 0x100 DUP1 DUP4 SLOAD DIV MUL DUP4 MSTORE SWAP2 PUSH1 0x20 ADD SWAP2 PUSH2 0x3E4 JUMP JUMPDEST DUP3 ADD SWAP2 SWAP1 PUSH0 MSTORE PUSH1 0x20 PUSH0 KECCAK256 SWAP1 JUMPDEST DUP2 SLOAD DUP2 MSTORE SWAP1 PUSH1 0x1 ADD SWAP1 PUSH1 0x20 ADD DUP1 DUP4 GT PUSH2 0x3C7 JUMPI DUP3 SWAP1 SUB PUSH1 0x1F AND DUP3 ADD SWAP2 JUMPDEST POP POP POP POP POP DUP2 JUMP JUMPDEST PUSH1 0x8 DUP1 SLOAD PUSH2 0x3F9 SWAP1 PUSH2 0x1126 JUMP JUMPDEST DUP1 PUSH1 0x1F ADD PUSH1 0x20 DUP1 SWAP2 DIV MUL PUSH1 0x20 ADD PUSH1 0x40 MLOAD SWAP1 DUP2 ADD PUSH1 0x40 MSTORE DUP1 SWAP3 SWAP2 SWAP1 DUP2 DUP2 MSTORE PUSH1 0x20 ADD DUP3 DUP1 SLOAD PUSH2 0x425 SWAP1 PUSH2 0x1126 JUMP JUMPDEST DUP1 ISZERO PUSH2 0x470 JUMPI DUP1 PUSH1 0x1F LT PUSH2 0x447 JUMPI PUSH2 0x100 DUP1 DUP4 SLOAD DIV MUL DUP4 MSTORE SWAP2 PUSH1 0x20 ADD SWAP2 PUSH2 0x470 JUMP JUMPDEST DUP3 ADD SWAP2 SWAP1 PUSH0 MSTORE PUSH1 0x20 PUSH0 KECCAK256 SWAP1 JUMPDEST DUP2 SLOAD DUP2 MSTORE SWAP1 PUSH1 0x1 ADD SWAP1 PUSH1 0x20 ADD DUP1 DUP4 GT PUSH2 0x453 JUMPI DUP3 SWAP1 SUB PUSH1 0x1F AND DUP3 ADD SWAP2 JUMPDEST POP POP POP POP POP DUP2 JUMP JUMPDEST PUSH1 0x5 SLOAD DUP2 JUMP JUMPDEST PUSH1 0x7 DUP1 SLOAD PUSH2 0x48B SWAP1 PUSH2 0x1126 JUMP JUMPDEST DUP1 PUSH1 0x1F ADD PUSH1 0x20 DUP1 SWAP2 DIV MUL PUSH1 0x20 ADD PUSH1 0x40 MLOAD SWAP1 DUP2 ADD PUSH1 0x40 MSTORE DUP1 SWAP3 SWAP2 SWAP1 DUP2 DUP2 MSTORE PUSH1 0x20 ADD DUP3 DUP1 SLOAD PUSH2 0x4B7 SWAP1 PUSH2 0x1126 JUMP JUMPDEST DUP1 ISZERO PUSH2 0x502 JUMPI DUP1 PUSH1 0x1F LT PUSH2 0x4D9 JUMPI PUSH2 0x100 DUP1 DUP4 SLOAD DIV MUL DUP4 MSTORE SWAP2 PUSH1 0x20 ADD SWAP2 PUSH2 0x502 JUMP JUMPDEST DUP3 ADD SWAP2 SWAP1 PUSH0 MSTORE PUSH1 0x20 PUSH0 KECCAK256 SWAP1 JUMPDEST DUP2 SLOAD DUP2 MSTORE SWAP1 PUSH1 0x1 ADD SWAP1 PUSH1 0x20 ADD DUP1 DUP4 GT PUSH2 0x4E5 JUMPI DUP3 SWAP1 SUB PUSH1 0x1F AND DUP3 ADD SWAP2 JUMPDEST POP POP POP POP POP DUP2 JUMP JUMPDEST PUSH1 0x60 DUP1 PUSH0 DUP1 PUSH0 PUSH1 0x60 DUP1 PUSH0 DUP1 PUSH0 DUP1 CALLER PUSH20 0xFFFFFFFFFFFFFFFFFFFFFFFFFFFFFFFFFFFFFFFF AND PUSH1 0x1 PUSH0 SWAP1 SLOAD SWAP1 PUSH2 0x100 EXP SWAP1 DIV PUSH20 0xFFFFFFFFFFFFFFFFFFFFFFFFFFFFFFFFFFFFFFFF AND PUSH20 0xFFFFFFFFFFFFFFFFFFFFFFFFFFFFFFFFFFFFFFFF AND SUB PUSH2 0x573 JUMPI PUSH0 SWAP1 POP PUSH2 0x5C7 JUMP JUMPDEST PUSH0 PUSH1 0xB PUSH0 CALLER PUSH20 0xFFFFFFFFFFFFFFFFFFFFFFFFFFFFFFFFFFFFFFFF AND PUSH20 0xFFFFFFFFFFFFFFFFFFFFFFFFFFFFFFFFFFFFFFFF AND DUP2 MSTORE PUSH1 0x20 ADD SWAP1 DUP2 MSTORE PUSH1 0x20 ADD PUSH0 KECCAK256 SLOAD GT ISZERO PUSH2 0x5C1 JUMPI PUSH1 0x1 SWAP1 POP PUSH2 0x5C6 JUMP JUMPDEST PUSH1 0x2 SWAP1 POP JUMPDEST JUMPDEST PUSH1 0x2 PUSH1 0x3 PUSH1 0x4 SLOAD PUSH1 0x5 SLOAD PUSH1 0x6 SLOAD PUSH1 0x7 PUSH1 0x8 PUSH1 0x9 SLOAD PUSH1 0xA PUSH0 SWAP1 SLOAD SWAP1 PUSH2 0x100 EXP SWAP1 DIV PUSH1 0xFF AND DUP10 DUP10 DUP1 SLOAD PUSH2 0x5F7 SWAP1 PUSH2 0x1126 JUMP JUMPDEST DUP1 PUSH1 0x1F ADD PUSH1 0x20 DUP1 SWAP2 DIV MUL PUSH1 0x20 ADD PUSH1 0x40 MLOAD SWAP1 DUP2 ADD PUSH1 0x40 MSTORE DUP1 SWAP3 SWAP2 SWAP1 DUP2 DUP2 MSTORE PUSH1 0x20 ADD DUP3 DUP1 SLOAD PUSH2 0x623 SWAP1 PUSH2 0x1126 JUMP JUMPDEST DUP1 ISZERO PUSH2 0x66E JUMPI DUP1 PUSH1 0x1F LT PUSH2 0x645 JUMPI PUSH2 0x100 DUP1 DUP4 SLOAD DIV MUL DUP4 MSTORE SWAP2 PUSH1 0x20 ADD SWAP2 PUSH2 0x66E JUMP JUMPDEST DUP3 ADD SWAP2 SWAP1 PUSH0 MSTORE PUSH1 0x20 PUSH0 KECCAK256 SWAP1 JUMPDEST DUP2 SLOAD DUP2 MSTORE SWAP1 PUSH1 0x1 ADD SWAP1 PUSH1 0x20 ADD DUP1 DUP4 GT PUSH2 0x651 JUMPI DUP3 SWAP1 SUB PUSH1 0x1F AND DUP3 ADD SWAP2 JUMPDEST POP POP POP POP POP SWAP10 POP DUP9 DUP1 SLOAD PUSH2 0x681 SWAP1 PUSH2 0x1126 JUMP JUMPDEST DUP1 PUSH1 0x1F ADD PUSH1 0x20 DUP1 SWAP2 DIV MUL PUSH1 0x20 ADD PUSH1 0x40 MLOAD SWAP1 DUP2 ADD PUSH1 0x40 MSTORE DUP1 SWAP3 SWAP2 SWAP1 DUP2 DUP2 MSTORE PUSH1 0x20 ADD DUP3 DUP1 SLOAD PUSH2 0x6AD SWAP1 PUSH2 0x1126 JUMP JUMPDEST DUP1 ISZERO PUSH2 0x6F8 JUMPI DUP1 PUSH1 0x1F LT PUSH2 0x6CF JUMPI PUSH2 0x100 DUP1 DUP4 SLOAD DIV MUL DUP4 MSTORE SWAP2 PUSH1 0x20 ADD SWAP2 PUSH2 0x6F8 JUMP JUMPDEST DUP3 ADD SWAP2 SWAP1 PUSH0 MSTORE PUSH1 0x20 PUSH0 KECCAK256 SWAP1 JUMPDEST DUP2 SLOAD DUP2 MSTORE SWAP1 PUSH1 0x1 ADD SWAP1 PUSH1 0x20 ADD DUP1 DUP4 GT PUSH2 0x6DB JUMPI DUP3 SWAP1 SUB PUSH1 0x1F AND DUP3 ADD SWAP2 JUMPDEST POP POP POP POP POP SWAP9 POP DUP5 DUP1 SLOAD PUSH2 0x70B SWAP1 PUSH2 0x1126 JUMP JUMPDEST DUP1 PUSH1 0x1F ADD PUSH1 0x20 DUP1 SWAP2 DIV MUL PUSH1 0x20 ADD PUSH1 0x40 MLOAD SWAP1 DUP2 ADD PUSH1 0x40 MSTORE DUP1 SWAP3 SWAP2 SWAP1 DUP2 DUP2 MSTORE PUSH1 0x20 ADD DUP3 DUP1 SLOAD PUSH2 0x737 SWAP1 PUSH2 0x1126 JUMP JUMPDEST DUP1 ISZERO PUSH2 0x782 JUMPI DUP1 PUSH1 0x1F LT PUSH2 0x759 JUMPI PUSH2 0x100 DUP1 DUP4 SLOAD DIV MUL DUP4 MSTORE SWAP2 PUSH1 0x20 ADD SWAP2 PUSH2 0x782 JUMP JUMPDEST DUP3 ADD SWAP2 SWAP1 PUSH0 MSTORE PUSH1 0x20 PUSH0 KECCAK256 SWAP1 JUMPDEST DUP2 SLOAD DUP2 MSTORE SWAP1 PUSH1 0x1 ADD SWAP1 PUSH1 0x20 ADD DUP1 DUP4 GT PUSH2 0x765 JUMPI DUP3 SWAP1 SUB PUSH1 0x1F AND DUP3 ADD SWAP2 JUMPDEST POP POP POP POP POP SWAP5 POP DUP4 DUP1 SLOAD PUSH2 0x795 SWAP1 PUSH2 0x1126 JUMP JUMPDEST DUP1 PUSH1 0x1F ADD PUSH1 0x20 DUP1 SWAP2 DIV MUL PUSH1 0x20 ADD PUSH1 0x40 MLOAD SWAP1 DUP2 ADD PUSH1 0x40 MSTORE DUP1 SWAP3 SWAP2 SWAP1 DUP2 DUP2 MSTORE PUSH1 0x20 ADD DUP3 DUP1 SLOAD PUSH2 0x7C1 SWAP1 PUSH2 0x1126 JUMP JUMPDEST DUP1 ISZERO PUSH2 0x80C JUMPI DUP1 PUSH1 0x1F LT PUSH2 0x7E3 JUMPI PUSH2 0x100 DUP1 DUP4 SLOAD DIV MUL DUP4 MSTORE SWAP2 PUSH1 0x20 ADD SWAP2 PUSH2 0x80C JUMP JUMPDEST DUP3 ADD SWAP2 SWAP1 PUSH0 MSTORE PUSH1 0x20 PUSH0 KECCAK256 SWAP1 JUMPDEST DUP2 SLOAD DUP2 MSTORE SWAP1 PUSH1 0x1 ADD SWAP1 PUSH1 0x20 ADD DUP1 DUP4 GT PUSH2 0x7EF JUMPI DUP3 SWAP1 SUB PUSH1 0x1F AND DUP3 ADD SWAP2 JUMPDEST POP POP POP POP POP SWAP4 POP SWAP11 POP SWAP11 POP SWAP11 POP SWAP11 POP SWAP11 POP SWAP11 POP SWAP11 POP SWAP11 POP SWAP11 POP SWAP11 POP POP SWAP1 SWAP2 SWAP3 SWAP4 SWAP5 SWAP6 SWAP7 SWAP8 SWAP9 SWAP10 JUMP JUMPDEST PUSH1 0xA PUSH0 SWAP1 SLOAD SWAP1 PUSH2 0x100 EXP SWAP1 DIV PUSH1 0xFF AND DUP2 JUMP JUMPDEST PUSH1 0x3 DUP1 SLOAD PUSH2 0x853 SWAP1 PUSH2 0x1126 JUMP JUMPDEST DUP1 PUSH1 0x1F ADD PUSH1 0x20 DUP1 SWAP2 DIV MUL PUSH1 0x20 ADD PUSH1 0x40 MLOAD SWAP1 DUP2 ADD PUSH1 0x40 MSTORE DUP1 SWAP3 SWAP2 SWAP1 DUP2 DUP2 MSTORE PUSH1 0x20 ADD DUP3 DUP1 SLOAD PUSH2 0x87F SWAP1 PUSH2 0x1126 JUMP JUMPDEST DUP1 ISZERO PUSH2 0x8CA JUMPI DUP1 PUSH1 0x1F LT PUSH2 0x8A1 JUMPI PUSH2 0x100 DUP1 DUP4 SLOAD DIV MUL DUP4 MSTORE SWAP2 PUSH1 0x20 ADD SWAP2 PUSH2 0x8CA JUMP JUMPDEST DUP3 ADD SWAP2 SWAP1 PUSH0 MSTORE PUSH1 0x20 PUSH0 KECCAK256 SWAP1 JUMPDEST DUP2 SLOAD DUP2 MSTORE SWAP1 PUSH1 0x1 ADD SWAP1 PUSH1 0x20 ADD DUP1 DUP4 GT PUSH2 0x8AD JUMPI DUP3 SWAP1 SUB PUSH1 0x1F AND DUP3 ADD SWAP2 JUMPDEST POP POP POP POP POP DUP2 JUMP JUMPDEST PUSH1 0x1 PUSH0 SWAP1 SLOAD SWAP1 PUSH2 0x100 EXP SWAP1 DIV PUSH20 0xFFFFFFFFFFFFFFFFFFFFFFFFFFFFFFFFFFFFFFFF AND DUP2 JUMP JUMPDEST PUSH0 DUP1 SLOAD SWAP1 PUSH2 0x100 EXP SWAP1 DIV PUSH20 0xFFFFFFFFFFFFFFFFFFFFFFFFFFFFFFFFFFFFFFFF AND DUP2 JUMP JUMPDEST PUSH1 0x6 SLOAD DUP2 JUMP JUMPDEST PUSH0 PUSH1 0xB PUSH0 CALLER PUSH20 0xFFFFFFFFFFFFFFFFFFFFFFFFFFFFFFFFFFFFFFFF AND PUSH20 0xFFFFFFFFFFFFFFFFFFFFFFFFFFFFFFFFFFFFFFFF AND DUP2 MSTORE PUSH1 0x20 ADD SWAP1 DUP2 MSTORE PUSH1 0x20 ADD PUSH0 KECCAK256 SLOAD EQ PUSH2 0x99F JUMPI PUSH1 0x40 MLOAD PUSH32 0x8C379A000000000000000000000000000000000000000000000000000000000 DUP2 MSTORE PUSH1 0x4 ADD PUSH2 0x996 SWAP1 PUSH2 0x11A0 JUMP JUMPDEST PUSH1 0x40 MLOAD DUP1 SWAP2 SUB SWAP1 REVERT JUMPDEST PUSH1 0xA PUSH0 SWAP1 SLOAD SWAP1 PUSH2 0x100 EXP SWAP1 DIV PUSH1 0xFF AND ISZERO PUSH2 0x9FC JUMPI CALLVALUE PUSH1 0x6 SLOAD EQ PUSH2 0x9F7 JUMPI PUSH1 0x40 MLOAD PUSH32 0x8C379A000000000000000000000000000000000000000000000000000000000 DUP2 MSTORE PUSH1 0x4 ADD PUSH2 0x9EE SWAP1 PUSH2 0x122E JUMP JUMPDEST PUSH1 0x40 MLOAD DUP1 SWAP2 SUB SWAP1 REVERT JUMPDEST PUSH2 0xA41 JUMP JUMPDEST CALLVALUE PUSH1 0x5 SLOAD EQ PUSH2 0xA40 JUMPI PUSH1 0x40 MLOAD PUSH32 0x8C379A000000000000000000000000000000000000000000000000000000000 DUP2 MSTORE PUSH1 0x4 ADD PUSH2 0xA37 SWAP1 PUSH2 0x1296 JUMP JUMPDEST PUSH1 0x40 MLOAD DUP1 SWAP2 SUB SWAP1 REVERT JUMPDEST JUMPDEST CALLVALUE PUSH1 0xB PUSH0 CALLER PUSH20 0xFFFFFFFFFFFFFFFFFFFFFFFFFFFFFFFFFFFFFFFF AND PUSH20 0xFFFFFFFFFFFFFFFFFFFFFFFFFFFFFFFFFFFFFFFF AND DUP2 MSTORE PUSH1 0x20 ADD SWAP1 DUP2 MSTORE PUSH1 0x20 ADD PUSH0 KECCAK256 DUP2 SWAP1 SSTORE POP PUSH1 0x1 PUSH1 0x9 PUSH0 DUP3 DUP3 SLOAD PUSH2 0xA95 SWAP2 SWAP1 PUSH2 0x12E1 JUMP JUMPDEST SWAP3 POP POP DUP2 SWAP1 SSTORE POP PUSH1 0x5 SLOAD PUSH1 0x9 SLOAD PUSH2 0xAAC SWAP2 SWAP1 PUSH2 0x1314 JUMP JUMPDEST PUSH1 0x4 SLOAD GT PUSH2 0xC4D JUMPI PUSH1 0xA PUSH0 SWAP1 SLOAD SWAP1 PUSH2 0x100 EXP SWAP1 DIV PUSH1 0xFF AND ISZERO PUSH2 0xBBD JUMPI PUSH0 CALLVALUE SWAP1 POP PUSH0 DUP1 SLOAD SWAP1 PUSH2 0x100 EXP SWAP1 DIV PUSH20 0xFFFFFFFFFFFFFFFFFFFFFFFFFFFFFFFFFFFFFFFF AND PUSH20 0xFFFFFFFFFFFFFFFFFFFFFFFFFFFFFFFFFFFFFFFF AND PUSH2 0x8FC PUSH1 0xA DUP4 PUSH2 0xB12 SWAP2 SWAP1 PUSH2 0x1382 JUMP JUMPDEST SWAP1 DUP2 ISZERO MUL SWAP1 PUSH1 0x40 MLOAD PUSH0 PUSH1 0x40 MLOAD DUP1 DUP4 SUB DUP2 DUP6 DUP9 DUP9 CALL SWAP4 POP POP POP POP ISZERO DUP1 ISZERO PUSH2 0xB3A JUMPI RETURNDATASIZE PUSH0 DUP1 RETURNDATACOPY RETURNDATASIZE PUSH0 REVERT JUMPDEST POP PUSH1 0x1 PUSH0 SWAP1 SLOAD SWAP1 PUSH2 0x100 EXP SWAP1 DIV PUSH20 0xFFFFFFFFFFFFFFFFFFFFFFFFFFFFFFFFFFFFFFFF AND PUSH20 0xFFFFFFFFFFFFFFFFFFFFFFFFFFFFFFFFFFFFFFFF AND PUSH2 0x8FC PUSH1 0xA DUP4 PUSH2 0xB83 SWAP2 SWAP1 PUSH2 0x1382 JUMP JUMPDEST DUP4 PUSH2 0xB8E SWAP2 SWAP1 PUSH2 0x13B2 JUMP JUMPDEST SWAP1 DUP2 ISZERO MUL SWAP1 PUSH1 0x40 MLOAD PUSH0 PUSH1 0x40 MLOAD DUP1 DUP4 SUB DUP2 DUP6 DUP9 DUP9 CALL SWAP4 POP POP POP POP ISZERO DUP1 ISZERO PUSH2 0xBB6 JUMPI RETURNDATASIZE PUSH0 DUP1 RETURNDATACOPY RETURNDATASIZE PUSH0 REVERT JUMPDEST POP POP PUSH2 0xC4C JUMP JUMPDEST PUSH1 0x1 PUSH1 0xA PUSH0 PUSH2 0x100 EXP DUP2 SLOAD DUP2 PUSH1 0xFF MUL NOT AND SWAP1 DUP4 ISZERO ISZERO MUL OR SWAP1 SSTORE POP PUSH1 0x1 PUSH0 SWAP1 SLOAD SWAP1 PUSH2 0x100 EXP SWAP1 DIV PUSH20 0xFFFFFFFFFFFFFFFFFFFFFFFFFFFFFFFFFFFFFFFF AND PUSH20 0xFFFFFFFFFFFFFFFFFFFFFFFFFFFFFFFFFFFFFFFF AND PUSH2 0x8FC PUSH1 0x5 SLOAD PUSH1 0x9 SLOAD PUSH2 0xC22 SWAP2 SWAP1 PUSH2 0x1314 JUMP JUMPDEST SWAP1 DUP2 ISZERO MUL SWAP1 PUSH1 0x40 MLOAD PUSH0 PUSH1 0x40 MLOAD DUP1 DUP4 SUB DUP2 DUP6 DUP9 DUP9 CALL SWAP4 POP POP POP POP ISZERO DUP1 ISZERO PUSH2 0xC4A JUMPI RETURNDATASIZE PUSH0 DUP1 RETURNDATACOPY RETURNDATASIZE PUSH0 REVERT JUMPDEST POP JUMPDEST JUMPDEST JUMP JUMPDEST PUSH1 0xB PUSH1 0x20 MSTORE DUP1 PUSH0 MSTORE PUSH1 0x40 PUSH0 KECCAK256 PUSH0 SWAP2 POP SWAP1 POP SLOAD DUP2 JUMP JUMPDEST PUSH1 0x1 PUSH0 SWAP1 SLOAD SWAP1 PUSH2 0x100 EXP SWAP1 DIV PUSH20 0xFFFFFFFFFFFFFFFFFFFFFFFFFFFFFFFFFFFFFFFF AND PUSH20 0xFFFFFFFFFFFFFFFFFFFFFFFFFFFFFFFFFFFFFFFF AND CALLER PUSH20 0xFFFFFFFFFFFFFFFFFFFFFFFFFFFFFFFFFFFFFFFF AND EQ PUSH2 0xCBC JUMPI PUSH0 DUP1 REVERT JUMPDEST PUSH1 0x1 ISZERO ISZERO PUSH1 0xA PUSH0 SWAP1 SLOAD SWAP1 PUSH2 0x100 EXP SWAP1 DIV PUSH1 0xFF AND ISZERO ISZERO EQ PUSH2 0xCDA JUMPI PUSH0 DUP1 REVERT JUMPDEST DUP1 PUSH1 0x8 SWAP1 DUP2 PUSH2 0xCE9 SWAP2 SWAP1 PUSH2 0x1582 JUMP JUMPDEST POP POP JUMP JUMPDEST PUSH1 0x4 SLOAD DUP2 JUMP JUMPDEST PUSH0 DUP2 SWAP1 POP SWAP2 SWAP1 POP JUMP JUMPDEST PUSH2 0xD05 DUP2 PUSH2 0xCF3 JUMP JUMPDEST DUP3 MSTORE POP POP JUMP JUMPDEST PUSH0 PUSH1 0x20 DUP3 ADD SWAP1 POP PUSH2 0xD1E PUSH0 DUP4 ADD DUP5 PUSH2 0xCFC JUMP JUMPDEST SWAP3 SWAP2 POP POP JUMP JUMPDEST PUSH0 DUP2 MLOAD SWAP1 POP SWAP2 SWAP1 POP JUMP JUMPDEST PUSH0 DUP3 DUP3 MSTORE PUSH1 0x20 DUP3 ADD SWAP1 POP SWAP3 SWAP2 POP POP JUMP JUMPDEST PUSH0 JUMPDEST DUP4 DUP2 LT ISZERO PUSH2 0xD5B JUMPI DUP1 DUP3 ADD MLOAD DUP2 DUP5 ADD MSTORE PUSH1 0x20 DUP2 ADD SWAP1 POP PUSH2 0xD40 JUMP JUMPDEST PUSH0 DUP5 DUP5 ADD MSTORE POP POP POP POP JUMP JUMPDEST PUSH0 PUSH1 0x1F NOT PUSH1 0x1F DUP4 ADD AND SWAP1 POP SWAP2 SWAP1 POP JUMP JUMPDEST PUSH0 PUSH2 0xD80 DUP3 PUSH2 0xD24 JUMP JUMPDEST PUSH2 0xD8A DUP2 DUP6 PUSH2 0xD2E JUMP JUMPDEST SWAP4 POP PUSH2 0xD9A DUP2 DUP6 PUSH1 0x20 DUP7 ADD PUSH2 0xD3E JUMP JUMPDEST PUSH2 0xDA3 DUP2 PUSH2 0xD66 JUMP JUMPDEST DUP5 ADD SWAP2 POP POP SWAP3 SWAP2 POP POP JUMP JUMPDEST PUSH0 PUSH1 0x20 DUP3 ADD SWAP1 POP DUP2 DUP2 SUB PUSH0 DUP4 ADD MSTORE PUSH2 0xDC6 DUP2 DUP5 PUSH2 0xD76 JUMP JUMPDEST SWAP1 POP SWAP3 SWAP2 POP POP JUMP JUMPDEST PUSH0 DUP2 ISZERO ISZERO SWAP1 POP SWAP2 SWAP1 POP JUMP JUMPDEST PUSH2 0xDE2 DUP2 PUSH2 0xDCE JUMP JUMPDEST DUP3 MSTORE POP POP JUMP JUMPDEST PUSH0 PUSH2 0x140 DUP3 ADD SWAP1 POP DUP2 DUP2 SUB PUSH0 DUP4 ADD MSTORE PUSH2 0xE01 DUP2 DUP14 PUSH2 0xD76 JUMP JUMPDEST SWAP1 POP DUP2 DUP2 SUB PUSH1 0x20 DUP4 ADD MSTORE PUSH2 0xE15 DUP2 DUP13 PUSH2 0xD76 JUMP JUMPDEST SWAP1 POP PUSH2 0xE24 PUSH1 0x40 DUP4 ADD DUP12 PUSH2 0xCFC JUMP JUMPDEST PUSH2 0xE31 PUSH1 0x60 DUP4 ADD DUP11 PUSH2 0xCFC JUMP JUMPDEST PUSH2 0xE3E PUSH1 0x80 DUP4 ADD DUP10 PUSH2 0xCFC JUMP JUMPDEST DUP2 DUP2 SUB PUSH1 0xA0 DUP4 ADD MSTORE PUSH2 0xE50 DUP2 DUP9 PUSH2 0xD76 JUMP JUMPDEST SWAP1 POP DUP2 DUP2 SUB PUSH1 0xC0 DUP4 ADD MSTORE PUSH2 0xE64 DUP2 DUP8 PUSH2 0xD76 JUMP JUMPDEST SWAP1 POP PUSH2 0xE73 PUSH1 0xE0 DUP4 ADD DUP7 PUSH2 0xCFC JUMP JUMPDEST PUSH2 0xE81 PUSH2 0x100 DUP4 ADD DUP6 PUSH2 0xDD9 JUMP JUMPDEST PUSH2 0xE8F PUSH2 0x120 DUP4 ADD DUP5 PUSH2 0xCFC JUMP JUMPDEST SWAP12 SWAP11 POP POP POP POP POP POP POP POP POP POP POP JUMP JUMPDEST PUSH0 PUSH1 0x20 DUP3 ADD SWAP1 POP PUSH2 0xEB1 PUSH0 DUP4 ADD DUP5 PUSH2 0xDD9 JUMP JUMPDEST SWAP3 SWAP2 POP POP JUMP JUMPDEST PUSH0 PUSH20 0xFFFFFFFFFFFFFFFFFFFFFFFFFFFFFFFFFFFFFFFF DUP3 AND SWAP1 POP SWAP2 SWAP1 POP JUMP JUMPDEST PUSH0 PUSH2 0xEE0 DUP3 PUSH2 0xEB7 JUMP JUMPDEST SWAP1 POP SWAP2 SWAP1 POP JUMP JUMPDEST PUSH2 0xEF0 DUP2 PUSH2 0xED6 JUMP JUMPDEST DUP3 MSTORE POP POP JUMP JUMPDEST PUSH0 PUSH1 0x20 DUP3 ADD SWAP1 POP PUSH2 0xF09 PUSH0 DUP4 ADD DUP5 PUSH2 0xEE7 JUMP JUMPDEST SWAP3 SWAP2 POP POP JUMP JUMPDEST PUSH0 PUSH1 0x40 MLOAD SWAP1 POP SWAP1 JUMP JUMPDEST PUSH0 DUP1 REVERT JUMPDEST PUSH0 DUP1 REVERT JUMPDEST PUSH0 PUSH2 0xF2A DUP3 PUSH2 0xEB7 JUMP JUMPDEST SWAP1 POP SWAP2 SWAP1 POP JUMP JUMPDEST PUSH2 0xF3A DUP2 PUSH2 0xF20 JUMP JUMPDEST DUP2 EQ PUSH2 0xF44 JUMPI PUSH0 DUP1 REVERT JUMPDEST POP JUMP JUMPDEST PUSH0 DUP2 CALLDATALOAD SWAP1 POP PUSH2 0xF55 DUP2 PUSH2 0xF31 JUMP JUMPDEST SWAP3 SWAP2 POP POP JUMP JUMPDEST PUSH0 PUSH1 0x20 DUP3 DUP5 SUB SLT ISZERO PUSH2 0xF70 JUMPI PUSH2 0xF6F PUSH2 0xF18 JUMP JUMPDEST JUMPDEST PUSH0 PUSH2 0xF7D DUP5 DUP3 DUP6 ADD PUSH2 0xF47 JUMP JUMPDEST SWAP2 POP POP SWAP3 SWAP2 POP POP JUMP JUMPDEST PUSH0 DUP1 REVERT JUMPDEST PUSH0 DUP1 REVERT JUMPDEST PUSH32 0x4E487B7100000000000000000000000000000000000000000000000000000000 PUSH0 MSTORE PUSH1 0x41 PUSH1 0x4 MSTORE PUSH1 0x24 PUSH0 REVERT JUMPDEST PUSH2 0xFC4 DUP3 PUSH2 0xD66 JUMP JUMPDEST DUP2 ADD DUP2 DUP2 LT PUSH8 0xFFFFFFFFFFFFFFFF DUP3 GT OR ISZERO PUSH2 0xFE3 JUMPI PUSH2 0xFE2 PUSH2 0xF8E JUMP JUMPDEST JUMPDEST DUP1 PUSH1 0x40 MSTORE POP POP POP JUMP JUMPDEST PUSH0 PUSH2 0xFF5 PUSH2 0xF0F JUMP JUMPDEST SWAP1 POP PUSH2 0x1001 DUP3 DUP3 PUSH2 0xFBB JUMP JUMPDEST SWAP2 SWAP1 POP JUMP JUMPDEST PUSH0 PUSH8 0xFFFFFFFFFFFFFFFF DUP3 GT ISZERO PUSH2 0x1020 JUMPI PUSH2 0x101F PUSH2 0xF8E JUMP JUMPDEST JUMPDEST PUSH2 0x1029 DUP3 PUSH2 0xD66 JUMP JUMPDEST SWAP1 POP PUSH1 0x20 DUP2 ADD SWAP1 POP SWAP2 SWAP1 POP JUMP JUMPDEST DUP3 DUP2 DUP4 CALLDATACOPY PUSH0 DUP4 DUP4 ADD MSTORE POP POP POP JUMP JUMPDEST PUSH0 PUSH2 0x1056 PUSH2 0x1051 DUP5 PUSH2 0x1006 JUMP JUMPDEST PUSH2 0xFEC JUMP JUMPDEST SWAP1 POP DUP3 DUP2 MSTORE PUSH1 0x20 DUP2 ADD DUP5 DUP5 DUP5 ADD GT ISZERO PUSH2 0x1072 JUMPI PUSH2 0x1071 PUSH2 0xF8A JUMP JUMPDEST JUMPDEST PUSH2 0x107D DUP5 DUP3 DUP6 PUSH2 0x1036 JUMP JUMPDEST POP SWAP4 SWAP3 POP POP POP JUMP JUMPDEST PUSH0 DUP3 PUSH1 0x1F DUP4 ADD SLT PUSH2 0x1099 JUMPI PUSH2 0x1098 PUSH2 0xF86 JUMP JUMPDEST JUMPDEST DUP2 CALLDATALOAD PUSH2 0x10A9 DUP5 DUP3 PUSH1 0x20 DUP7 ADD PUSH2 0x1044 JUMP JUMPDEST SWAP2 POP POP SWAP3 SWAP2 POP POP JUMP JUMPDEST PUSH0 PUSH1 0x20 DUP3 DUP5 SUB SLT ISZERO PUSH2 0x10C7 JUMPI PUSH2 0x10C6 PUSH2 0xF18 JUMP JUMPDEST JUMPDEST PUSH0 DUP3 ADD CALLDATALOAD PUSH8 0xFFFFFFFFFFFFFFFF DUP2 GT ISZERO PUSH2 0x10E4 JUMPI PUSH2 0x10E3 PUSH2 0xF1C JUMP JUMPDEST JUMPDEST PUSH2 0x10F0 DUP5 DUP3 DUP6 ADD PUSH2 0x1085 JUMP JUMPDEST SWAP2 POP POP SWAP3 SWAP2 POP POP JUMP JUMPDEST PUSH32 0x4E487B7100000000000000000000000000000000000000000000000000000000 PUSH0 MSTORE PUSH1 0x22 PUSH1 0x4 MSTORE PUSH1 0x24 PUSH0 REVERT JUMPDEST PUSH0 PUSH1 0x2 DUP3 DIV SWAP1 POP PUSH1 0x1 DUP3 AND DUP1 PUSH2 0x113D JUMPI PUSH1 0x7F DUP3 AND SWAP2 POP JUMPDEST PUSH1 0x20 DUP3 LT DUP2 SUB PUSH2 0x1150 JUMPI PUSH2 0x114F PUSH2 0x10F9 JUMP JUMPDEST JUMPDEST POP SWAP2 SWAP1 POP JUMP JUMPDEST PUSH32 0x596F7520616C726561647920626F756768742074686520636F75727365000000 PUSH0 DUP3 ADD MSTORE POP JUMP JUMPDEST PUSH0 PUSH2 0x118A PUSH1 0x1D DUP4 PUSH2 0xD2E JUMP JUMPDEST SWAP2 POP PUSH2 0x1195 DUP3 PUSH2 0x1156 JUMP JUMPDEST PUSH1 0x20 DUP3 ADD SWAP1 POP SWAP2 SWAP1 POP JUMP JUMPDEST PUSH0 PUSH1 0x20 DUP3 ADD SWAP1 POP DUP2 DUP2 SUB PUSH0 DUP4 ADD MSTORE PUSH2 0x11B7 DUP2 PUSH2 0x117E JUMP JUMPDEST SWAP1 POP SWAP2 SWAP1 POP JUMP JUMPDEST PUSH32 0x496E636F727265637420707269636520666F72206F6E6C696E6520636F757273 PUSH0 DUP3 ADD MSTORE PUSH32 0x6500000000000000000000000000000000000000000000000000000000000000 PUSH1 0x20 DUP3 ADD MSTORE POP JUMP JUMPDEST PUSH0 PUSH2 0x1218 PUSH1 0x21 DUP4 PUSH2 0xD2E JUMP JUMPDEST SWAP2 POP PUSH2 0x1223 DUP3 PUSH2 0x11BE JUMP JUMPDEST PUSH1 0x40 DUP3 ADD SWAP1 POP SWAP2 SWAP1 POP JUMP JUMPDEST PUSH0 PUSH1 0x20 DUP3 ADD SWAP1 POP DUP2 DUP2 SUB PUSH0 DUP4 ADD MSTORE PUSH2 0x1245 DUP2 PUSH2 0x120C JUMP JUMPDEST SWAP1 POP SWAP2 SWAP1 POP JUMP JUMPDEST PUSH32 0x496E636F72726563742066756E64696E6720616D6F756E740000000000000000 PUSH0 DUP3 ADD MSTORE POP JUMP JUMPDEST PUSH0 PUSH2 0x1280 PUSH1 0x18 DUP4 PUSH2 0xD2E JUMP JUMPDEST SWAP2 POP PUSH2 0x128B DUP3 PUSH2 0x124C JUMP JUMPDEST PUSH1 0x20 DUP3 ADD SWAP1 POP SWAP2 SWAP1 POP JUMP JUMPDEST PUSH0 PUSH1 0x20 DUP3 ADD SWAP1 POP DUP2 DUP2 SUB PUSH0 DUP4 ADD MSTORE PUSH2 0x12AD DUP2 PUSH2 0x1274 JUMP JUMPDEST SWAP1 POP SWAP2 SWAP1 POP JUMP JUMPDEST PUSH32 0x4E487B7100000000000000000000000000000000000000000000000000000000 PUSH0 MSTORE PUSH1 0x11 PUSH1 0x4 MSTORE PUSH1 0x24 PUSH0 REVERT JUMPDEST PUSH0 PUSH2 0x12EB DUP3 PUSH2 0xCF3 JUMP JUMPDEST SWAP2 POP PUSH2 0x12F6 DUP4 PUSH2 0xCF3 JUMP JUMPDEST SWAP3 POP DUP3 DUP3 ADD SWAP1 POP DUP1 DUP3 GT ISZERO PUSH2 0x130E JUMPI PUSH2 0x130D PUSH2 0x12B4 JUMP JUMPDEST JUMPDEST SWAP3 SWAP2 POP POP JUMP JUMPDEST PUSH0 PUSH2 0x131E DUP3 PUSH2 0xCF3 JUMP JUMPDEST SWAP2 POP PUSH2 0x1329 DUP4 PUSH2 0xCF3 JUMP JUMPDEST SWAP3 POP DUP3 DUP3 MUL PUSH2 0x1337 DUP2 PUSH2 0xCF3 JUMP JUMPDEST SWAP2 POP DUP3 DUP3 DIV DUP5 EQ DUP4 ISZERO OR PUSH2 0x134E JUMPI PUSH2 0x134D PUSH2 0x12B4 JUMP JUMPDEST JUMPDEST POP SWAP3 SWAP2 POP POP JUMP JUMPDEST PUSH32 0x4E487B7100000000000000000000000000000000000000000000000000000000 PUSH0 MSTORE PUSH1 0x12 PUSH1 0x4 MSTORE PUSH1 0x24 PUSH0 REVERT JUMPDEST PUSH0 PUSH2 0x138C DUP3 PUSH2 0xCF3 JUMP JUMPDEST SWAP2 POP PUSH2 0x1397 DUP4 PUSH2 0xCF3 JUMP JUMPDEST SWAP3 POP DUP3 PUSH2 0x13A7 JUMPI PUSH2 0x13A6 PUSH2 0x1355 JUMP JUMPDEST JUMPDEST DUP3 DUP3 DIV SWAP1 POP SWAP3 SWAP2 POP POP JUMP JUMPDEST PUSH0 PUSH2 0x13BC DUP3 PUSH2 0xCF3 JUMP JUMPDEST SWAP2 POP PUSH2 0x13C7 DUP4 PUSH2 0xCF3 JUMP JUMPDEST SWAP3 POP DUP3 DUP3 SUB SWAP1 POP DUP2 DUP2 GT ISZERO PUSH2 0x13DF JUMPI PUSH2 0x13DE PUSH2 0x12B4 JUMP JUMPDEST JUMPDEST SWAP3 SWAP2 POP POP JUMP JUMPDEST PUSH0 DUP2 SWAP1 POP DUP2 PUSH0 MSTORE PUSH1 0x20 PUSH0 KECCAK256 SWAP1 POP SWAP2 SWAP1 POP JUMP JUMPDEST PUSH0 PUSH1 0x20 PUSH1 0x1F DUP4 ADD DIV SWAP1 POP SWAP2 SWAP1 POP JUMP JUMPDEST PUSH0 DUP3 DUP3 SHL SWAP1 POP SWAP3 SWAP2 POP POP JUMP JUMPDEST PUSH0 PUSH1 0x8 DUP4 MUL PUSH2 0x1441 PUSH32 0xFFFFFFFFFFFFFFFFFFFFFFFFFFFFFFFFFFFFFFFFFFFFFFFFFFFFFFFFFFFFFFFF DUP3 PUSH2 0x1406 JUMP JUMPDEST PUSH2 0x144B DUP7 DUP4 PUSH2 0x1406 JUMP JUMPDEST SWAP6 POP DUP1 NOT DUP5 AND SWAP4 POP DUP1 DUP7 AND DUP5 OR SWAP3 POP POP POP SWAP4 SWAP3 POP POP POP JUMP JUMPDEST PUSH0 DUP2 SWAP1 POP SWAP2 SWAP1 POP JUMP JUMPDEST PUSH0 PUSH2 0x1486 PUSH2 0x1481 PUSH2 0x147C DUP5 PUSH2 0xCF3 JUMP JUMPDEST PUSH2 0x1463 JUMP JUMPDEST PUSH2 0xCF3 JUMP JUMPDEST SWAP1 POP SWAP2 SWAP1 POP JUMP JUMPDEST PUSH0 DUP2 SWAP1 POP SWAP2 SWAP1 POP JUMP JUMPDEST PUSH2 0x149F DUP4 PUSH2 0x146C JUMP JUMPDEST PUSH2 0x14B3 PUSH2 0x14AB DUP3 PUSH2 0x148D JUMP JUMPDEST DUP5 DUP5 SLOAD PUSH2 0x1412 JUMP JUMPDEST DUP3 SSTORE POP POP POP POP JUMP JUMPDEST PUSH0 SWAP1 JUMP JUMPDEST PUSH2 0x14C7 PUSH2 0x14BB JUMP JUMPDEST PUSH2 0x14D2 DUP2 DUP5 DUP5 PUSH2 0x1496 JUMP JUMPDEST POP POP POP JUMP JUMPDEST JUMPDEST DUP2 DUP2 LT ISZERO PUSH2 0x14F5 JUMPI PUSH2 0x14EA PUSH0 DUP3 PUSH2 0x14BF JUMP JUMPDEST PUSH1 0x1 DUP2 ADD SWAP1 POP PUSH2 0x14D8 JUMP JUMPDEST POP POP JUMP JUMPDEST PUSH1 0x1F DUP3 GT ISZERO PUSH2 0x153A JUMPI PUSH2 0x150B DUP2 PUSH2 0x13E5 JUMP JUMPDEST PUSH2 0x1514 DUP5 PUSH2 0x13F7 JUMP JUMPDEST DUP2 ADD PUSH1 0x20 DUP6 LT ISZERO PUSH2 0x1523 JUMPI DUP2 SWAP1 POP JUMPDEST PUSH2 0x1537 PUSH2 0x152F DUP6 PUSH2 0x13F7 JUMP JUMPDEST DUP4 ADD DUP3 PUSH2 0x14D7 JUMP JUMPDEST POP POP JUMPDEST POP POP POP JUMP JUMPDEST PUSH0 DUP3 DUP3 SHR SWAP1 POP SWAP3 SWAP2 POP POP JUMP JUMPDEST PUSH0 PUSH2 0x155A PUSH0 NOT DUP5 PUSH1 0x8 MUL PUSH2 0x153F JUMP JUMPDEST NOT DUP1 DUP4 AND SWAP2 POP POP SWAP3 SWAP2 POP POP JUMP JUMPDEST PUSH0 PUSH2 0x1572 DUP4 DUP4 PUSH2 0x154B JUMP JUMPDEST SWAP2 POP DUP3 PUSH1 0x2 MUL DUP3 OR SWAP1 POP SWAP3 SWAP2 POP POP JUMP JUMPDEST PUSH2 0x158B DUP3 PUSH2 0xD24 JUMP JUMPDEST PUSH8 0xFFFFFFFFFFFFFFFF DUP2 GT ISZERO PUSH2 0x15A4 JUMPI PUSH2 0x15A3 PUSH2 0xF8E JUMP JUMPDEST JUMPDEST PUSH2 0x15AE DUP3 SLOAD PUSH2 0x1126 JUMP JUMPDEST PUSH2 0x15B9 DUP3 DUP3 DUP6 PUSH2 0x14F9 JUMP JUMPDEST PUSH0 PUSH1 0x20 SWAP1 POP PUSH1 0x1F DUP4 GT PUSH1 0x1 DUP2 EQ PUSH2 0x15EA JUMPI PUSH0 DUP5 ISZERO PUSH2 0x15D8 JUMPI DUP3 DUP8 ADD MLOAD SWAP1 POP JUMPDEST PUSH2 0x15E2 DUP6 DUP3 PUSH2 0x1567 JUMP JUMPDEST DUP7 SSTORE POP PUSH2 0x1649 JUMP JUMPDEST PUSH1 0x1F NOT DUP5 AND PUSH2 0x15F8 DUP7 PUSH2 0x13E5 JUMP JUMPDEST PUSH0 JUMPDEST DUP3 DUP2 LT ISZERO PUSH2 0x161F JUMPI DUP5 DUP10 ADD MLOAD DUP3 SSTORE PUSH1 0x1 DUP3 ADD SWAP2 POP PUSH1 0x20 DUP6 ADD SWAP5 POP PUSH1 0x20 DUP2 ADD SWAP1 POP PUSH2 0x15FA JUMP JUMPDEST DUP7 DUP4 LT ISZERO PUSH2 0x163C JUMPI DUP5 DUP10 ADD MLOAD PUSH2 0x1638 PUSH1 0x1F DUP10 AND DUP3 PUSH2 0x154B JUMP JUMPDEST DUP4 SSTORE POP JUMPDEST PUSH1 0x1 PUSH1 0x2 DUP9 MUL ADD DUP9 SSTORE POP POP POP JUMPDEST POP POP POP POP POP POP JUMP INVALID LOG2 PUSH5 0x6970667358 0x22 SLT KECCAK256 0xBE 0xC0 0xE0 GT 0xE0 GASLIMIT MSTORE 0xA8 0xF9 SLT PUSH19 0xF39C37C25A763EF9543B0C6E37F640109AFD7B ADDMOD 0x23 PUSH5 0x736F6C6343 STOP ADDMOD XOR STOP CALLER "
    },
    "gasEstimates": {
      "creation": {
        "codeDepositCost": "1153400",
        "executionCost": "infinite",
        "totalCost": "infinite"
      },
      "external": {
        "addVideo(string)": "infinite",
        "buy()": "infinite",
        "ceo()": "2572",
        "content()": "infinite",
        "count()": "2449",
        "fundingPrice()": "2448",
        "getDetail()": "infinite",
        "img()": "infinite",
        "isOnline()": "2555",
        "name()": "infinite",
        "owner()": "2553",
        "price()": "2514",
        "target()": "2513",
        "users(address)": "2846",
        "video()": "infinite"
      }
    },
    "methodIdentifiers": {
      "addVideo(string)": "cd0a4963",
      "buy()": "a6f2ae3a",
      "ceo()": "908921fc",
      "content()": "8a4d5a67",
      "count()": "06661abd",
      "fundingPrice()": "33938bb7",
      "getDetail()": "5b2a4cff",
      "img()": "426bfd00",
      "isOnline()": "664ab18e",
      "name()": "06fdde03",
      "owner()": "8da5cb5b",
      "price()": "a035b1fe",
      "target()": "d4b83992",
      "users(address)": "a87430ba",
      "video()": "11b00617"
    }
  },
  "storageLayout": {
    "storage": [
      {
        "astId": 3,
        "contract": "Imooc.sol:Course",
        "label": "ceo",
        "offset": 0,
        "slot": "0",
        "type": "t_address_payable"
      },
      {
        "astId": 5,
        "contract": "Imooc.sol:Course",
        "label": "owner",
        "offset": 0,
        "slot": "1",
        "type": "t_address_payable"
      },
      {
        "astId": 7,
        "contract": "Imooc.sol:Course",
        "label": "name",
        "offset": 0,
        "slot": "2",
        "type": "t_string_storage"
      },
      {
        "astId": 9,
        "contract": "Imooc.sol:Course",
        "label": "content",
        "offset": 0,
        "slot": "3",
        "type": "t_string_storage"
      },
      {
        "astId": 11,
        "contract": "Imooc.sol:Course",
        "label": "target",
        "offset": 0,
        "slot": "4",
        "type": "t_uint256"
      },
      {
        "astId": 13,
        "contract": "Imooc.sol:Course",
        "label": "fundingPrice",
        "offset": 0,
        "slot": "5",
        "type": "t_uint256"
      },
      {
        "astId": 15,
        "contract": "Imooc.sol:Course",
        "label": "price",
        "offset": 0,
        "slot": "6",
        "type": "t_uint256"
      },
      {
        "astId": 17,
        "contract": "Imooc.sol:Course",
        "label": "img",
        "offset": 0,
        "slot": "7",
        "type": "t_string_storage"
      },
      {
        "astId": 19,
        "contract": "Imooc.sol:Course",
        "label": "video",
        "offset": 0,
        "slot": "8",
        "type": "t_string_storage"
      },
      {
        "astId": 21,
        "contract": "Imooc.sol:Course",
        "label": "count",
        "offset": 0,
        "slot": "9",
        "type": "t_uint256"
      },
      {
        "astId": 23,
        "contract": "Imooc.sol:Course",
        "label": "isOnline",
        "offset": 0,
        "slot": "10",
        "type": "t_bool"
      },
      {
        "astId": 27,
        "contract": "Imooc.sol:Course",
        "label": "users",
        "offset": 0,
        "slot": "11",
        "type": "t_mapping(t_address,t_uint256)"
      }
    ],
    "types": {
      "t_address": {
        "encoding": "inplace",
        "label": "address",
        "numberOfBytes": "20"
      },
      "t_address_payable": {
        "encoding": "inplace",
        "label": "address payable",
        "numberOfBytes": "20"
      },
      "t_bool": {
        "encoding": "inplace",
        "label": "bool",
        "numberOfBytes": "1"
      },
      "t_mapping(t_address,t_uint256)": {
        "encoding": "mapping",
        "key": "t_address",
        "label": "mapping(address => uint256)",
        "numberOfBytes": "32",
        "value": "t_uint256"
      },
      "t_string_storage": {
        "encoding": "bytes",
        "label": "string",
        "numberOfBytes": "32"
      },
      "t_uint256": {
        "encoding": "inplace",
        "label": "uint256",
        "numberOfBytes": "32"
      }
    }
  },
  "userdoc": {
    "kind": "user",
    "methods": {},
    "version": 1
  }
}